{
  "_format": "hh-sol-artifact-1",
  "contractName": "TravelInsuranceClaim",
  "sourceName": "contracts/TravelClaim.sol",
  "abi": [
    {
      "inputs": [
        {
          "internalType": "address",
          "name": "_globalClaimTracker",
          "type": "address"
        }
      ],
      "stateMutability": "nonpayable",
      "type": "constructor"
    },
    {
      "anonymous": false,
      "inputs": [
        {
          "indexed": true,
          "internalType": "uint256",
          "name": "claimId",
          "type": "uint256"
        },
        {
          "indexed": true,
          "internalType": "string",
          "name": "policyNumber",
          "type": "string"
        },
        {
          "indexed": false,
          "internalType": "string",
          "name": "policyHolderName",
          "type": "string"
        }
      ],
      "name": "TravelClaimFiled",
      "type": "event"
    },
    {
      "inputs": [],
      "name": "claimCount",
      "outputs": [
        {
          "internalType": "uint256",
          "name": "",
          "type": "uint256"
        }
      ],
      "stateMutability": "view",
      "type": "function"
    },
    {
      "inputs": [
        {
          "internalType": "uint256",
          "name": "",
          "type": "uint256"
        }
      ],
      "name": "claims",
      "outputs": [
        {
          "components": [
            {
              "internalType": "string",
              "name": "policyNumber",
              "type": "string"
            },
            {
              "internalType": "string",
              "name": "policyHolderName",
              "type": "string"
            },
            {
              "internalType": "string",
              "name": "phoneNumber",
              "type": "string"
            },
            {
              "internalType": "string",
              "name": "holderAddress",
              "type": "string"
            },
            {
              "internalType": "string",
              "name": "dob",
              "type": "string"
            },
            {
              "internalType": "string",
              "name": "gender",
              "type": "string"
            },
            {
              "internalType": "string",
              "name": "nationality",
              "type": "string"
            },
            {
              "internalType": "string",
              "name": "passportNumber",
              "type": "string"
            },
            {
              "internalType": "string",
              "name": "email",
              "type": "string"
            },
            {
              "internalType": "string",
              "name": "policyStartDate",
              "type": "string"
            },
            {
              "internalType": "string",
              "name": "policyEndDate",
              "type": "string"
            },
            {
              "internalType": "string",
              "name": "insuranceCompany",
              "type": "string"
            },
            {
              "internalType": "string",
              "name": "brokerName",
              "type": "string"
            }
          ],
          "internalType": "struct TravelInsuranceClaim.PolicyDetails",
          "name": "policyDetails",
          "type": "tuple"
        },
        {
          "components": [
            {
              "internalType": "string",
              "name": "departureDate",
              "type": "string"
            },
            {
              "internalType": "string",
              "name": "returnDate",
              "type": "string"
            },
            {
              "internalType": "string",
              "name": "source",
              "type": "string"
            },
            {
              "internalType": "string",
              "name": "destination",
              "type": "string"
            },
            {
              "internalType": "string",
              "name": "purposeOfTravel",
              "type": "string"
            }
          ],
          "internalType": "struct TravelInsuranceClaim.TravelDetails",
          "name": "travelDetails",
          "type": "tuple"
        },
        {
          "components": [
            {
              "internalType": "string",
              "name": "typeOfClaim",
              "type": "string"
            },
            {
              "internalType": "string",
              "name": "descriptionOfEvent",
              "type": "string"
            },
            {
              "internalType": "string",
              "name": "amountClaimed",
              "type": "string"
            },
            {
              "internalType": "string",
              "name": "attachedDocument",
              "type": "string"
            }
          ],
          "internalType": "struct TravelInsuranceClaim.ClaimDetails",
          "name": "claimDetails",
          "type": "tuple"
        },
        {
          "components": [
            {
              "internalType": "string",
              "name": "accountNumber",
              "type": "string"
            },
            {
              "internalType": "string",
              "name": "bankName",
              "type": "string"
            },
            {
              "internalType": "string",
              "name": "accountHolderName",
              "type": "string"
            },
            {
              "internalType": "string",
              "name": "ifscNumber",
              "type": "string"
            }
          ],
          "internalType": "struct TravelInsuranceClaim.BankDetails",
          "name": "bankDetails",
          "type": "tuple"
        },
        {
          "components": [
            {
              "internalType": "string",
              "name": "signature",
              "type": "string"
            },
            {
              "internalType": "string",
              "name": "declarationDate",
              "type": "string"
            }
          ],
          "internalType": "struct TravelInsuranceClaim.DeclarationDetails",
          "name": "declarationDetails",
          "type": "tuple"
        }
      ],
      "stateMutability": "view",
      "type": "function"
    },
    {
      "inputs": [
        {
          "components": [
            {
              "internalType": "string",
              "name": "policyNumber",
              "type": "string"
            },
            {
              "internalType": "string",
              "name": "policyHolderName",
              "type": "string"
            },
            {
              "internalType": "string",
              "name": "phoneNumber",
              "type": "string"
            },
            {
              "internalType": "string",
              "name": "holderAddress",
              "type": "string"
            },
            {
              "internalType": "string",
              "name": "dob",
              "type": "string"
            },
            {
              "internalType": "string",
              "name": "gender",
              "type": "string"
            },
            {
              "internalType": "string",
              "name": "nationality",
              "type": "string"
            },
            {
              "internalType": "string",
              "name": "passportNumber",
              "type": "string"
            },
            {
              "internalType": "string",
              "name": "email",
              "type": "string"
            },
            {
              "internalType": "string",
              "name": "policyStartDate",
              "type": "string"
            },
            {
              "internalType": "string",
              "name": "policyEndDate",
              "type": "string"
            },
            {
              "internalType": "string",
              "name": "insuranceCompany",
              "type": "string"
            },
            {
              "internalType": "string",
              "name": "brokerName",
              "type": "string"
            }
          ],
          "internalType": "struct TravelInsuranceClaim.PolicyDetails",
          "name": "_policyDetails",
          "type": "tuple"
        },
        {
          "components": [
            {
              "internalType": "string",
              "name": "departureDate",
              "type": "string"
            },
            {
              "internalType": "string",
              "name": "returnDate",
              "type": "string"
            },
            {
              "internalType": "string",
              "name": "source",
              "type": "string"
            },
            {
              "internalType": "string",
              "name": "destination",
              "type": "string"
            },
            {
              "internalType": "string",
              "name": "purposeOfTravel",
              "type": "string"
            }
          ],
          "internalType": "struct TravelInsuranceClaim.TravelDetails",
          "name": "_travelDetails",
          "type": "tuple"
        },
        {
          "components": [
            {
              "internalType": "string",
              "name": "typeOfClaim",
              "type": "string"
            },
            {
              "internalType": "string",
              "name": "descriptionOfEvent",
              "type": "string"
            },
            {
              "internalType": "string",
              "name": "amountClaimed",
              "type": "string"
            },
            {
              "internalType": "string",
              "name": "attachedDocument",
              "type": "string"
            }
          ],
          "internalType": "struct TravelInsuranceClaim.ClaimDetails",
          "name": "_claimDetails",
          "type": "tuple"
        },
        {
          "components": [
            {
              "internalType": "string",
              "name": "accountNumber",
              "type": "string"
            },
            {
              "internalType": "string",
              "name": "bankName",
              "type": "string"
            },
            {
              "internalType": "string",
              "name": "accountHolderName",
              "type": "string"
            },
            {
              "internalType": "string",
              "name": "ifscNumber",
              "type": "string"
            }
          ],
          "internalType": "struct TravelInsuranceClaim.BankDetails",
          "name": "_bankDetails",
          "type": "tuple"
        },
        {
          "components": [
            {
              "internalType": "string",
              "name": "signature",
              "type": "string"
            },
            {
              "internalType": "string",
              "name": "declarationDate",
              "type": "string"
            }
          ],
          "internalType": "struct TravelInsuranceClaim.DeclarationDetails",
          "name": "_declarationDetails",
          "type": "tuple"
        }
      ],
      "name": "fileTravelClaim",
      "outputs": [],
      "stateMutability": "nonpayable",
      "type": "function"
    },
    {
      "inputs": [],
      "name": "globalClaimTracker",
      "outputs": [
        {
          "internalType": "contract GlobalClaimTracker",
          "name": "",
          "type": "address"
        }
      ],
      "stateMutability": "view",
      "type": "function"
    },
    {
      "inputs": [
        {
          "internalType": "string",
          "name": "policyNumber",
          "type": "string"
        }
      ],
      "name": "hasClaimed",
      "outputs": [
        {
          "internalType": "bool",
          "name": "",
          "type": "bool"
        }
      ],
      "stateMutability": "view",
      "type": "function"
    }
  ],
  "bytecode": "0x608060405234801561001057600080fd5b50604051612b97380380612b97833981810160405281019061003291906100db565b806000806101000a81548173ffffffffffffffffffffffffffffffffffffffff021916908373ffffffffffffffffffffffffffffffffffffffff16021790555050610108565b600080fd5b600073ffffffffffffffffffffffffffffffffffffffff82169050919050565b60006100a88261007d565b9050919050565b6100b88161009d565b81146100c357600080fd5b50565b6000815190506100d5816100af565b92915050565b6000602082840312156100f1576100f0610078565b5b60006100ff848285016100c6565b91505092915050565b612a80806101176000396000f3fe608060405234801561001057600080fd5b50600436106100575760003560e01c8063275284501461005c578063363454ee146100785780638da4d3c9146100a8578063a888c2cd146100c6578063c796bbf4146100fa575b600080fd5b61007660048036038101906100719190611dff565b610118565b005b610092600480360381019061008d9190611f06565b610555565b60405161009f9190611f6a565b60405180910390f35b6100b06105fc565b6040516100bd9190611f9e565b60405180910390f35b6100e060048036038101906100db9190611fe5565b610602565b6040516100f19594939291906123c4565b60405180910390f35b610102611663565b60405161010f91906124b9565b60405180910390f35b60008060009054906101000a900473ffffffffffffffffffffffffffffffffffffffff1673ffffffffffffffffffffffffffffffffffffffff1663080c3fd3600288600001516040518363ffffffff1660e01b815260040161017b929190612595565b6020604051808303816000875af115801561019a573d6000803e3d6000fd5b505050506040513d601f19601f820116820180604052508101906101be91906125f1565b905080610200576040517f08c379a00000000000000000000000000000000000000000000000000000000081526004016101f79061266a565b60405180910390fd5b6040518060a00160405280878152602001868152602001858152602001848152602001838152506001600060026000815461023a906126b9565b9190508190558152602001908152602001600020600082015181600001600082015181600001908161026c9190612903565b5060208201518160010190816102829190612903565b5060408201518160020190816102989190612903565b5060608201518160030190816102ae9190612903565b5060808201518160040190816102c49190612903565b5060a08201518160050190816102da9190612903565b5060c08201518160060190816102f09190612903565b5060e08201518160070190816103069190612903565b5061010082015181600801908161031d9190612903565b506101208201518160090190816103349190612903565b5061014082015181600a01908161034b9190612903565b5061016082015181600b0190816103629190612903565b5061018082015181600c0190816103799190612903565b505050602082015181600d01600082015181600001908161039a9190612903565b5060208201518160010190816103b09190612903565b5060408201518160020190816103c69190612903565b5060608201518160030190816103dc9190612903565b5060808201518160040190816103f29190612903565b50505060408201518160120160008201518160000190816104139190612903565b5060208201518160010190816104299190612903565b50604082015181600201908161043f9190612903565b5060608201518160030190816104559190612903565b50505060608201518160160160008201518160000190816104769190612903565b50602082015181600101908161048c9190612903565b5060408201518160020190816104a29190612903565b5060608201518160030190816104b89190612903565b505050608082015181601a0160008201518160000190816104d99190612903565b5060208201518160010190816104ef9190612903565b50505090505085600001516040516105079190612a11565b60405180910390206002547fa4d841e9aeecfd465b95f07d1979f3a4b08b69e2187120c84edf08e54086fa0988602001516040516105459190612a28565b60405180910390a3505050505050565b60008060009054906101000a900473ffffffffffffffffffffffffffffffffffffffff1673ffffffffffffffffffffffffffffffffffffffff1663791ca6676002846040518363ffffffff1660e01b81526004016105b4929190612595565b602060405180830381865afa1580156105d1573d6000803e3d6000fd5b505050506040513d601f19601f820116820180604052508101906105f591906125f1565b9050919050565b60025481565b600160205280600052604060002060009150905080600001604051806101a001604052908160008201805461063690612730565b80601f016020809104026020016040519081016040528092919081815260200182805461066290612730565b80156106af5780601f10610684576101008083540402835291602001916106af565b820191906000526020600020905b81548152906001019060200180831161069257829003601f168201915b505050505081526020016001820180546106c890612730565b80601f01602080910402602001604051908101604052809291908181526020018280546106f490612730565b80156107415780601f1061071657610100808354040283529160200191610741565b820191906000526020600020905b81548152906001019060200180831161072457829003601f168201915b5050505050815260200160028201805461075a90612730565b80601f016020809104026020016040519081016040528092919081815260200182805461078690612730565b80156107d35780601f106107a8576101008083540402835291602001916107d3565b820191906000526020600020905b8154815290600101906020018083116107b657829003601f168201915b505050505081526020016003820180546107ec90612730565b80601f016020809104026020016040519081016040528092919081815260200182805461081890612730565b80156108655780601f1061083a57610100808354040283529160200191610865565b820191906000526020600020905b81548152906001019060200180831161084857829003601f168201915b5050505050815260200160048201805461087e90612730565b80601f01602080910402602001604051908101604052809291908181526020018280546108aa90612730565b80156108f75780601f106108cc576101008083540402835291602001916108f7565b820191906000526020600020905b8154815290600101906020018083116108da57829003601f168201915b5050505050815260200160058201805461091090612730565b80601f016020809104026020016040519081016040528092919081815260200182805461093c90612730565b80156109895780601f1061095e57610100808354040283529160200191610989565b820191906000526020600020905b81548152906001019060200180831161096c57829003601f168201915b505050505081526020016006820180546109a290612730565b80601f01602080910402602001604051908101604052809291908181526020018280546109ce90612730565b8015610a1b5780601f106109f057610100808354040283529160200191610a1b565b820191906000526020600020905b8154815290600101906020018083116109fe57829003601f168201915b50505050508152602001600782018054610a3490612730565b80601f0160208091040260200160405190810160405280929190818152602001828054610a6090612730565b8015610aad5780601f10610a8257610100808354040283529160200191610aad565b820191906000526020600020905b815481529060010190602001808311610a9057829003601f168201915b50505050508152602001600882018054610ac690612730565b80601f0160208091040260200160405190810160405280929190818152602001828054610af290612730565b8015610b3f5780601f10610b1457610100808354040283529160200191610b3f565b820191906000526020600020905b815481529060010190602001808311610b2257829003601f168201915b50505050508152602001600982018054610b5890612730565b80601f0160208091040260200160405190810160405280929190818152602001828054610b8490612730565b8015610bd15780601f10610ba657610100808354040283529160200191610bd1565b820191906000526020600020905b815481529060010190602001808311610bb457829003601f168201915b50505050508152602001600a82018054610bea90612730565b80601f0160208091040260200160405190810160405280929190818152602001828054610c1690612730565b8015610c635780601f10610c3857610100808354040283529160200191610c63565b820191906000526020600020905b815481529060010190602001808311610c4657829003601f168201915b50505050508152602001600b82018054610c7c90612730565b80601f0160208091040260200160405190810160405280929190818152602001828054610ca890612730565b8015610cf55780601f10610cca57610100808354040283529160200191610cf5565b820191906000526020600020905b815481529060010190602001808311610cd857829003601f168201915b50505050508152602001600c82018054610d0e90612730565b80601f0160208091040260200160405190810160405280929190818152602001828054610d3a90612730565b8015610d875780601f10610d5c57610100808354040283529160200191610d87565b820191906000526020600020905b815481529060010190602001808311610d6a57829003601f168201915b5050505050815250509080600d016040518060a0016040529081600082018054610db090612730565b80601f0160208091040260200160405190810160405280929190818152602001828054610ddc90612730565b8015610e295780601f10610dfe57610100808354040283529160200191610e29565b820191906000526020600020905b815481529060010190602001808311610e0c57829003601f168201915b50505050508152602001600182018054610e4290612730565b80601f0160208091040260200160405190810160405280929190818152602001828054610e6e90612730565b8015610ebb5780601f10610e9057610100808354040283529160200191610ebb565b820191906000526020600020905b815481529060010190602001808311610e9e57829003601f168201915b50505050508152602001600282018054610ed490612730565b80601f0160208091040260200160405190810160405280929190818152602001828054610f0090612730565b8015610f4d5780601f10610f2257610100808354040283529160200191610f4d565b820191906000526020600020905b815481529060010190602001808311610f3057829003601f168201915b50505050508152602001600382018054610f6690612730565b80601f0160208091040260200160405190810160405280929190818152602001828054610f9290612730565b8015610fdf5780601f10610fb457610100808354040283529160200191610fdf565b820191906000526020600020905b815481529060010190602001808311610fc257829003601f168201915b50505050508152602001600482018054610ff890612730565b80601f016020809104026020016040519081016040528092919081815260200182805461102490612730565b80156110715780601f1061104657610100808354040283529160200191611071565b820191906000526020600020905b81548152906001019060200180831161105457829003601f168201915b505050505081525050908060120160405180608001604052908160008201805461109a90612730565b80601f01602080910402602001604051908101604052809291908181526020018280546110c690612730565b80156111135780601f106110e857610100808354040283529160200191611113565b820191906000526020600020905b8154815290600101906020018083116110f657829003601f168201915b5050505050815260200160018201805461112c90612730565b80601f016020809104026020016040519081016040528092919081815260200182805461115890612730565b80156111a55780601f1061117a576101008083540402835291602001916111a5565b820191906000526020600020905b81548152906001019060200180831161118857829003601f168201915b505050505081526020016002820180546111be90612730565b80601f01602080910402602001604051908101604052809291908181526020018280546111ea90612730565b80156112375780601f1061120c57610100808354040283529160200191611237565b820191906000526020600020905b81548152906001019060200180831161121a57829003601f168201915b5050505050815260200160038201805461125090612730565b80601f016020809104026020016040519081016040528092919081815260200182805461127c90612730565b80156112c95780601f1061129e576101008083540402835291602001916112c9565b820191906000526020600020905b8154815290600101906020018083116112ac57829003601f168201915b50505050508152505090806016016040518060800160405290816000820180546112f290612730565b80601f016020809104026020016040519081016040528092919081815260200182805461131e90612730565b801561136b5780601f106113405761010080835404028352916020019161136b565b820191906000526020600020905b81548152906001019060200180831161134e57829003601f168201915b5050505050815260200160018201805461138490612730565b80601f01602080910402602001604051908101604052809291908181526020018280546113b090612730565b80156113fd5780601f106113d2576101008083540402835291602001916113fd565b820191906000526020600020905b8154815290600101906020018083116113e057829003601f168201915b5050505050815260200160028201805461141690612730565b80601f016020809104026020016040519081016040528092919081815260200182805461144290612730565b801561148f5780601f106114645761010080835404028352916020019161148f565b820191906000526020600020905b81548152906001019060200180831161147257829003601f168201915b505050505081526020016003820180546114a890612730565b80601f01602080910402602001604051908101604052809291908181526020018280546114d490612730565b80156115215780601f106114f657610100808354040283529160200191611521565b820191906000526020600020905b81548152906001019060200180831161150457829003601f168201915b5050505050815250509080601a0160405180604001604052908160008201805461154a90612730565b80601f016020809104026020016040519081016040528092919081815260200182805461157690612730565b80156115c35780601f10611598576101008083540402835291602001916115c3565b820191906000526020600020905b8154815290600101906020018083116115a657829003601f168201915b505050505081526020016001820180546115dc90612730565b80601f016020809104026020016040519081016040528092919081815260200182805461160890612730565b80156116555780601f1061162a57610100808354040283529160200191611655565b820191906000526020600020905b81548152906001019060200180831161163857829003601f168201915b505050505081525050905085565b60008054906101000a900473ffffffffffffffffffffffffffffffffffffffff1681565b6000604051905090565b600080fd5b600080fd5b600080fd5b6000601f19601f8301169050919050565b7f4e487b7100000000000000000000000000000000000000000000000000000000600052604160045260246000fd5b6116e9826116a0565b810181811067ffffffffffffffff82111715611708576117076116b1565b5b80604052505050565b600061171b611687565b905061172782826116e0565b919050565b600080fd5b600080fd5b600080fd5b600067ffffffffffffffff821115611756576117556116b1565b5b61175f826116a0565b9050602081019050919050565b82818337600083830152505050565b600061178e6117898461173b565b611711565b9050828152602081018484840111156117aa576117a9611736565b5b6117b584828561176c565b509392505050565b600082601f8301126117d2576117d1611731565b5b81356117e284826020860161177b565b91505092915050565b60006101a082840312156118025761180161169b565b5b61180d6101a0611711565b9050600082013567ffffffffffffffff81111561182d5761182c61172c565b5b611839848285016117bd565b600083015250602082013567ffffffffffffffff81111561185d5761185c61172c565b5b611869848285016117bd565b602083015250604082013567ffffffffffffffff81111561188d5761188c61172c565b5b611899848285016117bd565b604083015250606082013567ffffffffffffffff8111156118bd576118bc61172c565b5b6118c9848285016117bd565b606083015250608082013567ffffffffffffffff8111156118ed576118ec61172c565b5b6118f9848285016117bd565b60808301525060a082013567ffffffffffffffff81111561191d5761191c61172c565b5b611929848285016117bd565b60a08301525060c082013567ffffffffffffffff81111561194d5761194c61172c565b5b611959848285016117bd565b60c08301525060e082013567ffffffffffffffff81111561197d5761197c61172c565b5b611989848285016117bd565b60e08301525061010082013567ffffffffffffffff8111156119ae576119ad61172c565b5b6119ba848285016117bd565b6101008301525061012082013567ffffffffffffffff8111156119e0576119df61172c565b5b6119ec848285016117bd565b6101208301525061014082013567ffffffffffffffff811115611a1257611a1161172c565b5b611a1e848285016117bd565b6101408301525061016082013567ffffffffffffffff811115611a4457611a4361172c565b5b611a50848285016117bd565b6101608301525061018082013567ffffffffffffffff811115611a7657611a7561172c565b5b611a82848285016117bd565b6101808301525092915050565b600060a08284031215611aa557611aa461169b565b5b611aaf60a0611711565b9050600082013567ffffffffffffffff811115611acf57611ace61172c565b5b611adb848285016117bd565b600083015250602082013567ffffffffffffffff811115611aff57611afe61172c565b5b611b0b848285016117bd565b602083015250604082013567ffffffffffffffff811115611b2f57611b2e61172c565b5b611b3b848285016117bd565b604083015250606082013567ffffffffffffffff811115611b5f57611b5e61172c565b5b611b6b848285016117bd565b606083015250608082013567ffffffffffffffff811115611b8f57611b8e61172c565b5b611b9b848285016117bd565b60808301525092915050565b600060808284031215611bbd57611bbc61169b565b5b611bc76080611711565b9050600082013567ffffffffffffffff811115611be757611be661172c565b5b611bf3848285016117bd565b600083015250602082013567ffffffffffffffff811115611c1757611c1661172c565b5b611c23848285016117bd565b602083015250604082013567ffffffffffffffff811115611c4757611c4661172c565b5b611c53848285016117bd565b604083015250606082013567ffffffffffffffff811115611c7757611c7661172c565b5b611c83848285016117bd565b60608301525092915050565b600060808284031215611ca557611ca461169b565b5b611caf6080611711565b9050600082013567ffffffffffffffff811115611ccf57611cce61172c565b5b611cdb848285016117bd565b600083015250602082013567ffffffffffffffff811115611cff57611cfe61172c565b5b611d0b848285016117bd565b602083015250604082013567ffffffffffffffff811115611d2f57611d2e61172c565b5b611d3b848285016117bd565b604083015250606082013567ffffffffffffffff811115611d5f57611d5e61172c565b5b611d6b848285016117bd565b60608301525092915050565b600060408284031215611d8d57611d8c61169b565b5b611d976040611711565b9050600082013567ffffffffffffffff811115611db757611db661172c565b5b611dc3848285016117bd565b600083015250602082013567ffffffffffffffff811115611de757611de661172c565b5b611df3848285016117bd565b60208301525092915050565b600080600080600060a08688031215611e1b57611e1a611691565b5b600086013567ffffffffffffffff811115611e3957611e38611696565b5b611e45888289016117eb565b955050602086013567ffffffffffffffff811115611e6657611e65611696565b5b611e7288828901611a8f565b945050604086013567ffffffffffffffff811115611e9357611e92611696565b5b611e9f88828901611ba7565b935050606086013567ffffffffffffffff811115611ec057611ebf611696565b5b611ecc88828901611c8f565b925050608086013567ffffffffffffffff811115611eed57611eec611696565b5b611ef988828901611d77565b9150509295509295909350565b600060208284031215611f1c57611f1b611691565b5b600082013567ffffffffffffffff811115611f3a57611f39611696565b5b611f46848285016117bd565b91505092915050565b60008115159050919050565b611f6481611f4f565b82525050565b6000602082019050611f7f6000830184611f5b565b92915050565b6000819050919050565b611f9881611f85565b82525050565b6000602082019050611fb36000830184611f8f565b92915050565b611fc281611f85565b8114611fcd57600080fd5b50565b600081359050611fdf81611fb9565b92915050565b600060208284031215611ffb57611ffa611691565b5b600061200984828501611fd0565b91505092915050565b600081519050919050565b600082825260208201905092915050565b60005b8381101561204c578082015181840152602081019050612031565b60008484015250505050565b600061206382612012565b61206d818561201d565b935061207d81856020860161202e565b612086816116a0565b840191505092915050565b60006101a08301600083015184820360008601526120af8282612058565b915050602083015184820360208601526120c98282612058565b915050604083015184820360408601526120e38282612058565b915050606083015184820360608601526120fd8282612058565b915050608083015184820360808601526121178282612058565b91505060a083015184820360a08601526121318282612058565b91505060c083015184820360c086015261214b8282612058565b91505060e083015184820360e08601526121658282612058565b9150506101008301518482036101008601526121818282612058565b91505061012083015184820361012086015261219d8282612058565b9150506101408301518482036101408601526121b98282612058565b9150506101608301518482036101608601526121d58282612058565b9150506101808301518482036101808601526121f18282612058565b9150508091505092915050565b600060a083016000830151848203600086015261221b8282612058565b915050602083015184820360208601526122358282612058565b9150506040830151848203604086015261224f8282612058565b915050606083015184820360608601526122698282612058565b915050608083015184820360808601526122838282612058565b9150508091505092915050565b600060808301600083015184820360008601526122ad8282612058565b915050602083015184820360208601526122c78282612058565b915050604083015184820360408601526122e18282612058565b915050606083015184820360608601526122fb8282612058565b9150508091505092915050565b600060808301600083015184820360008601526123258282612058565b9150506020830151848203602086015261233f8282612058565b915050604083015184820360408601526123598282612058565b915050606083015184820360608601526123738282612058565b9150508091505092915050565b6000604083016000830151848203600086015261239d8282612058565b915050602083015184820360208601526123b78282612058565b9150508091505092915050565b600060a08201905081810360008301526123de8188612091565b905081810360208301526123f281876121fe565b905081810360408301526124068186612290565b9050818103606083015261241a8185612308565b9050818103608083015261242e8184612380565b90509695505050505050565b600073ffffffffffffffffffffffffffffffffffffffff82169050919050565b6000819050919050565b600061247f61247a6124758461243a565b61245a565b61243a565b9050919050565b600061249182612464565b9050919050565b60006124a382612486565b9050919050565b6124b381612498565b82525050565b60006020820190506124ce60008301846124aa565b92915050565b7f4e487b7100000000000000000000000000000000000000000000000000000000600052602160045260246000fd5b60048110612514576125136124d4565b5b50565b600081905061252582612503565b919050565b600061253582612517565b9050919050565b6125458161252a565b82525050565b600082825260208201905092915050565b600061256782612012565b612571818561254b565b935061258181856020860161202e565b61258a816116a0565b840191505092915050565b60006040820190506125aa600083018561253c565b81810360208301526125bc818461255c565b90509392505050565b6125ce81611f4f565b81146125d957600080fd5b50565b6000815190506125eb816125c5565b92915050565b60006020828403121561260757612606611691565b5b6000612615848285016125dc565b91505092915050565b7f446f75626c652064697070696e67206465746563746564210000000000000000600082015250565b600061265460188361254b565b915061265f8261261e565b602082019050919050565b6000602082019050818103600083015261268381612647565b9050919050565b7f4e487b7100000000000000000000000000000000000000000000000000000000600052601160045260246000fd5b60006126c482611f85565b91507fffffffffffffffffffffffffffffffffffffffffffffffffffffffffffffffff82036126f6576126f561268a565b5b600182019050919050565b7f4e487b7100000000000000000000000000000000000000000000000000000000600052602260045260246000fd5b6000600282049050600182168061274857607f821691505b60208210810361275b5761275a612701565b5b50919050565b60008190508160005260206000209050919050565b60006020601f8301049050919050565b600082821b905092915050565b6000600883026127c37fffffffffffffffffffffffffffffffffffffffffffffffffffffffffffffffff82612786565b6127cd8683612786565b95508019841693508086168417925050509392505050565b60006128006127fb6127f684611f85565b61245a565b611f85565b9050919050565b6000819050919050565b61281a836127e5565b61282e61282682612807565b848454612793565b825550505050565b600090565b612843612836565b61284e818484612811565b505050565b5b818110156128725761286760008261283b565b600181019050612854565b5050565b601f8211156128b75761288881612761565b61289184612776565b810160208510156128a0578190505b6128b46128ac85612776565b830182612853565b50505b505050565b600082821c905092915050565b60006128da600019846008026128bc565b1980831691505092915050565b60006128f383836128c9565b9150826002028217905092915050565b61290c82612012565b67ffffffffffffffff811115612925576129246116b1565b5b61292f8254612730565b61293a828285612876565b600060209050601f83116001811461296d576000841561295b578287015190505b61296585826128e7565b8655506129cd565b601f19841661297b86612761565b60005b828110156129a35784890151825560018201915060208501945060208101905061297e565b868310156129c057848901516129bc601f8916826128c9565b8355505b6001600288020188555050505b505050505050565b600081905092915050565b60006129eb82612012565b6129f581856129d5565b9350612a0581856020860161202e565b80840191505092915050565b6000612a1d82846129e0565b915081905092915050565b60006020820190508181036000830152612a42818461255c565b90509291505056fea2646970667358221220af9d2770991f0106f8cc46168b35e1929cc87eea8ec06beff5f41cfd5415452864736f6c634300081a0033",
  "linkReferences": {},
  "deployedLinkReferences": {}
}