{"contracts/VehicleClaim.sol":{"VehicleInsuranceClaim":{"abi":[{"inputs":[{"internalType":"address","name":"_globalClaimTracker","type":"address"}],"stateMutability":"nonpayable","type":"constructor"},{"anonymous":false,"inputs":[{"indexed":true,"internalType":"uint256","name":"claimId","type":"uint256"},{"indexed":true,"internalType":"string","name":"policyNumber","type":"string"},{"indexed":false,"internalType":"string","name":"policyHolderName","type":"string"}],"name":"VehicleClaimFiled","type":"event"},{"inputs":[],"name":"claimCount","outputs":[{"internalType":"uint256","name":"","type":"uint256"}],"stateMutability":"view","type":"function"},{"inputs":[{"internalType":"uint256","name":"","type":"uint256"}],"name":"claims","outputs":[{"components":[{"internalType":"string","name":"policyNumber","type":"string"},{"internalType":"string","name":"policyHolderName","type":"string"},{"internalType":"bytes32","name":"phoneNumber","type":"bytes32"},{"internalType":"bytes32","name":"holderAddress","type":"bytes32"},{"internalType":"bytes32","name":"district","type":"bytes32"},{"internalType":"bytes32","name":"pinCode","type":"bytes32"},{"internalType":"bytes32","name":"email","type":"bytes32"},{"internalType":"bytes32","name":"panNo","type":"bytes32"},{"internalType":"bytes32","name":"aadhar","type":"bytes32"},{"internalType":"bytes32","name":"yearlyIncome","type":"bytes32"},{"internalType":"bytes32","name":"occupation","type":"bytes32"},{"internalType":"bytes32","name":"dob","type":"bytes32"},{"internalType":"bytes32","name":"gender","type":"bytes32"},{"internalType":"bytes32","name":"insuranceCompany","type":"bytes32"},{"internalType":"uint8","name":"familyMembers","type":"uint8"},{"internalType":"uint8","name":"membersOver18","type":"uint8"},{"internalType":"uint8","name":"membersDrive","type":"uint8"},{"internalType":"uint8","name":"numberOfVehicle","type":"uint8"},{"internalType":"bytes32","name":"averageKM","type":"bytes32"},{"internalType":"bytes32","name":"antitheftDevice","type":"bytes32"},{"internalType":"bytes32","name":"haveClaimedInYear","type":"bytes32"},{"internalType":"bytes32","name":"usage","type":"bytes32"}],"internalType":"struct VehicleInsuranceClaim.PolicyDetails","name":"policyDetails","type":"tuple"},{"components":[{"internalType":"bytes32","name":"vehicleRegistrationNo","type":"bytes32"},{"internalType":"bytes32","name":"vehicleModel","type":"bytes32"},{"internalType":"bytes32","name":"dateOfRegistration","type":"bytes32"},{"internalType":"bytes32","name":"mileage","type":"bytes32"},{"internalType":"bytes32","name":"km","type":"bytes32"},{"internalType":"bytes32","name":"chassisNo","type":"bytes32"},{"internalType":"bytes32","name":"engineNo","type":"bytes32"},{"internalType":"bytes32","name":"classOfVehicle","type":"bytes32"}],"internalType":"struct VehicleInsuranceClaim.VehicleDetails","name":"vehicleDetails","type":"tuple"},{"components":[{"internalType":"bytes32","name":"driverName","type":"bytes32"},{"internalType":"bytes32","name":"driverAddress","type":"bytes32"},{"internalType":"bytes32","name":"relationshipWithDriver","type":"bytes32"},{"internalType":"bytes32","name":"driverGender","type":"bytes32"},{"internalType":"bytes32","name":"wasDriverDrunk","type":"bytes32"},{"internalType":"bytes32","name":"drivingLicenseNo","type":"bytes32"},{"internalType":"bytes32","name":"licenseIssueAuthority","type":"bytes32"},{"internalType":"bytes32","name":"dateOfExpiry","type":"bytes32"},{"internalType":"bytes32","name":"typeOfLicense","type":"bytes32"},{"internalType":"bytes32","name":"detailsOfSuspension","type":"bytes32"},{"internalType":"bytes32","name":"licenseTemporary","type":"bytes32"}],"internalType":"struct VehicleInsuranceClaim.DriverDetails","name":"driverDetails","type":"tuple"},{"components":[{"internalType":"bytes32","name":"dateOfAccident","type":"bytes32"},{"internalType":"bytes32","name":"timeOfAccident","type":"bytes32"},{"internalType":"bytes32","name":"location","type":"bytes32"},{"internalType":"bytes32","name":"descriptionOfAccident","type":"bytes32"},{"internalType":"bytes32","name":"thirdPartyResponsible","type":"bytes32"},{"internalType":"bytes32","name":"detailOfThirdParty","type":"bytes32"},{"internalType":"bytes32","name":"reportedToPolice","type":"bytes32"},{"internalType":"bytes32","name":"policeDetails","type":"bytes32"},{"internalType":"bytes32","name":"repairCost","type":"bytes32"},{"internalType":"bytes32","name":"supportingDocument","type":"bytes32"}],"internalType":"struct VehicleInsuranceClaim.AccidentDetails","name":"accidentDetails","type":"tuple"},{"components":[{"internalType":"string","name":"accountNumber","type":"string"},{"internalType":"string","name":"bankName","type":"string"},{"internalType":"string","name":"panNumber","type":"string"},{"internalType":"string","name":"ifscNumber","type":"string"}],"internalType":"struct VehicleInsuranceClaim.BankDetails","name":"bankDetails","type":"tuple"}],"stateMutability":"view","type":"function"},{"inputs":[{"components":[{"internalType":"string","name":"policyNumber","type":"string"},{"internalType":"string","name":"policyHolderName","type":"string"},{"internalType":"bytes32","name":"phoneNumber","type":"bytes32"},{"internalType":"bytes32","name":"holderAddress","type":"bytes32"},{"internalType":"bytes32","name":"district","type":"bytes32"},{"internalType":"bytes32","name":"pinCode","type":"bytes32"},{"internalType":"bytes32","name":"email","type":"bytes32"},{"internalType":"bytes32","name":"panNo","type":"bytes32"},{"internalType":"bytes32","name":"aadhar","type":"bytes32"},{"internalType":"bytes32","name":"yearlyIncome","type":"bytes32"},{"internalType":"bytes32","name":"occupation","type":"bytes32"},{"internalType":"bytes32","name":"dob","type":"bytes32"},{"internalType":"bytes32","name":"gender","type":"bytes32"},{"internalType":"bytes32","name":"insuranceCompany","type":"bytes32"},{"internalType":"uint8","name":"familyMembers","type":"uint8"},{"internalType":"uint8","name":"membersOver18","type":"uint8"},{"internalType":"uint8","name":"membersDrive","type":"uint8"},{"internalType":"uint8","name":"numberOfVehicle","type":"uint8"},{"internalType":"bytes32","name":"averageKM","type":"bytes32"},{"internalType":"bytes32","name":"antitheftDevice","type":"bytes32"},{"internalType":"bytes32","name":"haveClaimedInYear","type":"bytes32"},{"internalType":"bytes32","name":"usage","type":"bytes32"}],"internalType":"struct VehicleInsuranceClaim.PolicyDetails","name":"_policyDetails","type":"tuple"},{"components":[{"internalType":"bytes32","name":"vehicleRegistrationNo","type":"bytes32"},{"internalType":"bytes32","name":"vehicleModel","type":"bytes32"},{"internalType":"bytes32","name":"dateOfRegistration","type":"bytes32"},{"internalType":"bytes32","name":"mileage","type":"bytes32"},{"internalType":"bytes32","name":"km","type":"bytes32"},{"internalType":"bytes32","name":"chassisNo","type":"bytes32"},{"internalType":"bytes32","name":"engineNo","type":"bytes32"},{"internalType":"bytes32","name":"classOfVehicle","type":"bytes32"}],"internalType":"struct VehicleInsuranceClaim.VehicleDetails","name":"_vehicleDetails","type":"tuple"},{"components":[{"internalType":"bytes32","name":"driverName","type":"bytes32"},{"internalType":"bytes32","name":"driverAddress","type":"bytes32"},{"internalType":"bytes32","name":"relationshipWithDriver","type":"bytes32"},{"internalType":"bytes32","name":"driverGender","type":"bytes32"},{"internalType":"bytes32","name":"wasDriverDrunk","type":"bytes32"},{"internalType":"bytes32","name":"drivingLicenseNo","type":"bytes32"},{"internalType":"bytes32","name":"licenseIssueAuthority","type":"bytes32"},{"internalType":"bytes32","name":"dateOfExpiry","type":"bytes32"},{"internalType":"bytes32","name":"typeOfLicense","type":"bytes32"},{"internalType":"bytes32","name":"detailsOfSuspension","type":"bytes32"},{"internalType":"bytes32","name":"licenseTemporary","type":"bytes32"}],"internalType":"struct VehicleInsuranceClaim.DriverDetails","name":"_driverDetails","type":"tuple"},{"components":[{"internalType":"bytes32","name":"dateOfAccident","type":"bytes32"},{"internalType":"bytes32","name":"timeOfAccident","type":"bytes32"},{"internalType":"bytes32","name":"location","type":"bytes32"},{"internalType":"bytes32","name":"descriptionOfAccident","type":"bytes32"},{"internalType":"bytes32","name":"thirdPartyResponsible","type":"bytes32"},{"internalType":"bytes32","name":"detailOfThirdParty","type":"bytes32"},{"internalType":"bytes32","name":"reportedToPolice","type":"bytes32"},{"internalType":"bytes32","name":"policeDetails","type":"bytes32"},{"internalType":"bytes32","name":"repairCost","type":"bytes32"},{"internalType":"bytes32","name":"supportingDocument","type":"bytes32"}],"internalType":"struct VehicleInsuranceClaim.AccidentDetails","name":"_accidentDetails","type":"tuple"},{"components":[{"internalType":"string","name":"accountNumber","type":"string"},{"internalType":"string","name":"bankName","type":"string"},{"internalType":"string","name":"panNumber","type":"string"},{"internalType":"string","name":"ifscNumber","type":"string"}],"internalType":"struct VehicleInsuranceClaim.BankDetails","name":"_bankDetails","type":"tuple"}],"name":"fileVehicleClaim","outputs":[],"stateMutability":"nonpayable","type":"function"},{"inputs":[],"name":"globalClaimTracker","outputs":[{"internalType":"contract GlobalClaimTracker","name":"","type":"address"}],"stateMutability":"view","type":"function"},{"inputs":[{"internalType":"string","name":"policyNumber","type":"string"}],"name":"hasClaimed","outputs":[{"internalType":"bool","name":"","type":"bool"}],"stateMutability":"view","type":"function"}],"evm":{"bytecode":{"linkReferences":{},"object":"608060405234801561001057600080fd5b50604051612327380380612327833981810160405281019061003291906100db565b806000806101000a81548173ffffffffffffffffffffffffffffffffffffffff021916908373ffffffffffffffffffffffffffffffffffffffff16021790555050610108565b600080fd5b600073ffffffffffffffffffffffffffffffffffffffff82169050919050565b60006100a88261007d565b9050919050565b6100b88161009d565b81146100c357600080fd5b50565b6000815190506100d5816100af565b92915050565b6000602082840312156100f1576100f0610078565b5b60006100ff848285016100c6565b91505092915050565b612210806101176000396000f3fe608060405234801561001057600080fd5b50600436106100575760003560e01c8063363454ee1461005c578063386f957b1461008c5780638da4d3c9146100a8578063a888c2cd146100c6578063c796bbf4146100fa575b600080fd5b61007660048036038101906100719190610dfe565b610118565b6040516100839190610e62565b60405180910390f35b6100a660048036038101906100a191906114e0565b6101bf565b005b6100b061066c565b6040516100bd91906115b0565b60405180910390f35b6100e060048036038101906100db91906115f7565b610672565b6040516100f1959493929190611b65565b60405180910390f35b610102610c80565b60405161010f9190611c49565b60405180910390f35b60008060009054906101000a900473ffffffffffffffffffffffffffffffffffffffff1673ffffffffffffffffffffffffffffffffffffffff1663791ca6676003846040518363ffffffff1660e01b8152600401610177929190611d25565b602060405180830381865afa158015610194573d6000803e3d6000fd5b505050506040513d601f19601f820116820180604052508101906101b89190611d81565b9050919050565b60008060009054906101000a900473ffffffffffffffffffffffffffffffffffffffff1673ffffffffffffffffffffffffffffffffffffffff1663080c3fd3600388600001516040518363ffffffff1660e01b8152600401610222929190611d25565b6020604051808303816000875af1158015610241573d6000803e3d6000fd5b505050506040513d601f19601f820116820180604052508101906102659190611d81565b9050806102a7576040517f08c379a000000000000000000000000000000000000000000000000000000000815260040161029e90611dfa565b60405180910390fd5b6040518060a0016040528087815260200186815260200185815260200184815260200183815250600160006002600081546102e190611e49565b919050819055815260200190815260200160002060008201518160000160008201518160000190816103139190612093565b5060208201518160010190816103299190612093565b5060408201518160020155606082015181600301556080820151816004015560a0820151816005015560c0820151816006015560e082015181600701556101008201518160080155610120820151816009015561014082015181600a015561016082015181600b015561018082015181600c01556101a082015181600d01556101c082015181600e0160006101000a81548160ff021916908360ff1602179055506101e082015181600e0160016101000a81548160ff021916908360ff16021790555061020082015181600e0160026101000a81548160ff021916908360ff16021790555061022082015181600e0160036101000a81548160ff021916908360ff16021790555061024082015181600f0155610260820151816010015561028082015181601101556102a082015181601201555050602082015181601301600082015181600001556020820151816001015560408201518160020155606082015181600301556080820151816004015560a0820151816005015560c0820151816006015560e082015181600701555050604082015181601b01600082015181600001556020820151816001015560408201518160020155606082015181600301556080820151816004015560a0820151816005015560c0820151816006015560e082015181600701556101008201518160080155610120820151816009015561014082015181600a01555050606082015181602601600082015181600001556020820151816001015560408201518160020155606082015181600301556080820151816004015560a0820151816005015560c0820151816006015560e0820151816007015561010082015181600801556101208201518160090155505060808201518160300160008201518160000190816105c49190612093565b5060208201518160010190816105da9190612093565b5060408201518160020190816105f09190612093565b5060608201518160030190816106069190612093565b505050905050856000015160405161061e91906121a1565b60405180910390206002547fadbf24a41fcc982b6a3532c0db0c1bd487e19e5905eaf7ccfbb66e0464967655886020015160405161065c91906121b8565b60405180910390a3505050505050565b60025481565b600160205280600052604060002060009150905080600001604051806102c00160405290816000820180546106a690611ec0565b80601f01602080910402602001604051908101604052809291908181526020018280546106d290611ec0565b801561071f5780601f106106f45761010080835404028352916020019161071f565b820191906000526020600020905b81548152906001019060200180831161070257829003601f168201915b5050505050815260200160018201805461073890611ec0565b80601f016020809104026020016040519081016040528092919081815260200182805461076490611ec0565b80156107b15780601f10610786576101008083540402835291602001916107b1565b820191906000526020600020905b81548152906001019060200180831161079457829003601f168201915b505050505081526020016002820154815260200160038201548152602001600482015481526020016005820154815260200160068201548152602001600782015481526020016008820154815260200160098201548152602001600a8201548152602001600b8201548152602001600c8201548152602001600d8201548152602001600e820160009054906101000a900460ff1660ff1660ff168152602001600e820160019054906101000a900460ff1660ff1660ff168152602001600e820160029054906101000a900460ff1660ff1660ff168152602001600e820160039054906101000a900460ff1660ff1660ff168152602001600f82015481526020016010820154815260200160118201548152602001601282015481525050908060130160405180610100016040529081600082015481526020016001820154815260200160028201548152602001600382015481526020016004820154815260200160058201548152602001600682015481526020016007820154815250509080601b016040518061016001604052908160008201548152602001600182015481526020016002820154815260200160038201548152602001600482015481526020016005820154815260200160068201548152602001600782015481526020016008820154815260200160098201548152602001600a820154815250509080602601604051806101400160405290816000820154815260200160018201548152602001600282015481526020016003820154815260200160048201548152602001600582015481526020016006820154815260200160078201548152602001600882015481526020016009820154815250509080603001604051806080016040529081600082018054610a4390611ec0565b80601f0160208091040260200160405190810160405280929190818152602001828054610a6f90611ec0565b8015610abc5780601f10610a9157610100808354040283529160200191610abc565b820191906000526020600020905b815481529060010190602001808311610a9f57829003601f168201915b50505050508152602001600182018054610ad590611ec0565b80601f0160208091040260200160405190810160405280929190818152602001828054610b0190611ec0565b8015610b4e5780601f10610b2357610100808354040283529160200191610b4e565b820191906000526020600020905b815481529060010190602001808311610b3157829003601f168201915b50505050508152602001600282018054610b6790611ec0565b80601f0160208091040260200160405190810160405280929190818152602001828054610b9390611ec0565b8015610be05780601f10610bb557610100808354040283529160200191610be0565b820191906000526020600020905b815481529060010190602001808311610bc357829003601f168201915b50505050508152602001600382018054610bf990611ec0565b80601f0160208091040260200160405190810160405280929190818152602001828054610c2590611ec0565b8015610c725780601f10610c4757610100808354040283529160200191610c72565b820191906000526020600020905b815481529060010190602001808311610c5557829003601f168201915b505050505081525050905085565b60008054906101000a900473ffffffffffffffffffffffffffffffffffffffff1681565b6000604051905090565b600080fd5b600080fd5b600080fd5b600080fd5b6000601f19601f8301169050919050565b7f4e487b7100000000000000000000000000000000000000000000000000000000600052604160045260246000fd5b610d0b82610cc2565b810181811067ffffffffffffffff82111715610d2a57610d29610cd3565b5b80604052505050565b6000610d3d610ca4565b9050610d498282610d02565b919050565b600067ffffffffffffffff821115610d6957610d68610cd3565b5b610d7282610cc2565b9050602081019050919050565b82818337600083830152505050565b6000610da1610d9c84610d4e565b610d33565b905082815260208101848484011115610dbd57610dbc610cbd565b5b610dc8848285610d7f565b509392505050565b600082601f830112610de557610de4610cb8565b5b8135610df5848260208601610d8e565b91505092915050565b600060208284031215610e1457610e13610cae565b5b600082013567ffffffffffffffff811115610e3257610e31610cb3565b5b610e3e84828501610dd0565b91505092915050565b60008115159050919050565b610e5c81610e47565b82525050565b6000602082019050610e776000830184610e53565b92915050565b600080fd5b600080fd5b6000819050919050565b610e9a81610e87565b8114610ea557600080fd5b50565b600081359050610eb781610e91565b92915050565b600060ff82169050919050565b610ed381610ebd565b8114610ede57600080fd5b50565b600081359050610ef081610eca565b92915050565b60006102c08284031215610f0d57610f0c610e7d565b5b610f186102c0610d33565b9050600082013567ffffffffffffffff811115610f3857610f37610e82565b5b610f4484828501610dd0565b600083015250602082013567ffffffffffffffff811115610f6857610f67610e82565b5b610f7484828501610dd0565b6020830152506040610f8884828501610ea8565b6040830152506060610f9c84828501610ea8565b6060830152506080610fb084828501610ea8565b60808301525060a0610fc484828501610ea8565b60a08301525060c0610fd884828501610ea8565b60c08301525060e0610fec84828501610ea8565b60e08301525061010061100184828501610ea8565b6101008301525061012061101784828501610ea8565b6101208301525061014061102d84828501610ea8565b6101408301525061016061104384828501610ea8565b6101608301525061018061105984828501610ea8565b610180830152506101a061106f84828501610ea8565b6101a0830152506101c061108584828501610ee1565b6101c0830152506101e061109b84828501610ee1565b6101e0830152506102006110b184828501610ee1565b610200830152506102206110c784828501610ee1565b610220830152506102406110dd84828501610ea8565b610240830152506102606110f384828501610ea8565b6102608301525061028061110984828501610ea8565b610280830152506102a061111f84828501610ea8565b6102a08301525092915050565b6000610100828403121561114357611142610e7d565b5b61114e610100610d33565b9050600061115e84828501610ea8565b600083015250602061117284828501610ea8565b602083015250604061118684828501610ea8565b604083015250606061119a84828501610ea8565b60608301525060806111ae84828501610ea8565b60808301525060a06111c284828501610ea8565b60a08301525060c06111d684828501610ea8565b60c08301525060e06111ea84828501610ea8565b60e08301525092915050565b6000610160828403121561120d5761120c610e7d565b5b611218610160610d33565b9050600061122884828501610ea8565b600083015250602061123c84828501610ea8565b602083015250604061125084828501610ea8565b604083015250606061126484828501610ea8565b606083015250608061127884828501610ea8565b60808301525060a061128c84828501610ea8565b60a08301525060c06112a084828501610ea8565b60c08301525060e06112b484828501610ea8565b60e0830152506101006112c984828501610ea8565b610100830152506101206112df84828501610ea8565b610120830152506101406112f584828501610ea8565b6101408301525092915050565b6000610140828403121561131957611318610e7d565b5b611324610140610d33565b9050600061133484828501610ea8565b600083015250602061134884828501610ea8565b602083015250604061135c84828501610ea8565b604083015250606061137084828501610ea8565b606083015250608061138484828501610ea8565b60808301525060a061139884828501610ea8565b60a08301525060c06113ac84828501610ea8565b60c08301525060e06113c084828501610ea8565b60e0830152506101006113d584828501610ea8565b610100830152506101206113eb84828501610ea8565b6101208301525092915050565b60006080828403121561140e5761140d610e7d565b5b6114186080610d33565b9050600082013567ffffffffffffffff81111561143857611437610e82565b5b61144484828501610dd0565b600083015250602082013567ffffffffffffffff81111561146857611467610e82565b5b61147484828501610dd0565b602083015250604082013567ffffffffffffffff81111561149857611497610e82565b5b6114a484828501610dd0565b604083015250606082013567ffffffffffffffff8111156114c8576114c7610e82565b5b6114d484828501610dd0565b60608301525092915050565b60008060008060006103e086880312156114fd576114fc610cae565b5b600086013567ffffffffffffffff81111561151b5761151a610cb3565b5b61152788828901610ef6565b95505060206115388882890161112c565b94505061012061154a888289016111f6565b93505061028061155c88828901611302565b9250506103c086013567ffffffffffffffff81111561157e5761157d610cb3565b5b61158a888289016113f8565b9150509295509295909350565b6000819050919050565b6115aa81611597565b82525050565b60006020820190506115c560008301846115a1565b92915050565b6115d481611597565b81146115df57600080fd5b50565b6000813590506115f1816115cb565b92915050565b60006020828403121561160d5761160c610cae565b5b600061161b848285016115e2565b91505092915050565b600081519050919050565b600082825260208201905092915050565b60005b8381101561165e578082015181840152602081019050611643565b60008484015250505050565b600061167582611624565b61167f818561162f565b935061168f818560208601611640565b61169881610cc2565b840191505092915050565b6116ac81610e87565b82525050565b6116bb81610ebd565b82525050565b60006102c08301600083015184820360008601526116df828261166a565b915050602083015184820360208601526116f9828261166a565b915050604083015161170e60408601826116a3565b50606083015161172160608601826116a3565b50608083015161173460808601826116a3565b5060a083015161174760a08601826116a3565b5060c083015161175a60c08601826116a3565b5060e083015161176d60e08601826116a3565b506101008301516117826101008601826116a3565b506101208301516117976101208601826116a3565b506101408301516117ac6101408601826116a3565b506101608301516117c16101608601826116a3565b506101808301516117d66101808601826116a3565b506101a08301516117eb6101a08601826116a3565b506101c08301516118006101c08601826116b2565b506101e08301516118156101e08601826116b2565b5061020083015161182a6102008601826116b2565b5061022083015161183f6102208601826116b2565b506102408301516118546102408601826116a3565b506102608301516118696102608601826116a3565b5061028083015161187e6102808601826116a3565b506102a08301516118936102a08601826116a3565b508091505092915050565b610100820160008201516118b560008501826116a3565b5060208201516118c860208501826116a3565b5060408201516118db60408501826116a3565b5060608201516118ee60608501826116a3565b50608082015161190160808501826116a3565b5060a082015161191460a08501826116a3565b5060c082015161192760c08501826116a3565b5060e082015161193a60e08501826116a3565b50505050565b6101608201600082015161195760008501826116a3565b50602082015161196a60208501826116a3565b50604082015161197d60408501826116a3565b50606082015161199060608501826116a3565b5060808201516119a360808501826116a3565b5060a08201516119b660a08501826116a3565b5060c08201516119c960c08501826116a3565b5060e08201516119dc60e08501826116a3565b506101008201516119f16101008501826116a3565b50610120820151611a066101208501826116a3565b50610140820151611a1b6101408501826116a3565b50505050565b61014082016000820151611a3860008501826116a3565b506020820151611a4b60208501826116a3565b506040820151611a5e60408501826116a3565b506060820151611a7160608501826116a3565b506080820151611a8460808501826116a3565b5060a0820151611a9760a08501826116a3565b5060c0820151611aaa60c08501826116a3565b5060e0820151611abd60e08501826116a3565b50610100820151611ad26101008501826116a3565b50610120820151611ae76101208501826116a3565b50505050565b60006080830160008301518482036000860152611b0a828261166a565b91505060208301518482036020860152611b24828261166a565b91505060408301518482036040860152611b3e828261166a565b91505060608301518482036060860152611b58828261166a565b9150508091505092915050565b60006103e0820190508181036000830152611b8081886116c1565b9050611b8f602083018761189e565b611b9d610120830186611940565b611bab610280830185611a21565b8181036103c0830152611bbe8184611aed565b90509695505050505050565b600073ffffffffffffffffffffffffffffffffffffffff82169050919050565b6000819050919050565b6000611c0f611c0a611c0584611bca565b611bea565b611bca565b9050919050565b6000611c2182611bf4565b9050919050565b6000611c3382611c16565b9050919050565b611c4381611c28565b82525050565b6000602082019050611c5e6000830184611c3a565b92915050565b7f4e487b7100000000000000000000000000000000000000000000000000000000600052602160045260246000fd5b60048110611ca457611ca3611c64565b5b50565b6000819050611cb582611c93565b919050565b6000611cc582611ca7565b9050919050565b611cd581611cba565b82525050565b600082825260208201905092915050565b6000611cf782611624565b611d018185611cdb565b9350611d11818560208601611640565b611d1a81610cc2565b840191505092915050565b6000604082019050611d3a6000830185611ccc565b8181036020830152611d4c8184611cec565b90509392505050565b611d5e81610e47565b8114611d6957600080fd5b50565b600081519050611d7b81611d55565b92915050565b600060208284031215611d9757611d96610cae565b5b6000611da584828501611d6c565b91505092915050565b7f446f75626c652064697070696e67206465746563746564210000000000000000600082015250565b6000611de4601883611cdb565b9150611def82611dae565b602082019050919050565b60006020820190508181036000830152611e1381611dd7565b9050919050565b7f4e487b7100000000000000000000000000000000000000000000000000000000600052601160045260246000fd5b6000611e5482611597565b91507fffffffffffffffffffffffffffffffffffffffffffffffffffffffffffffffff8203611e8657611e85611e1a565b5b600182019050919050565b7f4e487b7100000000000000000000000000000000000000000000000000000000600052602260045260246000fd5b60006002820490506001821680611ed857607f821691505b602082108103611eeb57611eea611e91565b5b50919050565b60008190508160005260206000209050919050565b60006020601f8301049050919050565b600082821b905092915050565b600060088302611f537fffffffffffffffffffffffffffffffffffffffffffffffffffffffffffffffff82611f16565b611f5d8683611f16565b95508019841693508086168417925050509392505050565b6000611f90611f8b611f8684611597565b611bea565b611597565b9050919050565b6000819050919050565b611faa83611f75565b611fbe611fb682611f97565b848454611f23565b825550505050565b600090565b611fd3611fc6565b611fde818484611fa1565b505050565b5b8181101561200257611ff7600082611fcb565b600181019050611fe4565b5050565b601f8211156120475761201881611ef1565b61202184611f06565b81016020851015612030578190505b61204461203c85611f06565b830182611fe3565b50505b505050565b600082821c905092915050565b600061206a6000198460080261204c565b1980831691505092915050565b60006120838383612059565b9150826002028217905092915050565b61209c82611624565b67ffffffffffffffff8111156120b5576120b4610cd3565b5b6120bf8254611ec0565b6120ca828285612006565b600060209050601f8311600181146120fd57600084156120eb578287015190505b6120f58582612077565b86555061215d565b601f19841661210b86611ef1565b60005b828110156121335784890151825560018201915060208501945060208101905061210e565b86831015612150578489015161214c601f891682612059565b8355505b6001600288020188555050505b505050505050565b600081905092915050565b600061217b82611624565b6121858185612165565b9350612195818560208601611640565b80840191505092915050565b60006121ad8284612170565b915081905092915050565b600060208201905081810360008301526121d28184611cec565b90509291505056fea2646970667358221220599a2ac016e0c90283c5531261f154e34f4e89f4eaaad9115a9882aa9ed0777c64736f6c634300081a0033","opcodes":"PUSH1 0x80 PUSH1 0x40 MSTORE CALLVALUE DUP1 ISZERO PUSH2 0x10 JUMPI PUSH1 0x0 DUP1 REVERT JUMPDEST POP PUSH1 0x40 MLOAD PUSH2 0x2327 CODESIZE SUB DUP1 PUSH2 0x2327 DUP4 CODECOPY DUP2 DUP2 ADD PUSH1 0x40 MSTORE DUP2 ADD SWAP1 PUSH2 0x32 SWAP2 SWAP1 PUSH2 0xDB JUMP JUMPDEST DUP1 PUSH1 0x0 DUP1 PUSH2 0x100 EXP DUP2 SLOAD DUP2 PUSH20 0xFFFFFFFFFFFFFFFFFFFFFFFFFFFFFFFFFFFFFFFF MUL NOT AND SWAP1 DUP4 PUSH20 0xFFFFFFFFFFFFFFFFFFFFFFFFFFFFFFFFFFFFFFFF AND MUL OR SWAP1 SSTORE POP POP PUSH2 0x108 JUMP JUMPDEST PUSH1 0x0 DUP1 REVERT JUMPDEST PUSH1 0x0 PUSH20 0xFFFFFFFFFFFFFFFFFFFFFFFFFFFFFFFFFFFFFFFF DUP3 AND SWAP1 POP SWAP2 SWAP1 POP JUMP JUMPDEST PUSH1 0x0 PUSH2 0xA8 DUP3 PUSH2 0x7D JUMP JUMPDEST SWAP1 POP SWAP2 SWAP1 POP JUMP JUMPDEST PUSH2 0xB8 DUP2 PUSH2 0x9D JUMP JUMPDEST DUP2 EQ PUSH2 0xC3 JUMPI PUSH1 0x0 DUP1 REVERT JUMPDEST POP JUMP JUMPDEST PUSH1 0x0 DUP2 MLOAD SWAP1 POP PUSH2 0xD5 DUP2 PUSH2 0xAF JUMP JUMPDEST SWAP3 SWAP2 POP POP JUMP JUMPDEST PUSH1 0x0 PUSH1 0x20 DUP3 DUP5 SUB SLT ISZERO PUSH2 0xF1 JUMPI PUSH2 0xF0 PUSH2 0x78 JUMP JUMPDEST JUMPDEST PUSH1 0x0 PUSH2 0xFF DUP5 DUP3 DUP6 ADD PUSH2 0xC6 JUMP JUMPDEST SWAP2 POP POP SWAP3 SWAP2 POP POP JUMP JUMPDEST PUSH2 0x2210 DUP1 PUSH2 0x117 PUSH1 0x0 CODECOPY PUSH1 0x0 RETURN INVALID PUSH1 0x80 PUSH1 0x40 MSTORE CALLVALUE DUP1 ISZERO PUSH2 0x10 JUMPI PUSH1 0x0 DUP1 REVERT JUMPDEST POP PUSH1 0x4 CALLDATASIZE LT PUSH2 0x57 JUMPI PUSH1 0x0 CALLDATALOAD PUSH1 0xE0 SHR DUP1 PUSH4 0x363454EE EQ PUSH2 0x5C JUMPI DUP1 PUSH4 0x386F957B EQ PUSH2 0x8C JUMPI DUP1 PUSH4 0x8DA4D3C9 EQ PUSH2 0xA8 JUMPI DUP1 PUSH4 0xA888C2CD EQ PUSH2 0xC6 JUMPI DUP1 PUSH4 0xC796BBF4 EQ PUSH2 0xFA JUMPI JUMPDEST PUSH1 0x0 DUP1 REVERT JUMPDEST PUSH2 0x76 PUSH1 0x4 DUP1 CALLDATASIZE SUB DUP2 ADD SWAP1 PUSH2 0x71 SWAP2 SWAP1 PUSH2 0xDFE JUMP JUMPDEST PUSH2 0x118 JUMP JUMPDEST PUSH1 0x40 MLOAD PUSH2 0x83 SWAP2 SWAP1 PUSH2 0xE62 JUMP JUMPDEST PUSH1 0x40 MLOAD DUP1 SWAP2 SUB SWAP1 RETURN JUMPDEST PUSH2 0xA6 PUSH1 0x4 DUP1 CALLDATASIZE SUB DUP2 ADD SWAP1 PUSH2 0xA1 SWAP2 SWAP1 PUSH2 0x14E0 JUMP JUMPDEST PUSH2 0x1BF JUMP JUMPDEST STOP JUMPDEST PUSH2 0xB0 PUSH2 0x66C JUMP JUMPDEST PUSH1 0x40 MLOAD PUSH2 0xBD SWAP2 SWAP1 PUSH2 0x15B0 JUMP JUMPDEST PUSH1 0x40 MLOAD DUP1 SWAP2 SUB SWAP1 RETURN JUMPDEST PUSH2 0xE0 PUSH1 0x4 DUP1 CALLDATASIZE SUB DUP2 ADD SWAP1 PUSH2 0xDB SWAP2 SWAP1 PUSH2 0x15F7 JUMP JUMPDEST PUSH2 0x672 JUMP JUMPDEST PUSH1 0x40 MLOAD PUSH2 0xF1 SWAP6 SWAP5 SWAP4 SWAP3 SWAP2 SWAP1 PUSH2 0x1B65 JUMP JUMPDEST PUSH1 0x40 MLOAD DUP1 SWAP2 SUB SWAP1 RETURN JUMPDEST PUSH2 0x102 PUSH2 0xC80 JUMP JUMPDEST PUSH1 0x40 MLOAD PUSH2 0x10F SWAP2 SWAP1 PUSH2 0x1C49 JUMP JUMPDEST PUSH1 0x40 MLOAD DUP1 SWAP2 SUB SWAP1 RETURN JUMPDEST PUSH1 0x0 DUP1 PUSH1 0x0 SWAP1 SLOAD SWAP1 PUSH2 0x100 EXP SWAP1 DIV PUSH20 0xFFFFFFFFFFFFFFFFFFFFFFFFFFFFFFFFFFFFFFFF AND PUSH20 0xFFFFFFFFFFFFFFFFFFFFFFFFFFFFFFFFFFFFFFFF AND PUSH4 0x791CA667 PUSH1 0x3 DUP5 PUSH1 0x40 MLOAD DUP4 PUSH4 0xFFFFFFFF AND PUSH1 0xE0 SHL DUP2 MSTORE PUSH1 0x4 ADD PUSH2 0x177 SWAP3 SWAP2 SWAP1 PUSH2 0x1D25 JUMP JUMPDEST PUSH1 0x20 PUSH1 0x40 MLOAD DUP1 DUP4 SUB DUP2 DUP7 GAS STATICCALL ISZERO DUP1 ISZERO PUSH2 0x194 JUMPI RETURNDATASIZE PUSH1 0x0 DUP1 RETURNDATACOPY RETURNDATASIZE PUSH1 0x0 REVERT JUMPDEST POP POP POP POP PUSH1 0x40 MLOAD RETURNDATASIZE PUSH1 0x1F NOT PUSH1 0x1F DUP3 ADD AND DUP3 ADD DUP1 PUSH1 0x40 MSTORE POP DUP2 ADD SWAP1 PUSH2 0x1B8 SWAP2 SWAP1 PUSH2 0x1D81 JUMP JUMPDEST SWAP1 POP SWAP2 SWAP1 POP JUMP JUMPDEST PUSH1 0x0 DUP1 PUSH1 0x0 SWAP1 SLOAD SWAP1 PUSH2 0x100 EXP SWAP1 DIV PUSH20 0xFFFFFFFFFFFFFFFFFFFFFFFFFFFFFFFFFFFFFFFF AND PUSH20 0xFFFFFFFFFFFFFFFFFFFFFFFFFFFFFFFFFFFFFFFF AND PUSH4 0x80C3FD3 PUSH1 0x3 DUP9 PUSH1 0x0 ADD MLOAD PUSH1 0x40 MLOAD DUP4 PUSH4 0xFFFFFFFF AND PUSH1 0xE0 SHL DUP2 MSTORE PUSH1 0x4 ADD PUSH2 0x222 SWAP3 SWAP2 SWAP1 PUSH2 0x1D25 JUMP JUMPDEST PUSH1 0x20 PUSH1 0x40 MLOAD DUP1 DUP4 SUB DUP2 PUSH1 0x0 DUP8 GAS CALL ISZERO DUP1 ISZERO PUSH2 0x241 JUMPI RETURNDATASIZE PUSH1 0x0 DUP1 RETURNDATACOPY RETURNDATASIZE PUSH1 0x0 REVERT JUMPDEST POP POP POP POP PUSH1 0x40 MLOAD RETURNDATASIZE PUSH1 0x1F NOT PUSH1 0x1F DUP3 ADD AND DUP3 ADD DUP1 PUSH1 0x40 MSTORE POP DUP2 ADD SWAP1 PUSH2 0x265 SWAP2 SWAP1 PUSH2 0x1D81 JUMP JUMPDEST SWAP1 POP DUP1 PUSH2 0x2A7 JUMPI PUSH1 0x40 MLOAD PUSH32 0x8C379A000000000000000000000000000000000000000000000000000000000 DUP2 MSTORE PUSH1 0x4 ADD PUSH2 0x29E SWAP1 PUSH2 0x1DFA JUMP JUMPDEST PUSH1 0x40 MLOAD DUP1 SWAP2 SUB SWAP1 REVERT JUMPDEST PUSH1 0x40 MLOAD DUP1 PUSH1 0xA0 ADD PUSH1 0x40 MSTORE DUP1 DUP8 DUP2 MSTORE PUSH1 0x20 ADD DUP7 DUP2 MSTORE PUSH1 0x20 ADD DUP6 DUP2 MSTORE PUSH1 0x20 ADD DUP5 DUP2 MSTORE PUSH1 0x20 ADD DUP4 DUP2 MSTORE POP PUSH1 0x1 PUSH1 0x0 PUSH1 0x2 PUSH1 0x0 DUP2 SLOAD PUSH2 0x2E1 SWAP1 PUSH2 0x1E49 JUMP JUMPDEST SWAP2 SWAP1 POP DUP2 SWAP1 SSTORE DUP2 MSTORE PUSH1 0x20 ADD SWAP1 DUP2 MSTORE PUSH1 0x20 ADD PUSH1 0x0 KECCAK256 PUSH1 0x0 DUP3 ADD MLOAD DUP2 PUSH1 0x0 ADD PUSH1 0x0 DUP3 ADD MLOAD DUP2 PUSH1 0x0 ADD SWAP1 DUP2 PUSH2 0x313 SWAP2 SWAP1 PUSH2 0x2093 JUMP JUMPDEST POP PUSH1 0x20 DUP3 ADD MLOAD DUP2 PUSH1 0x1 ADD SWAP1 DUP2 PUSH2 0x329 SWAP2 SWAP1 PUSH2 0x2093 JUMP JUMPDEST POP PUSH1 0x40 DUP3 ADD MLOAD DUP2 PUSH1 0x2 ADD SSTORE PUSH1 0x60 DUP3 ADD MLOAD DUP2 PUSH1 0x3 ADD SSTORE PUSH1 0x80 DUP3 ADD MLOAD DUP2 PUSH1 0x4 ADD SSTORE PUSH1 0xA0 DUP3 ADD MLOAD DUP2 PUSH1 0x5 ADD SSTORE PUSH1 0xC0 DUP3 ADD MLOAD DUP2 PUSH1 0x6 ADD SSTORE PUSH1 0xE0 DUP3 ADD MLOAD DUP2 PUSH1 0x7 ADD SSTORE PUSH2 0x100 DUP3 ADD MLOAD DUP2 PUSH1 0x8 ADD SSTORE PUSH2 0x120 DUP3 ADD MLOAD DUP2 PUSH1 0x9 ADD SSTORE PUSH2 0x140 DUP3 ADD MLOAD DUP2 PUSH1 0xA ADD SSTORE PUSH2 0x160 DUP3 ADD MLOAD DUP2 PUSH1 0xB ADD SSTORE PUSH2 0x180 DUP3 ADD MLOAD DUP2 PUSH1 0xC ADD SSTORE PUSH2 0x1A0 DUP3 ADD MLOAD DUP2 PUSH1 0xD ADD SSTORE PUSH2 0x1C0 DUP3 ADD MLOAD DUP2 PUSH1 0xE ADD PUSH1 0x0 PUSH2 0x100 EXP DUP2 SLOAD DUP2 PUSH1 0xFF MUL NOT AND SWAP1 DUP4 PUSH1 0xFF AND MUL OR SWAP1 SSTORE POP PUSH2 0x1E0 DUP3 ADD MLOAD DUP2 PUSH1 0xE ADD PUSH1 0x1 PUSH2 0x100 EXP DUP2 SLOAD DUP2 PUSH1 0xFF MUL NOT AND SWAP1 DUP4 PUSH1 0xFF AND MUL OR SWAP1 SSTORE POP PUSH2 0x200 DUP3 ADD MLOAD DUP2 PUSH1 0xE ADD PUSH1 0x2 PUSH2 0x100 EXP DUP2 SLOAD DUP2 PUSH1 0xFF MUL NOT AND SWAP1 DUP4 PUSH1 0xFF AND MUL OR SWAP1 SSTORE POP PUSH2 0x220 DUP3 ADD MLOAD DUP2 PUSH1 0xE ADD PUSH1 0x3 PUSH2 0x100 EXP DUP2 SLOAD DUP2 PUSH1 0xFF MUL NOT AND SWAP1 DUP4 PUSH1 0xFF AND MUL OR SWAP1 SSTORE POP PUSH2 0x240 DUP3 ADD MLOAD DUP2 PUSH1 0xF ADD SSTORE PUSH2 0x260 DUP3 ADD MLOAD DUP2 PUSH1 0x10 ADD SSTORE PUSH2 0x280 DUP3 ADD MLOAD DUP2 PUSH1 0x11 ADD SSTORE PUSH2 0x2A0 DUP3 ADD MLOAD DUP2 PUSH1 0x12 ADD SSTORE POP POP PUSH1 0x20 DUP3 ADD MLOAD DUP2 PUSH1 0x13 ADD PUSH1 0x0 DUP3 ADD MLOAD DUP2 PUSH1 0x0 ADD SSTORE PUSH1 0x20 DUP3 ADD MLOAD DUP2 PUSH1 0x1 ADD SSTORE PUSH1 0x40 DUP3 ADD MLOAD DUP2 PUSH1 0x2 ADD SSTORE PUSH1 0x60 DUP3 ADD MLOAD DUP2 PUSH1 0x3 ADD SSTORE PUSH1 0x80 DUP3 ADD MLOAD DUP2 PUSH1 0x4 ADD SSTORE PUSH1 0xA0 DUP3 ADD MLOAD DUP2 PUSH1 0x5 ADD SSTORE PUSH1 0xC0 DUP3 ADD MLOAD DUP2 PUSH1 0x6 ADD SSTORE PUSH1 0xE0 DUP3 ADD MLOAD DUP2 PUSH1 0x7 ADD SSTORE POP POP PUSH1 0x40 DUP3 ADD MLOAD DUP2 PUSH1 0x1B ADD PUSH1 0x0 DUP3 ADD MLOAD DUP2 PUSH1 0x0 ADD SSTORE PUSH1 0x20 DUP3 ADD MLOAD DUP2 PUSH1 0x1 ADD SSTORE PUSH1 0x40 DUP3 ADD MLOAD DUP2 PUSH1 0x2 ADD SSTORE PUSH1 0x60 DUP3 ADD MLOAD DUP2 PUSH1 0x3 ADD SSTORE PUSH1 0x80 DUP3 ADD MLOAD DUP2 PUSH1 0x4 ADD SSTORE PUSH1 0xA0 DUP3 ADD MLOAD DUP2 PUSH1 0x5 ADD SSTORE PUSH1 0xC0 DUP3 ADD MLOAD DUP2 PUSH1 0x6 ADD SSTORE PUSH1 0xE0 DUP3 ADD MLOAD DUP2 PUSH1 0x7 ADD SSTORE PUSH2 0x100 DUP3 ADD MLOAD DUP2 PUSH1 0x8 ADD SSTORE PUSH2 0x120 DUP3 ADD MLOAD DUP2 PUSH1 0x9 ADD SSTORE PUSH2 0x140 DUP3 ADD MLOAD DUP2 PUSH1 0xA ADD SSTORE POP POP PUSH1 0x60 DUP3 ADD MLOAD DUP2 PUSH1 0x26 ADD PUSH1 0x0 DUP3 ADD MLOAD DUP2 PUSH1 0x0 ADD SSTORE PUSH1 0x20 DUP3 ADD MLOAD DUP2 PUSH1 0x1 ADD SSTORE PUSH1 0x40 DUP3 ADD MLOAD DUP2 PUSH1 0x2 ADD SSTORE PUSH1 0x60 DUP3 ADD MLOAD DUP2 PUSH1 0x3 ADD SSTORE PUSH1 0x80 DUP3 ADD MLOAD DUP2 PUSH1 0x4 ADD SSTORE PUSH1 0xA0 DUP3 ADD MLOAD DUP2 PUSH1 0x5 ADD SSTORE PUSH1 0xC0 DUP3 ADD MLOAD DUP2 PUSH1 0x6 ADD SSTORE PUSH1 0xE0 DUP3 ADD MLOAD DUP2 PUSH1 0x7 ADD SSTORE PUSH2 0x100 DUP3 ADD MLOAD DUP2 PUSH1 0x8 ADD SSTORE PUSH2 0x120 DUP3 ADD MLOAD DUP2 PUSH1 0x9 ADD SSTORE POP POP PUSH1 0x80 DUP3 ADD MLOAD DUP2 PUSH1 0x30 ADD PUSH1 0x0 DUP3 ADD MLOAD DUP2 PUSH1 0x0 ADD SWAP1 DUP2 PUSH2 0x5C4 SWAP2 SWAP1 PUSH2 0x2093 JUMP JUMPDEST POP PUSH1 0x20 DUP3 ADD MLOAD DUP2 PUSH1 0x1 ADD SWAP1 DUP2 PUSH2 0x5DA SWAP2 SWAP1 PUSH2 0x2093 JUMP JUMPDEST POP PUSH1 0x40 DUP3 ADD MLOAD DUP2 PUSH1 0x2 ADD SWAP1 DUP2 PUSH2 0x5F0 SWAP2 SWAP1 PUSH2 0x2093 JUMP JUMPDEST POP PUSH1 0x60 DUP3 ADD MLOAD DUP2 PUSH1 0x3 ADD SWAP1 DUP2 PUSH2 0x606 SWAP2 SWAP1 PUSH2 0x2093 JUMP JUMPDEST POP POP POP SWAP1 POP POP DUP6 PUSH1 0x0 ADD MLOAD PUSH1 0x40 MLOAD PUSH2 0x61E SWAP2 SWAP1 PUSH2 0x21A1 JUMP JUMPDEST PUSH1 0x40 MLOAD DUP1 SWAP2 SUB SWAP1 KECCAK256 PUSH1 0x2 SLOAD PUSH32 0xADBF24A41FCC982B6A3532C0DB0C1BD487E19E5905EAF7CCFBB66E0464967655 DUP9 PUSH1 0x20 ADD MLOAD PUSH1 0x40 MLOAD PUSH2 0x65C SWAP2 SWAP1 PUSH2 0x21B8 JUMP JUMPDEST PUSH1 0x40 MLOAD DUP1 SWAP2 SUB SWAP1 LOG3 POP POP POP POP POP POP JUMP JUMPDEST PUSH1 0x2 SLOAD DUP2 JUMP JUMPDEST PUSH1 0x1 PUSH1 0x20 MSTORE DUP1 PUSH1 0x0 MSTORE PUSH1 0x40 PUSH1 0x0 KECCAK256 PUSH1 0x0 SWAP2 POP SWAP1 POP DUP1 PUSH1 0x0 ADD PUSH1 0x40 MLOAD DUP1 PUSH2 0x2C0 ADD PUSH1 0x40 MSTORE SWAP1 DUP2 PUSH1 0x0 DUP3 ADD DUP1 SLOAD PUSH2 0x6A6 SWAP1 PUSH2 0x1EC0 JUMP JUMPDEST DUP1 PUSH1 0x1F ADD PUSH1 0x20 DUP1 SWAP2 DIV MUL PUSH1 0x20 ADD PUSH1 0x40 MLOAD SWAP1 DUP2 ADD PUSH1 0x40 MSTORE DUP1 SWAP3 SWAP2 SWAP1 DUP2 DUP2 MSTORE PUSH1 0x20 ADD DUP3 DUP1 SLOAD PUSH2 0x6D2 SWAP1 PUSH2 0x1EC0 JUMP JUMPDEST DUP1 ISZERO PUSH2 0x71F JUMPI DUP1 PUSH1 0x1F LT PUSH2 0x6F4 JUMPI PUSH2 0x100 DUP1 DUP4 SLOAD DIV MUL DUP4 MSTORE SWAP2 PUSH1 0x20 ADD SWAP2 PUSH2 0x71F JUMP JUMPDEST DUP3 ADD SWAP2 SWAP1 PUSH1 0x0 MSTORE PUSH1 0x20 PUSH1 0x0 KECCAK256 SWAP1 JUMPDEST DUP2 SLOAD DUP2 MSTORE SWAP1 PUSH1 0x1 ADD SWAP1 PUSH1 0x20 ADD DUP1 DUP4 GT PUSH2 0x702 JUMPI DUP3 SWAP1 SUB PUSH1 0x1F AND DUP3 ADD SWAP2 JUMPDEST POP POP POP POP POP DUP2 MSTORE PUSH1 0x20 ADD PUSH1 0x1 DUP3 ADD DUP1 SLOAD PUSH2 0x738 SWAP1 PUSH2 0x1EC0 JUMP JUMPDEST DUP1 PUSH1 0x1F ADD PUSH1 0x20 DUP1 SWAP2 DIV MUL PUSH1 0x20 ADD PUSH1 0x40 MLOAD SWAP1 DUP2 ADD PUSH1 0x40 MSTORE DUP1 SWAP3 SWAP2 SWAP1 DUP2 DUP2 MSTORE PUSH1 0x20 ADD DUP3 DUP1 SLOAD PUSH2 0x764 SWAP1 PUSH2 0x1EC0 JUMP JUMPDEST DUP1 ISZERO PUSH2 0x7B1 JUMPI DUP1 PUSH1 0x1F LT PUSH2 0x786 JUMPI PUSH2 0x100 DUP1 DUP4 SLOAD DIV MUL DUP4 MSTORE SWAP2 PUSH1 0x20 ADD SWAP2 PUSH2 0x7B1 JUMP JUMPDEST DUP3 ADD SWAP2 SWAP1 PUSH1 0x0 MSTORE PUSH1 0x20 PUSH1 0x0 KECCAK256 SWAP1 JUMPDEST DUP2 SLOAD DUP2 MSTORE SWAP1 PUSH1 0x1 ADD SWAP1 PUSH1 0x20 ADD DUP1 DUP4 GT PUSH2 0x794 JUMPI DUP3 SWAP1 SUB PUSH1 0x1F AND DUP3 ADD SWAP2 JUMPDEST POP POP POP POP POP DUP2 MSTORE PUSH1 0x20 ADD PUSH1 0x2 DUP3 ADD SLOAD DUP2 MSTORE PUSH1 0x20 ADD PUSH1 0x3 DUP3 ADD SLOAD DUP2 MSTORE PUSH1 0x20 ADD PUSH1 0x4 DUP3 ADD SLOAD DUP2 MSTORE PUSH1 0x20 ADD PUSH1 0x5 DUP3 ADD SLOAD DUP2 MSTORE PUSH1 0x20 ADD PUSH1 0x6 DUP3 ADD SLOAD DUP2 MSTORE PUSH1 0x20 ADD PUSH1 0x7 DUP3 ADD SLOAD DUP2 MSTORE PUSH1 0x20 ADD PUSH1 0x8 DUP3 ADD SLOAD DUP2 MSTORE PUSH1 0x20 ADD PUSH1 0x9 DUP3 ADD SLOAD DUP2 MSTORE PUSH1 0x20 ADD PUSH1 0xA DUP3 ADD SLOAD DUP2 MSTORE PUSH1 0x20 ADD PUSH1 0xB DUP3 ADD SLOAD DUP2 MSTORE PUSH1 0x20 ADD PUSH1 0xC DUP3 ADD SLOAD DUP2 MSTORE PUSH1 0x20 ADD PUSH1 0xD DUP3 ADD SLOAD DUP2 MSTORE PUSH1 0x20 ADD PUSH1 0xE DUP3 ADD PUSH1 0x0 SWAP1 SLOAD SWAP1 PUSH2 0x100 EXP SWAP1 DIV PUSH1 0xFF AND PUSH1 0xFF AND PUSH1 0xFF AND DUP2 MSTORE PUSH1 0x20 ADD PUSH1 0xE DUP3 ADD PUSH1 0x1 SWAP1 SLOAD SWAP1 PUSH2 0x100 EXP SWAP1 DIV PUSH1 0xFF AND PUSH1 0xFF AND PUSH1 0xFF AND DUP2 MSTORE PUSH1 0x20 ADD PUSH1 0xE DUP3 ADD PUSH1 0x2 SWAP1 SLOAD SWAP1 PUSH2 0x100 EXP SWAP1 DIV PUSH1 0xFF AND PUSH1 0xFF AND PUSH1 0xFF AND DUP2 MSTORE PUSH1 0x20 ADD PUSH1 0xE DUP3 ADD PUSH1 0x3 SWAP1 SLOAD SWAP1 PUSH2 0x100 EXP SWAP1 DIV PUSH1 0xFF AND PUSH1 0xFF AND PUSH1 0xFF AND DUP2 MSTORE PUSH1 0x20 ADD PUSH1 0xF DUP3 ADD SLOAD DUP2 MSTORE PUSH1 0x20 ADD PUSH1 0x10 DUP3 ADD SLOAD DUP2 MSTORE PUSH1 0x20 ADD PUSH1 0x11 DUP3 ADD SLOAD DUP2 MSTORE PUSH1 0x20 ADD PUSH1 0x12 DUP3 ADD SLOAD DUP2 MSTORE POP POP SWAP1 DUP1 PUSH1 0x13 ADD PUSH1 0x40 MLOAD DUP1 PUSH2 0x100 ADD PUSH1 0x40 MSTORE SWAP1 DUP2 PUSH1 0x0 DUP3 ADD SLOAD DUP2 MSTORE PUSH1 0x20 ADD PUSH1 0x1 DUP3 ADD SLOAD DUP2 MSTORE PUSH1 0x20 ADD PUSH1 0x2 DUP3 ADD SLOAD DUP2 MSTORE PUSH1 0x20 ADD PUSH1 0x3 DUP3 ADD SLOAD DUP2 MSTORE PUSH1 0x20 ADD PUSH1 0x4 DUP3 ADD SLOAD DUP2 MSTORE PUSH1 0x20 ADD PUSH1 0x5 DUP3 ADD SLOAD DUP2 MSTORE PUSH1 0x20 ADD PUSH1 0x6 DUP3 ADD SLOAD DUP2 MSTORE PUSH1 0x20 ADD PUSH1 0x7 DUP3 ADD SLOAD DUP2 MSTORE POP POP SWAP1 DUP1 PUSH1 0x1B ADD PUSH1 0x40 MLOAD DUP1 PUSH2 0x160 ADD PUSH1 0x40 MSTORE SWAP1 DUP2 PUSH1 0x0 DUP3 ADD SLOAD DUP2 MSTORE PUSH1 0x20 ADD PUSH1 0x1 DUP3 ADD SLOAD DUP2 MSTORE PUSH1 0x20 ADD PUSH1 0x2 DUP3 ADD SLOAD DUP2 MSTORE PUSH1 0x20 ADD PUSH1 0x3 DUP3 ADD SLOAD DUP2 MSTORE PUSH1 0x20 ADD PUSH1 0x4 DUP3 ADD SLOAD DUP2 MSTORE PUSH1 0x20 ADD PUSH1 0x5 DUP3 ADD SLOAD DUP2 MSTORE PUSH1 0x20 ADD PUSH1 0x6 DUP3 ADD SLOAD DUP2 MSTORE PUSH1 0x20 ADD PUSH1 0x7 DUP3 ADD SLOAD DUP2 MSTORE PUSH1 0x20 ADD PUSH1 0x8 DUP3 ADD SLOAD DUP2 MSTORE PUSH1 0x20 ADD PUSH1 0x9 DUP3 ADD SLOAD DUP2 MSTORE PUSH1 0x20 ADD PUSH1 0xA DUP3 ADD SLOAD DUP2 MSTORE POP POP SWAP1 DUP1 PUSH1 0x26 ADD PUSH1 0x40 MLOAD DUP1 PUSH2 0x140 ADD PUSH1 0x40 MSTORE SWAP1 DUP2 PUSH1 0x0 DUP3 ADD SLOAD DUP2 MSTORE PUSH1 0x20 ADD PUSH1 0x1 DUP3 ADD SLOAD DUP2 MSTORE PUSH1 0x20 ADD PUSH1 0x2 DUP3 ADD SLOAD DUP2 MSTORE PUSH1 0x20 ADD PUSH1 0x3 DUP3 ADD SLOAD DUP2 MSTORE PUSH1 0x20 ADD PUSH1 0x4 DUP3 ADD SLOAD DUP2 MSTORE PUSH1 0x20 ADD PUSH1 0x5 DUP3 ADD SLOAD DUP2 MSTORE PUSH1 0x20 ADD PUSH1 0x6 DUP3 ADD SLOAD DUP2 MSTORE PUSH1 0x20 ADD PUSH1 0x7 DUP3 ADD SLOAD DUP2 MSTORE PUSH1 0x20 ADD PUSH1 0x8 DUP3 ADD SLOAD DUP2 MSTORE PUSH1 0x20 ADD PUSH1 0x9 DUP3 ADD SLOAD DUP2 MSTORE POP POP SWAP1 DUP1 PUSH1 0x30 ADD PUSH1 0x40 MLOAD DUP1 PUSH1 0x80 ADD PUSH1 0x40 MSTORE SWAP1 DUP2 PUSH1 0x0 DUP3 ADD DUP1 SLOAD PUSH2 0xA43 SWAP1 PUSH2 0x1EC0 JUMP JUMPDEST DUP1 PUSH1 0x1F ADD PUSH1 0x20 DUP1 SWAP2 DIV MUL PUSH1 0x20 ADD PUSH1 0x40 MLOAD SWAP1 DUP2 ADD PUSH1 0x40 MSTORE DUP1 SWAP3 SWAP2 SWAP1 DUP2 DUP2 MSTORE PUSH1 0x20 ADD DUP3 DUP1 SLOAD PUSH2 0xA6F SWAP1 PUSH2 0x1EC0 JUMP JUMPDEST DUP1 ISZERO PUSH2 0xABC JUMPI DUP1 PUSH1 0x1F LT PUSH2 0xA91 JUMPI PUSH2 0x100 DUP1 DUP4 SLOAD DIV MUL DUP4 MSTORE SWAP2 PUSH1 0x20 ADD SWAP2 PUSH2 0xABC JUMP JUMPDEST DUP3 ADD SWAP2 SWAP1 PUSH1 0x0 MSTORE PUSH1 0x20 PUSH1 0x0 KECCAK256 SWAP1 JUMPDEST DUP2 SLOAD DUP2 MSTORE SWAP1 PUSH1 0x1 ADD SWAP1 PUSH1 0x20 ADD DUP1 DUP4 GT PUSH2 0xA9F JUMPI DUP3 SWAP1 SUB PUSH1 0x1F AND DUP3 ADD SWAP2 JUMPDEST POP POP POP POP POP DUP2 MSTORE PUSH1 0x20 ADD PUSH1 0x1 DUP3 ADD DUP1 SLOAD PUSH2 0xAD5 SWAP1 PUSH2 0x1EC0 JUMP JUMPDEST DUP1 PUSH1 0x1F ADD PUSH1 0x20 DUP1 SWAP2 DIV MUL PUSH1 0x20 ADD PUSH1 0x40 MLOAD SWAP1 DUP2 ADD PUSH1 0x40 MSTORE DUP1 SWAP3 SWAP2 SWAP1 DUP2 DUP2 MSTORE PUSH1 0x20 ADD DUP3 DUP1 SLOAD PUSH2 0xB01 SWAP1 PUSH2 0x1EC0 JUMP JUMPDEST DUP1 ISZERO PUSH2 0xB4E JUMPI DUP1 PUSH1 0x1F LT PUSH2 0xB23 JUMPI PUSH2 0x100 DUP1 DUP4 SLOAD DIV MUL DUP4 MSTORE SWAP2 PUSH1 0x20 ADD SWAP2 PUSH2 0xB4E JUMP JUMPDEST DUP3 ADD SWAP2 SWAP1 PUSH1 0x0 MSTORE PUSH1 0x20 PUSH1 0x0 KECCAK256 SWAP1 JUMPDEST DUP2 SLOAD DUP2 MSTORE SWAP1 PUSH1 0x1 ADD SWAP1 PUSH1 0x20 ADD DUP1 DUP4 GT PUSH2 0xB31 JUMPI DUP3 SWAP1 SUB PUSH1 0x1F AND DUP3 ADD SWAP2 JUMPDEST POP POP POP POP POP DUP2 MSTORE PUSH1 0x20 ADD PUSH1 0x2 DUP3 ADD DUP1 SLOAD PUSH2 0xB67 SWAP1 PUSH2 0x1EC0 JUMP JUMPDEST DUP1 PUSH1 0x1F ADD PUSH1 0x20 DUP1 SWAP2 DIV MUL PUSH1 0x20 ADD PUSH1 0x40 MLOAD SWAP1 DUP2 ADD PUSH1 0x40 MSTORE DUP1 SWAP3 SWAP2 SWAP1 DUP2 DUP2 MSTORE PUSH1 0x20 ADD DUP3 DUP1 SLOAD PUSH2 0xB93 SWAP1 PUSH2 0x1EC0 JUMP JUMPDEST DUP1 ISZERO PUSH2 0xBE0 JUMPI DUP1 PUSH1 0x1F LT PUSH2 0xBB5 JUMPI PUSH2 0x100 DUP1 DUP4 SLOAD DIV MUL DUP4 MSTORE SWAP2 PUSH1 0x20 ADD SWAP2 PUSH2 0xBE0 JUMP JUMPDEST DUP3 ADD SWAP2 SWAP1 PUSH1 0x0 MSTORE PUSH1 0x20 PUSH1 0x0 KECCAK256 SWAP1 JUMPDEST DUP2 SLOAD DUP2 MSTORE SWAP1 PUSH1 0x1 ADD SWAP1 PUSH1 0x20 ADD DUP1 DUP4 GT PUSH2 0xBC3 JUMPI DUP3 SWAP1 SUB PUSH1 0x1F AND DUP3 ADD SWAP2 JUMPDEST POP POP POP POP POP DUP2 MSTORE PUSH1 0x20 ADD PUSH1 0x3 DUP3 ADD DUP1 SLOAD PUSH2 0xBF9 SWAP1 PUSH2 0x1EC0 JUMP JUMPDEST DUP1 PUSH1 0x1F ADD PUSH1 0x20 DUP1 SWAP2 DIV MUL PUSH1 0x20 ADD PUSH1 0x40 MLOAD SWAP1 DUP2 ADD PUSH1 0x40 MSTORE DUP1 SWAP3 SWAP2 SWAP1 DUP2 DUP2 MSTORE PUSH1 0x20 ADD DUP3 DUP1 SLOAD PUSH2 0xC25 SWAP1 PUSH2 0x1EC0 JUMP JUMPDEST DUP1 ISZERO PUSH2 0xC72 JUMPI DUP1 PUSH1 0x1F LT PUSH2 0xC47 JUMPI PUSH2 0x100 DUP1 DUP4 SLOAD DIV MUL DUP4 MSTORE SWAP2 PUSH1 0x20 ADD SWAP2 PUSH2 0xC72 JUMP JUMPDEST DUP3 ADD SWAP2 SWAP1 PUSH1 0x0 MSTORE PUSH1 0x20 PUSH1 0x0 KECCAK256 SWAP1 JUMPDEST DUP2 SLOAD DUP2 MSTORE SWAP1 PUSH1 0x1 ADD SWAP1 PUSH1 0x20 ADD DUP1 DUP4 GT PUSH2 0xC55 JUMPI DUP3 SWAP1 SUB PUSH1 0x1F AND DUP3 ADD SWAP2 JUMPDEST POP POP POP POP POP DUP2 MSTORE POP POP SWAP1 POP DUP6 JUMP JUMPDEST PUSH1 0x0 DUP1 SLOAD SWAP1 PUSH2 0x100 EXP SWAP1 DIV PUSH20 0xFFFFFFFFFFFFFFFFFFFFFFFFFFFFFFFFFFFFFFFF AND DUP2 JUMP JUMPDEST PUSH1 0x0 PUSH1 0x40 MLOAD SWAP1 POP SWAP1 JUMP JUMPDEST PUSH1 0x0 DUP1 REVERT JUMPDEST PUSH1 0x0 DUP1 REVERT JUMPDEST PUSH1 0x0 DUP1 REVERT JUMPDEST PUSH1 0x0 DUP1 REVERT JUMPDEST PUSH1 0x0 PUSH1 0x1F NOT PUSH1 0x1F DUP4 ADD AND SWAP1 POP SWAP2 SWAP1 POP JUMP JUMPDEST PUSH32 0x4E487B7100000000000000000000000000000000000000000000000000000000 PUSH1 0x0 MSTORE PUSH1 0x41 PUSH1 0x4 MSTORE PUSH1 0x24 PUSH1 0x0 REVERT JUMPDEST PUSH2 0xD0B DUP3 PUSH2 0xCC2 JUMP JUMPDEST DUP2 ADD DUP2 DUP2 LT PUSH8 0xFFFFFFFFFFFFFFFF DUP3 GT OR ISZERO PUSH2 0xD2A JUMPI PUSH2 0xD29 PUSH2 0xCD3 JUMP JUMPDEST JUMPDEST DUP1 PUSH1 0x40 MSTORE POP POP POP JUMP JUMPDEST PUSH1 0x0 PUSH2 0xD3D PUSH2 0xCA4 JUMP JUMPDEST SWAP1 POP PUSH2 0xD49 DUP3 DUP3 PUSH2 0xD02 JUMP JUMPDEST SWAP2 SWAP1 POP JUMP JUMPDEST PUSH1 0x0 PUSH8 0xFFFFFFFFFFFFFFFF DUP3 GT ISZERO PUSH2 0xD69 JUMPI PUSH2 0xD68 PUSH2 0xCD3 JUMP JUMPDEST JUMPDEST PUSH2 0xD72 DUP3 PUSH2 0xCC2 JUMP JUMPDEST SWAP1 POP PUSH1 0x20 DUP2 ADD SWAP1 POP SWAP2 SWAP1 POP JUMP JUMPDEST DUP3 DUP2 DUP4 CALLDATACOPY PUSH1 0x0 DUP4 DUP4 ADD MSTORE POP POP POP JUMP JUMPDEST PUSH1 0x0 PUSH2 0xDA1 PUSH2 0xD9C DUP5 PUSH2 0xD4E JUMP JUMPDEST PUSH2 0xD33 JUMP JUMPDEST SWAP1 POP DUP3 DUP2 MSTORE PUSH1 0x20 DUP2 ADD DUP5 DUP5 DUP5 ADD GT ISZERO PUSH2 0xDBD JUMPI PUSH2 0xDBC PUSH2 0xCBD JUMP JUMPDEST JUMPDEST PUSH2 0xDC8 DUP5 DUP3 DUP6 PUSH2 0xD7F JUMP JUMPDEST POP SWAP4 SWAP3 POP POP POP JUMP JUMPDEST PUSH1 0x0 DUP3 PUSH1 0x1F DUP4 ADD SLT PUSH2 0xDE5 JUMPI PUSH2 0xDE4 PUSH2 0xCB8 JUMP JUMPDEST JUMPDEST DUP2 CALLDATALOAD PUSH2 0xDF5 DUP5 DUP3 PUSH1 0x20 DUP7 ADD PUSH2 0xD8E JUMP JUMPDEST SWAP2 POP POP SWAP3 SWAP2 POP POP JUMP JUMPDEST PUSH1 0x0 PUSH1 0x20 DUP3 DUP5 SUB SLT ISZERO PUSH2 0xE14 JUMPI PUSH2 0xE13 PUSH2 0xCAE JUMP JUMPDEST JUMPDEST PUSH1 0x0 DUP3 ADD CALLDATALOAD PUSH8 0xFFFFFFFFFFFFFFFF DUP2 GT ISZERO PUSH2 0xE32 JUMPI PUSH2 0xE31 PUSH2 0xCB3 JUMP JUMPDEST JUMPDEST PUSH2 0xE3E DUP5 DUP3 DUP6 ADD PUSH2 0xDD0 JUMP JUMPDEST SWAP2 POP POP SWAP3 SWAP2 POP POP JUMP JUMPDEST PUSH1 0x0 DUP2 ISZERO ISZERO SWAP1 POP SWAP2 SWAP1 POP JUMP JUMPDEST PUSH2 0xE5C DUP2 PUSH2 0xE47 JUMP JUMPDEST DUP3 MSTORE POP POP JUMP JUMPDEST PUSH1 0x0 PUSH1 0x20 DUP3 ADD SWAP1 POP PUSH2 0xE77 PUSH1 0x0 DUP4 ADD DUP5 PUSH2 0xE53 JUMP JUMPDEST SWAP3 SWAP2 POP POP JUMP JUMPDEST PUSH1 0x0 DUP1 REVERT JUMPDEST PUSH1 0x0 DUP1 REVERT JUMPDEST PUSH1 0x0 DUP2 SWAP1 POP SWAP2 SWAP1 POP JUMP JUMPDEST PUSH2 0xE9A DUP2 PUSH2 0xE87 JUMP JUMPDEST DUP2 EQ PUSH2 0xEA5 JUMPI PUSH1 0x0 DUP1 REVERT JUMPDEST POP JUMP JUMPDEST PUSH1 0x0 DUP2 CALLDATALOAD SWAP1 POP PUSH2 0xEB7 DUP2 PUSH2 0xE91 JUMP JUMPDEST SWAP3 SWAP2 POP POP JUMP JUMPDEST PUSH1 0x0 PUSH1 0xFF DUP3 AND SWAP1 POP SWAP2 SWAP1 POP JUMP JUMPDEST PUSH2 0xED3 DUP2 PUSH2 0xEBD JUMP JUMPDEST DUP2 EQ PUSH2 0xEDE JUMPI PUSH1 0x0 DUP1 REVERT JUMPDEST POP JUMP JUMPDEST PUSH1 0x0 DUP2 CALLDATALOAD SWAP1 POP PUSH2 0xEF0 DUP2 PUSH2 0xECA JUMP JUMPDEST SWAP3 SWAP2 POP POP JUMP JUMPDEST PUSH1 0x0 PUSH2 0x2C0 DUP3 DUP5 SUB SLT ISZERO PUSH2 0xF0D JUMPI PUSH2 0xF0C PUSH2 0xE7D JUMP JUMPDEST JUMPDEST PUSH2 0xF18 PUSH2 0x2C0 PUSH2 0xD33 JUMP JUMPDEST SWAP1 POP PUSH1 0x0 DUP3 ADD CALLDATALOAD PUSH8 0xFFFFFFFFFFFFFFFF DUP2 GT ISZERO PUSH2 0xF38 JUMPI PUSH2 0xF37 PUSH2 0xE82 JUMP JUMPDEST JUMPDEST PUSH2 0xF44 DUP5 DUP3 DUP6 ADD PUSH2 0xDD0 JUMP JUMPDEST PUSH1 0x0 DUP4 ADD MSTORE POP PUSH1 0x20 DUP3 ADD CALLDATALOAD PUSH8 0xFFFFFFFFFFFFFFFF DUP2 GT ISZERO PUSH2 0xF68 JUMPI PUSH2 0xF67 PUSH2 0xE82 JUMP JUMPDEST JUMPDEST PUSH2 0xF74 DUP5 DUP3 DUP6 ADD PUSH2 0xDD0 JUMP JUMPDEST PUSH1 0x20 DUP4 ADD MSTORE POP PUSH1 0x40 PUSH2 0xF88 DUP5 DUP3 DUP6 ADD PUSH2 0xEA8 JUMP JUMPDEST PUSH1 0x40 DUP4 ADD MSTORE POP PUSH1 0x60 PUSH2 0xF9C DUP5 DUP3 DUP6 ADD PUSH2 0xEA8 JUMP JUMPDEST PUSH1 0x60 DUP4 ADD MSTORE POP PUSH1 0x80 PUSH2 0xFB0 DUP5 DUP3 DUP6 ADD PUSH2 0xEA8 JUMP JUMPDEST PUSH1 0x80 DUP4 ADD MSTORE POP PUSH1 0xA0 PUSH2 0xFC4 DUP5 DUP3 DUP6 ADD PUSH2 0xEA8 JUMP JUMPDEST PUSH1 0xA0 DUP4 ADD MSTORE POP PUSH1 0xC0 PUSH2 0xFD8 DUP5 DUP3 DUP6 ADD PUSH2 0xEA8 JUMP JUMPDEST PUSH1 0xC0 DUP4 ADD MSTORE POP PUSH1 0xE0 PUSH2 0xFEC DUP5 DUP3 DUP6 ADD PUSH2 0xEA8 JUMP JUMPDEST PUSH1 0xE0 DUP4 ADD MSTORE POP PUSH2 0x100 PUSH2 0x1001 DUP5 DUP3 DUP6 ADD PUSH2 0xEA8 JUMP JUMPDEST PUSH2 0x100 DUP4 ADD MSTORE POP PUSH2 0x120 PUSH2 0x1017 DUP5 DUP3 DUP6 ADD PUSH2 0xEA8 JUMP JUMPDEST PUSH2 0x120 DUP4 ADD MSTORE POP PUSH2 0x140 PUSH2 0x102D DUP5 DUP3 DUP6 ADD PUSH2 0xEA8 JUMP JUMPDEST PUSH2 0x140 DUP4 ADD MSTORE POP PUSH2 0x160 PUSH2 0x1043 DUP5 DUP3 DUP6 ADD PUSH2 0xEA8 JUMP JUMPDEST PUSH2 0x160 DUP4 ADD MSTORE POP PUSH2 0x180 PUSH2 0x1059 DUP5 DUP3 DUP6 ADD PUSH2 0xEA8 JUMP JUMPDEST PUSH2 0x180 DUP4 ADD MSTORE POP PUSH2 0x1A0 PUSH2 0x106F DUP5 DUP3 DUP6 ADD PUSH2 0xEA8 JUMP JUMPDEST PUSH2 0x1A0 DUP4 ADD MSTORE POP PUSH2 0x1C0 PUSH2 0x1085 DUP5 DUP3 DUP6 ADD PUSH2 0xEE1 JUMP JUMPDEST PUSH2 0x1C0 DUP4 ADD MSTORE POP PUSH2 0x1E0 PUSH2 0x109B DUP5 DUP3 DUP6 ADD PUSH2 0xEE1 JUMP JUMPDEST PUSH2 0x1E0 DUP4 ADD MSTORE POP PUSH2 0x200 PUSH2 0x10B1 DUP5 DUP3 DUP6 ADD PUSH2 0xEE1 JUMP JUMPDEST PUSH2 0x200 DUP4 ADD MSTORE POP PUSH2 0x220 PUSH2 0x10C7 DUP5 DUP3 DUP6 ADD PUSH2 0xEE1 JUMP JUMPDEST PUSH2 0x220 DUP4 ADD MSTORE POP PUSH2 0x240 PUSH2 0x10DD DUP5 DUP3 DUP6 ADD PUSH2 0xEA8 JUMP JUMPDEST PUSH2 0x240 DUP4 ADD MSTORE POP PUSH2 0x260 PUSH2 0x10F3 DUP5 DUP3 DUP6 ADD PUSH2 0xEA8 JUMP JUMPDEST PUSH2 0x260 DUP4 ADD MSTORE POP PUSH2 0x280 PUSH2 0x1109 DUP5 DUP3 DUP6 ADD PUSH2 0xEA8 JUMP JUMPDEST PUSH2 0x280 DUP4 ADD MSTORE POP PUSH2 0x2A0 PUSH2 0x111F DUP5 DUP3 DUP6 ADD PUSH2 0xEA8 JUMP JUMPDEST PUSH2 0x2A0 DUP4 ADD MSTORE POP SWAP3 SWAP2 POP POP JUMP JUMPDEST PUSH1 0x0 PUSH2 0x100 DUP3 DUP5 SUB SLT ISZERO PUSH2 0x1143 JUMPI PUSH2 0x1142 PUSH2 0xE7D JUMP JUMPDEST JUMPDEST PUSH2 0x114E PUSH2 0x100 PUSH2 0xD33 JUMP JUMPDEST SWAP1 POP PUSH1 0x0 PUSH2 0x115E DUP5 DUP3 DUP6 ADD PUSH2 0xEA8 JUMP JUMPDEST PUSH1 0x0 DUP4 ADD MSTORE POP PUSH1 0x20 PUSH2 0x1172 DUP5 DUP3 DUP6 ADD PUSH2 0xEA8 JUMP JUMPDEST PUSH1 0x20 DUP4 ADD MSTORE POP PUSH1 0x40 PUSH2 0x1186 DUP5 DUP3 DUP6 ADD PUSH2 0xEA8 JUMP JUMPDEST PUSH1 0x40 DUP4 ADD MSTORE POP PUSH1 0x60 PUSH2 0x119A DUP5 DUP3 DUP6 ADD PUSH2 0xEA8 JUMP JUMPDEST PUSH1 0x60 DUP4 ADD MSTORE POP PUSH1 0x80 PUSH2 0x11AE DUP5 DUP3 DUP6 ADD PUSH2 0xEA8 JUMP JUMPDEST PUSH1 0x80 DUP4 ADD MSTORE POP PUSH1 0xA0 PUSH2 0x11C2 DUP5 DUP3 DUP6 ADD PUSH2 0xEA8 JUMP JUMPDEST PUSH1 0xA0 DUP4 ADD MSTORE POP PUSH1 0xC0 PUSH2 0x11D6 DUP5 DUP3 DUP6 ADD PUSH2 0xEA8 JUMP JUMPDEST PUSH1 0xC0 DUP4 ADD MSTORE POP PUSH1 0xE0 PUSH2 0x11EA DUP5 DUP3 DUP6 ADD PUSH2 0xEA8 JUMP JUMPDEST PUSH1 0xE0 DUP4 ADD MSTORE POP SWAP3 SWAP2 POP POP JUMP JUMPDEST PUSH1 0x0 PUSH2 0x160 DUP3 DUP5 SUB SLT ISZERO PUSH2 0x120D JUMPI PUSH2 0x120C PUSH2 0xE7D JUMP JUMPDEST JUMPDEST PUSH2 0x1218 PUSH2 0x160 PUSH2 0xD33 JUMP JUMPDEST SWAP1 POP PUSH1 0x0 PUSH2 0x1228 DUP5 DUP3 DUP6 ADD PUSH2 0xEA8 JUMP JUMPDEST PUSH1 0x0 DUP4 ADD MSTORE POP PUSH1 0x20 PUSH2 0x123C DUP5 DUP3 DUP6 ADD PUSH2 0xEA8 JUMP JUMPDEST PUSH1 0x20 DUP4 ADD MSTORE POP PUSH1 0x40 PUSH2 0x1250 DUP5 DUP3 DUP6 ADD PUSH2 0xEA8 JUMP JUMPDEST PUSH1 0x40 DUP4 ADD MSTORE POP PUSH1 0x60 PUSH2 0x1264 DUP5 DUP3 DUP6 ADD PUSH2 0xEA8 JUMP JUMPDEST PUSH1 0x60 DUP4 ADD MSTORE POP PUSH1 0x80 PUSH2 0x1278 DUP5 DUP3 DUP6 ADD PUSH2 0xEA8 JUMP JUMPDEST PUSH1 0x80 DUP4 ADD MSTORE POP PUSH1 0xA0 PUSH2 0x128C DUP5 DUP3 DUP6 ADD PUSH2 0xEA8 JUMP JUMPDEST PUSH1 0xA0 DUP4 ADD MSTORE POP PUSH1 0xC0 PUSH2 0x12A0 DUP5 DUP3 DUP6 ADD PUSH2 0xEA8 JUMP JUMPDEST PUSH1 0xC0 DUP4 ADD MSTORE POP PUSH1 0xE0 PUSH2 0x12B4 DUP5 DUP3 DUP6 ADD PUSH2 0xEA8 JUMP JUMPDEST PUSH1 0xE0 DUP4 ADD MSTORE POP PUSH2 0x100 PUSH2 0x12C9 DUP5 DUP3 DUP6 ADD PUSH2 0xEA8 JUMP JUMPDEST PUSH2 0x100 DUP4 ADD MSTORE POP PUSH2 0x120 PUSH2 0x12DF DUP5 DUP3 DUP6 ADD PUSH2 0xEA8 JUMP JUMPDEST PUSH2 0x120 DUP4 ADD MSTORE POP PUSH2 0x140 PUSH2 0x12F5 DUP5 DUP3 DUP6 ADD PUSH2 0xEA8 JUMP JUMPDEST PUSH2 0x140 DUP4 ADD MSTORE POP SWAP3 SWAP2 POP POP JUMP JUMPDEST PUSH1 0x0 PUSH2 0x140 DUP3 DUP5 SUB SLT ISZERO PUSH2 0x1319 JUMPI PUSH2 0x1318 PUSH2 0xE7D JUMP JUMPDEST JUMPDEST PUSH2 0x1324 PUSH2 0x140 PUSH2 0xD33 JUMP JUMPDEST SWAP1 POP PUSH1 0x0 PUSH2 0x1334 DUP5 DUP3 DUP6 ADD PUSH2 0xEA8 JUMP JUMPDEST PUSH1 0x0 DUP4 ADD MSTORE POP PUSH1 0x20 PUSH2 0x1348 DUP5 DUP3 DUP6 ADD PUSH2 0xEA8 JUMP JUMPDEST PUSH1 0x20 DUP4 ADD MSTORE POP PUSH1 0x40 PUSH2 0x135C DUP5 DUP3 DUP6 ADD PUSH2 0xEA8 JUMP JUMPDEST PUSH1 0x40 DUP4 ADD MSTORE POP PUSH1 0x60 PUSH2 0x1370 DUP5 DUP3 DUP6 ADD PUSH2 0xEA8 JUMP JUMPDEST PUSH1 0x60 DUP4 ADD MSTORE POP PUSH1 0x80 PUSH2 0x1384 DUP5 DUP3 DUP6 ADD PUSH2 0xEA8 JUMP JUMPDEST PUSH1 0x80 DUP4 ADD MSTORE POP PUSH1 0xA0 PUSH2 0x1398 DUP5 DUP3 DUP6 ADD PUSH2 0xEA8 JUMP JUMPDEST PUSH1 0xA0 DUP4 ADD MSTORE POP PUSH1 0xC0 PUSH2 0x13AC DUP5 DUP3 DUP6 ADD PUSH2 0xEA8 JUMP JUMPDEST PUSH1 0xC0 DUP4 ADD MSTORE POP PUSH1 0xE0 PUSH2 0x13C0 DUP5 DUP3 DUP6 ADD PUSH2 0xEA8 JUMP JUMPDEST PUSH1 0xE0 DUP4 ADD MSTORE POP PUSH2 0x100 PUSH2 0x13D5 DUP5 DUP3 DUP6 ADD PUSH2 0xEA8 JUMP JUMPDEST PUSH2 0x100 DUP4 ADD MSTORE POP PUSH2 0x120 PUSH2 0x13EB DUP5 DUP3 DUP6 ADD PUSH2 0xEA8 JUMP JUMPDEST PUSH2 0x120 DUP4 ADD MSTORE POP SWAP3 SWAP2 POP POP JUMP JUMPDEST PUSH1 0x0 PUSH1 0x80 DUP3 DUP5 SUB SLT ISZERO PUSH2 0x140E JUMPI PUSH2 0x140D PUSH2 0xE7D JUMP JUMPDEST JUMPDEST PUSH2 0x1418 PUSH1 0x80 PUSH2 0xD33 JUMP JUMPDEST SWAP1 POP PUSH1 0x0 DUP3 ADD CALLDATALOAD PUSH8 0xFFFFFFFFFFFFFFFF DUP2 GT ISZERO PUSH2 0x1438 JUMPI PUSH2 0x1437 PUSH2 0xE82 JUMP JUMPDEST JUMPDEST PUSH2 0x1444 DUP5 DUP3 DUP6 ADD PUSH2 0xDD0 JUMP JUMPDEST PUSH1 0x0 DUP4 ADD MSTORE POP PUSH1 0x20 DUP3 ADD CALLDATALOAD PUSH8 0xFFFFFFFFFFFFFFFF DUP2 GT ISZERO PUSH2 0x1468 JUMPI PUSH2 0x1467 PUSH2 0xE82 JUMP JUMPDEST JUMPDEST PUSH2 0x1474 DUP5 DUP3 DUP6 ADD PUSH2 0xDD0 JUMP JUMPDEST PUSH1 0x20 DUP4 ADD MSTORE POP PUSH1 0x40 DUP3 ADD CALLDATALOAD PUSH8 0xFFFFFFFFFFFFFFFF DUP2 GT ISZERO PUSH2 0x1498 JUMPI PUSH2 0x1497 PUSH2 0xE82 JUMP JUMPDEST JUMPDEST PUSH2 0x14A4 DUP5 DUP3 DUP6 ADD PUSH2 0xDD0 JUMP JUMPDEST PUSH1 0x40 DUP4 ADD MSTORE POP PUSH1 0x60 DUP3 ADD CALLDATALOAD PUSH8 0xFFFFFFFFFFFFFFFF DUP2 GT ISZERO PUSH2 0x14C8 JUMPI PUSH2 0x14C7 PUSH2 0xE82 JUMP JUMPDEST JUMPDEST PUSH2 0x14D4 DUP5 DUP3 DUP6 ADD PUSH2 0xDD0 JUMP JUMPDEST PUSH1 0x60 DUP4 ADD MSTORE POP SWAP3 SWAP2 POP POP JUMP JUMPDEST PUSH1 0x0 DUP1 PUSH1 0x0 DUP1 PUSH1 0x0 PUSH2 0x3E0 DUP7 DUP9 SUB SLT ISZERO PUSH2 0x14FD JUMPI PUSH2 0x14FC PUSH2 0xCAE JUMP JUMPDEST JUMPDEST PUSH1 0x0 DUP7 ADD CALLDATALOAD PUSH8 0xFFFFFFFFFFFFFFFF DUP2 GT ISZERO PUSH2 0x151B JUMPI PUSH2 0x151A PUSH2 0xCB3 JUMP JUMPDEST JUMPDEST PUSH2 0x1527 DUP9 DUP3 DUP10 ADD PUSH2 0xEF6 JUMP JUMPDEST SWAP6 POP POP PUSH1 0x20 PUSH2 0x1538 DUP9 DUP3 DUP10 ADD PUSH2 0x112C JUMP JUMPDEST SWAP5 POP POP PUSH2 0x120 PUSH2 0x154A DUP9 DUP3 DUP10 ADD PUSH2 0x11F6 JUMP JUMPDEST SWAP4 POP POP PUSH2 0x280 PUSH2 0x155C DUP9 DUP3 DUP10 ADD PUSH2 0x1302 JUMP JUMPDEST SWAP3 POP POP PUSH2 0x3C0 DUP7 ADD CALLDATALOAD PUSH8 0xFFFFFFFFFFFFFFFF DUP2 GT ISZERO PUSH2 0x157E JUMPI PUSH2 0x157D PUSH2 0xCB3 JUMP JUMPDEST JUMPDEST PUSH2 0x158A DUP9 DUP3 DUP10 ADD PUSH2 0x13F8 JUMP JUMPDEST SWAP2 POP POP SWAP3 SWAP6 POP SWAP3 SWAP6 SWAP1 SWAP4 POP JUMP JUMPDEST PUSH1 0x0 DUP2 SWAP1 POP SWAP2 SWAP1 POP JUMP JUMPDEST PUSH2 0x15AA DUP2 PUSH2 0x1597 JUMP JUMPDEST DUP3 MSTORE POP POP JUMP JUMPDEST PUSH1 0x0 PUSH1 0x20 DUP3 ADD SWAP1 POP PUSH2 0x15C5 PUSH1 0x0 DUP4 ADD DUP5 PUSH2 0x15A1 JUMP JUMPDEST SWAP3 SWAP2 POP POP JUMP JUMPDEST PUSH2 0x15D4 DUP2 PUSH2 0x1597 JUMP JUMPDEST DUP2 EQ PUSH2 0x15DF JUMPI PUSH1 0x0 DUP1 REVERT JUMPDEST POP JUMP JUMPDEST PUSH1 0x0 DUP2 CALLDATALOAD SWAP1 POP PUSH2 0x15F1 DUP2 PUSH2 0x15CB JUMP JUMPDEST SWAP3 SWAP2 POP POP JUMP JUMPDEST PUSH1 0x0 PUSH1 0x20 DUP3 DUP5 SUB SLT ISZERO PUSH2 0x160D JUMPI PUSH2 0x160C PUSH2 0xCAE JUMP JUMPDEST JUMPDEST PUSH1 0x0 PUSH2 0x161B DUP5 DUP3 DUP6 ADD PUSH2 0x15E2 JUMP JUMPDEST SWAP2 POP POP SWAP3 SWAP2 POP POP JUMP JUMPDEST PUSH1 0x0 DUP2 MLOAD SWAP1 POP SWAP2 SWAP1 POP JUMP JUMPDEST PUSH1 0x0 DUP3 DUP3 MSTORE PUSH1 0x20 DUP3 ADD SWAP1 POP SWAP3 SWAP2 POP POP JUMP JUMPDEST PUSH1 0x0 JUMPDEST DUP4 DUP2 LT ISZERO PUSH2 0x165E JUMPI DUP1 DUP3 ADD MLOAD DUP2 DUP5 ADD MSTORE PUSH1 0x20 DUP2 ADD SWAP1 POP PUSH2 0x1643 JUMP JUMPDEST PUSH1 0x0 DUP5 DUP5 ADD MSTORE POP POP POP POP JUMP JUMPDEST PUSH1 0x0 PUSH2 0x1675 DUP3 PUSH2 0x1624 JUMP JUMPDEST PUSH2 0x167F DUP2 DUP6 PUSH2 0x162F JUMP JUMPDEST SWAP4 POP PUSH2 0x168F DUP2 DUP6 PUSH1 0x20 DUP7 ADD PUSH2 0x1640 JUMP JUMPDEST PUSH2 0x1698 DUP2 PUSH2 0xCC2 JUMP JUMPDEST DUP5 ADD SWAP2 POP POP SWAP3 SWAP2 POP POP JUMP JUMPDEST PUSH2 0x16AC DUP2 PUSH2 0xE87 JUMP JUMPDEST DUP3 MSTORE POP POP JUMP JUMPDEST PUSH2 0x16BB DUP2 PUSH2 0xEBD JUMP JUMPDEST DUP3 MSTORE POP POP JUMP JUMPDEST PUSH1 0x0 PUSH2 0x2C0 DUP4 ADD PUSH1 0x0 DUP4 ADD MLOAD DUP5 DUP3 SUB PUSH1 0x0 DUP7 ADD MSTORE PUSH2 0x16DF DUP3 DUP3 PUSH2 0x166A JUMP JUMPDEST SWAP2 POP POP PUSH1 0x20 DUP4 ADD MLOAD DUP5 DUP3 SUB PUSH1 0x20 DUP7 ADD MSTORE PUSH2 0x16F9 DUP3 DUP3 PUSH2 0x166A JUMP JUMPDEST SWAP2 POP POP PUSH1 0x40 DUP4 ADD MLOAD PUSH2 0x170E PUSH1 0x40 DUP7 ADD DUP3 PUSH2 0x16A3 JUMP JUMPDEST POP PUSH1 0x60 DUP4 ADD MLOAD PUSH2 0x1721 PUSH1 0x60 DUP7 ADD DUP3 PUSH2 0x16A3 JUMP JUMPDEST POP PUSH1 0x80 DUP4 ADD MLOAD PUSH2 0x1734 PUSH1 0x80 DUP7 ADD DUP3 PUSH2 0x16A3 JUMP JUMPDEST POP PUSH1 0xA0 DUP4 ADD MLOAD PUSH2 0x1747 PUSH1 0xA0 DUP7 ADD DUP3 PUSH2 0x16A3 JUMP JUMPDEST POP PUSH1 0xC0 DUP4 ADD MLOAD PUSH2 0x175A PUSH1 0xC0 DUP7 ADD DUP3 PUSH2 0x16A3 JUMP JUMPDEST POP PUSH1 0xE0 DUP4 ADD MLOAD PUSH2 0x176D PUSH1 0xE0 DUP7 ADD DUP3 PUSH2 0x16A3 JUMP JUMPDEST POP PUSH2 0x100 DUP4 ADD MLOAD PUSH2 0x1782 PUSH2 0x100 DUP7 ADD DUP3 PUSH2 0x16A3 JUMP JUMPDEST POP PUSH2 0x120 DUP4 ADD MLOAD PUSH2 0x1797 PUSH2 0x120 DUP7 ADD DUP3 PUSH2 0x16A3 JUMP JUMPDEST POP PUSH2 0x140 DUP4 ADD MLOAD PUSH2 0x17AC PUSH2 0x140 DUP7 ADD DUP3 PUSH2 0x16A3 JUMP JUMPDEST POP PUSH2 0x160 DUP4 ADD MLOAD PUSH2 0x17C1 PUSH2 0x160 DUP7 ADD DUP3 PUSH2 0x16A3 JUMP JUMPDEST POP PUSH2 0x180 DUP4 ADD MLOAD PUSH2 0x17D6 PUSH2 0x180 DUP7 ADD DUP3 PUSH2 0x16A3 JUMP JUMPDEST POP PUSH2 0x1A0 DUP4 ADD MLOAD PUSH2 0x17EB PUSH2 0x1A0 DUP7 ADD DUP3 PUSH2 0x16A3 JUMP JUMPDEST POP PUSH2 0x1C0 DUP4 ADD MLOAD PUSH2 0x1800 PUSH2 0x1C0 DUP7 ADD DUP3 PUSH2 0x16B2 JUMP JUMPDEST POP PUSH2 0x1E0 DUP4 ADD MLOAD PUSH2 0x1815 PUSH2 0x1E0 DUP7 ADD DUP3 PUSH2 0x16B2 JUMP JUMPDEST POP PUSH2 0x200 DUP4 ADD MLOAD PUSH2 0x182A PUSH2 0x200 DUP7 ADD DUP3 PUSH2 0x16B2 JUMP JUMPDEST POP PUSH2 0x220 DUP4 ADD MLOAD PUSH2 0x183F PUSH2 0x220 DUP7 ADD DUP3 PUSH2 0x16B2 JUMP JUMPDEST POP PUSH2 0x240 DUP4 ADD MLOAD PUSH2 0x1854 PUSH2 0x240 DUP7 ADD DUP3 PUSH2 0x16A3 JUMP JUMPDEST POP PUSH2 0x260 DUP4 ADD MLOAD PUSH2 0x1869 PUSH2 0x260 DUP7 ADD DUP3 PUSH2 0x16A3 JUMP JUMPDEST POP PUSH2 0x280 DUP4 ADD MLOAD PUSH2 0x187E PUSH2 0x280 DUP7 ADD DUP3 PUSH2 0x16A3 JUMP JUMPDEST POP PUSH2 0x2A0 DUP4 ADD MLOAD PUSH2 0x1893 PUSH2 0x2A0 DUP7 ADD DUP3 PUSH2 0x16A3 JUMP JUMPDEST POP DUP1 SWAP2 POP POP SWAP3 SWAP2 POP POP JUMP JUMPDEST PUSH2 0x100 DUP3 ADD PUSH1 0x0 DUP3 ADD MLOAD PUSH2 0x18B5 PUSH1 0x0 DUP6 ADD DUP3 PUSH2 0x16A3 JUMP JUMPDEST POP PUSH1 0x20 DUP3 ADD MLOAD PUSH2 0x18C8 PUSH1 0x20 DUP6 ADD DUP3 PUSH2 0x16A3 JUMP JUMPDEST POP PUSH1 0x40 DUP3 ADD MLOAD PUSH2 0x18DB PUSH1 0x40 DUP6 ADD DUP3 PUSH2 0x16A3 JUMP JUMPDEST POP PUSH1 0x60 DUP3 ADD MLOAD PUSH2 0x18EE PUSH1 0x60 DUP6 ADD DUP3 PUSH2 0x16A3 JUMP JUMPDEST POP PUSH1 0x80 DUP3 ADD MLOAD PUSH2 0x1901 PUSH1 0x80 DUP6 ADD DUP3 PUSH2 0x16A3 JUMP JUMPDEST POP PUSH1 0xA0 DUP3 ADD MLOAD PUSH2 0x1914 PUSH1 0xA0 DUP6 ADD DUP3 PUSH2 0x16A3 JUMP JUMPDEST POP PUSH1 0xC0 DUP3 ADD MLOAD PUSH2 0x1927 PUSH1 0xC0 DUP6 ADD DUP3 PUSH2 0x16A3 JUMP JUMPDEST POP PUSH1 0xE0 DUP3 ADD MLOAD PUSH2 0x193A PUSH1 0xE0 DUP6 ADD DUP3 PUSH2 0x16A3 JUMP JUMPDEST POP POP POP POP JUMP JUMPDEST PUSH2 0x160 DUP3 ADD PUSH1 0x0 DUP3 ADD MLOAD PUSH2 0x1957 PUSH1 0x0 DUP6 ADD DUP3 PUSH2 0x16A3 JUMP JUMPDEST POP PUSH1 0x20 DUP3 ADD MLOAD PUSH2 0x196A PUSH1 0x20 DUP6 ADD DUP3 PUSH2 0x16A3 JUMP JUMPDEST POP PUSH1 0x40 DUP3 ADD MLOAD PUSH2 0x197D PUSH1 0x40 DUP6 ADD DUP3 PUSH2 0x16A3 JUMP JUMPDEST POP PUSH1 0x60 DUP3 ADD MLOAD PUSH2 0x1990 PUSH1 0x60 DUP6 ADD DUP3 PUSH2 0x16A3 JUMP JUMPDEST POP PUSH1 0x80 DUP3 ADD MLOAD PUSH2 0x19A3 PUSH1 0x80 DUP6 ADD DUP3 PUSH2 0x16A3 JUMP JUMPDEST POP PUSH1 0xA0 DUP3 ADD MLOAD PUSH2 0x19B6 PUSH1 0xA0 DUP6 ADD DUP3 PUSH2 0x16A3 JUMP JUMPDEST POP PUSH1 0xC0 DUP3 ADD MLOAD PUSH2 0x19C9 PUSH1 0xC0 DUP6 ADD DUP3 PUSH2 0x16A3 JUMP JUMPDEST POP PUSH1 0xE0 DUP3 ADD MLOAD PUSH2 0x19DC PUSH1 0xE0 DUP6 ADD DUP3 PUSH2 0x16A3 JUMP JUMPDEST POP PUSH2 0x100 DUP3 ADD MLOAD PUSH2 0x19F1 PUSH2 0x100 DUP6 ADD DUP3 PUSH2 0x16A3 JUMP JUMPDEST POP PUSH2 0x120 DUP3 ADD MLOAD PUSH2 0x1A06 PUSH2 0x120 DUP6 ADD DUP3 PUSH2 0x16A3 JUMP JUMPDEST POP PUSH2 0x140 DUP3 ADD MLOAD PUSH2 0x1A1B PUSH2 0x140 DUP6 ADD DUP3 PUSH2 0x16A3 JUMP JUMPDEST POP POP POP POP JUMP JUMPDEST PUSH2 0x140 DUP3 ADD PUSH1 0x0 DUP3 ADD MLOAD PUSH2 0x1A38 PUSH1 0x0 DUP6 ADD DUP3 PUSH2 0x16A3 JUMP JUMPDEST POP PUSH1 0x20 DUP3 ADD MLOAD PUSH2 0x1A4B PUSH1 0x20 DUP6 ADD DUP3 PUSH2 0x16A3 JUMP JUMPDEST POP PUSH1 0x40 DUP3 ADD MLOAD PUSH2 0x1A5E PUSH1 0x40 DUP6 ADD DUP3 PUSH2 0x16A3 JUMP JUMPDEST POP PUSH1 0x60 DUP3 ADD MLOAD PUSH2 0x1A71 PUSH1 0x60 DUP6 ADD DUP3 PUSH2 0x16A3 JUMP JUMPDEST POP PUSH1 0x80 DUP3 ADD MLOAD PUSH2 0x1A84 PUSH1 0x80 DUP6 ADD DUP3 PUSH2 0x16A3 JUMP JUMPDEST POP PUSH1 0xA0 DUP3 ADD MLOAD PUSH2 0x1A97 PUSH1 0xA0 DUP6 ADD DUP3 PUSH2 0x16A3 JUMP JUMPDEST POP PUSH1 0xC0 DUP3 ADD MLOAD PUSH2 0x1AAA PUSH1 0xC0 DUP6 ADD DUP3 PUSH2 0x16A3 JUMP JUMPDEST POP PUSH1 0xE0 DUP3 ADD MLOAD PUSH2 0x1ABD PUSH1 0xE0 DUP6 ADD DUP3 PUSH2 0x16A3 JUMP JUMPDEST POP PUSH2 0x100 DUP3 ADD MLOAD PUSH2 0x1AD2 PUSH2 0x100 DUP6 ADD DUP3 PUSH2 0x16A3 JUMP JUMPDEST POP PUSH2 0x120 DUP3 ADD MLOAD PUSH2 0x1AE7 PUSH2 0x120 DUP6 ADD DUP3 PUSH2 0x16A3 JUMP JUMPDEST POP POP POP POP JUMP JUMPDEST PUSH1 0x0 PUSH1 0x80 DUP4 ADD PUSH1 0x0 DUP4 ADD MLOAD DUP5 DUP3 SUB PUSH1 0x0 DUP7 ADD MSTORE PUSH2 0x1B0A DUP3 DUP3 PUSH2 0x166A JUMP JUMPDEST SWAP2 POP POP PUSH1 0x20 DUP4 ADD MLOAD DUP5 DUP3 SUB PUSH1 0x20 DUP7 ADD MSTORE PUSH2 0x1B24 DUP3 DUP3 PUSH2 0x166A JUMP JUMPDEST SWAP2 POP POP PUSH1 0x40 DUP4 ADD MLOAD DUP5 DUP3 SUB PUSH1 0x40 DUP7 ADD MSTORE PUSH2 0x1B3E DUP3 DUP3 PUSH2 0x166A JUMP JUMPDEST SWAP2 POP POP PUSH1 0x60 DUP4 ADD MLOAD DUP5 DUP3 SUB PUSH1 0x60 DUP7 ADD MSTORE PUSH2 0x1B58 DUP3 DUP3 PUSH2 0x166A JUMP JUMPDEST SWAP2 POP POP DUP1 SWAP2 POP POP SWAP3 SWAP2 POP POP JUMP JUMPDEST PUSH1 0x0 PUSH2 0x3E0 DUP3 ADD SWAP1 POP DUP2 DUP2 SUB PUSH1 0x0 DUP4 ADD MSTORE PUSH2 0x1B80 DUP2 DUP9 PUSH2 0x16C1 JUMP JUMPDEST SWAP1 POP PUSH2 0x1B8F PUSH1 0x20 DUP4 ADD DUP8 PUSH2 0x189E JUMP JUMPDEST PUSH2 0x1B9D PUSH2 0x120 DUP4 ADD DUP7 PUSH2 0x1940 JUMP JUMPDEST PUSH2 0x1BAB PUSH2 0x280 DUP4 ADD DUP6 PUSH2 0x1A21 JUMP JUMPDEST DUP2 DUP2 SUB PUSH2 0x3C0 DUP4 ADD MSTORE PUSH2 0x1BBE DUP2 DUP5 PUSH2 0x1AED JUMP JUMPDEST SWAP1 POP SWAP7 SWAP6 POP POP POP POP POP POP JUMP JUMPDEST PUSH1 0x0 PUSH20 0xFFFFFFFFFFFFFFFFFFFFFFFFFFFFFFFFFFFFFFFF DUP3 AND SWAP1 POP SWAP2 SWAP1 POP JUMP JUMPDEST PUSH1 0x0 DUP2 SWAP1 POP SWAP2 SWAP1 POP JUMP JUMPDEST PUSH1 0x0 PUSH2 0x1C0F PUSH2 0x1C0A PUSH2 0x1C05 DUP5 PUSH2 0x1BCA JUMP JUMPDEST PUSH2 0x1BEA JUMP JUMPDEST PUSH2 0x1BCA JUMP JUMPDEST SWAP1 POP SWAP2 SWAP1 POP JUMP JUMPDEST PUSH1 0x0 PUSH2 0x1C21 DUP3 PUSH2 0x1BF4 JUMP JUMPDEST SWAP1 POP SWAP2 SWAP1 POP JUMP JUMPDEST PUSH1 0x0 PUSH2 0x1C33 DUP3 PUSH2 0x1C16 JUMP JUMPDEST SWAP1 POP SWAP2 SWAP1 POP JUMP JUMPDEST PUSH2 0x1C43 DUP2 PUSH2 0x1C28 JUMP JUMPDEST DUP3 MSTORE POP POP JUMP JUMPDEST PUSH1 0x0 PUSH1 0x20 DUP3 ADD SWAP1 POP PUSH2 0x1C5E PUSH1 0x0 DUP4 ADD DUP5 PUSH2 0x1C3A JUMP JUMPDEST SWAP3 SWAP2 POP POP JUMP JUMPDEST PUSH32 0x4E487B7100000000000000000000000000000000000000000000000000000000 PUSH1 0x0 MSTORE PUSH1 0x21 PUSH1 0x4 MSTORE PUSH1 0x24 PUSH1 0x0 REVERT JUMPDEST PUSH1 0x4 DUP2 LT PUSH2 0x1CA4 JUMPI PUSH2 0x1CA3 PUSH2 0x1C64 JUMP JUMPDEST JUMPDEST POP JUMP JUMPDEST PUSH1 0x0 DUP2 SWAP1 POP PUSH2 0x1CB5 DUP3 PUSH2 0x1C93 JUMP JUMPDEST SWAP2 SWAP1 POP JUMP JUMPDEST PUSH1 0x0 PUSH2 0x1CC5 DUP3 PUSH2 0x1CA7 JUMP JUMPDEST SWAP1 POP SWAP2 SWAP1 POP JUMP JUMPDEST PUSH2 0x1CD5 DUP2 PUSH2 0x1CBA JUMP JUMPDEST DUP3 MSTORE POP POP JUMP JUMPDEST PUSH1 0x0 DUP3 DUP3 MSTORE PUSH1 0x20 DUP3 ADD SWAP1 POP SWAP3 SWAP2 POP POP JUMP JUMPDEST PUSH1 0x0 PUSH2 0x1CF7 DUP3 PUSH2 0x1624 JUMP JUMPDEST PUSH2 0x1D01 DUP2 DUP6 PUSH2 0x1CDB JUMP JUMPDEST SWAP4 POP PUSH2 0x1D11 DUP2 DUP6 PUSH1 0x20 DUP7 ADD PUSH2 0x1640 JUMP JUMPDEST PUSH2 0x1D1A DUP2 PUSH2 0xCC2 JUMP JUMPDEST DUP5 ADD SWAP2 POP POP SWAP3 SWAP2 POP POP JUMP JUMPDEST PUSH1 0x0 PUSH1 0x40 DUP3 ADD SWAP1 POP PUSH2 0x1D3A PUSH1 0x0 DUP4 ADD DUP6 PUSH2 0x1CCC JUMP JUMPDEST DUP2 DUP2 SUB PUSH1 0x20 DUP4 ADD MSTORE PUSH2 0x1D4C DUP2 DUP5 PUSH2 0x1CEC JUMP JUMPDEST SWAP1 POP SWAP4 SWAP3 POP POP POP JUMP JUMPDEST PUSH2 0x1D5E DUP2 PUSH2 0xE47 JUMP JUMPDEST DUP2 EQ PUSH2 0x1D69 JUMPI PUSH1 0x0 DUP1 REVERT JUMPDEST POP JUMP JUMPDEST PUSH1 0x0 DUP2 MLOAD SWAP1 POP PUSH2 0x1D7B DUP2 PUSH2 0x1D55 JUMP JUMPDEST SWAP3 SWAP2 POP POP JUMP JUMPDEST PUSH1 0x0 PUSH1 0x20 DUP3 DUP5 SUB SLT ISZERO PUSH2 0x1D97 JUMPI PUSH2 0x1D96 PUSH2 0xCAE JUMP JUMPDEST JUMPDEST PUSH1 0x0 PUSH2 0x1DA5 DUP5 DUP3 DUP6 ADD PUSH2 0x1D6C JUMP JUMPDEST SWAP2 POP POP SWAP3 SWAP2 POP POP JUMP JUMPDEST PUSH32 0x446F75626C652064697070696E67206465746563746564210000000000000000 PUSH1 0x0 DUP3 ADD MSTORE POP JUMP JUMPDEST PUSH1 0x0 PUSH2 0x1DE4 PUSH1 0x18 DUP4 PUSH2 0x1CDB JUMP JUMPDEST SWAP2 POP PUSH2 0x1DEF DUP3 PUSH2 0x1DAE JUMP JUMPDEST PUSH1 0x20 DUP3 ADD SWAP1 POP SWAP2 SWAP1 POP JUMP JUMPDEST PUSH1 0x0 PUSH1 0x20 DUP3 ADD SWAP1 POP DUP2 DUP2 SUB PUSH1 0x0 DUP4 ADD MSTORE PUSH2 0x1E13 DUP2 PUSH2 0x1DD7 JUMP JUMPDEST SWAP1 POP SWAP2 SWAP1 POP JUMP JUMPDEST PUSH32 0x4E487B7100000000000000000000000000000000000000000000000000000000 PUSH1 0x0 MSTORE PUSH1 0x11 PUSH1 0x4 MSTORE PUSH1 0x24 PUSH1 0x0 REVERT JUMPDEST PUSH1 0x0 PUSH2 0x1E54 DUP3 PUSH2 0x1597 JUMP JUMPDEST SWAP2 POP PUSH32 0xFFFFFFFFFFFFFFFFFFFFFFFFFFFFFFFFFFFFFFFFFFFFFFFFFFFFFFFFFFFFFFFF DUP3 SUB PUSH2 0x1E86 JUMPI PUSH2 0x1E85 PUSH2 0x1E1A JUMP JUMPDEST JUMPDEST PUSH1 0x1 DUP3 ADD SWAP1 POP SWAP2 SWAP1 POP JUMP JUMPDEST PUSH32 0x4E487B7100000000000000000000000000000000000000000000000000000000 PUSH1 0x0 MSTORE PUSH1 0x22 PUSH1 0x4 MSTORE PUSH1 0x24 PUSH1 0x0 REVERT JUMPDEST PUSH1 0x0 PUSH1 0x2 DUP3 DIV SWAP1 POP PUSH1 0x1 DUP3 AND DUP1 PUSH2 0x1ED8 JUMPI PUSH1 0x7F DUP3 AND SWAP2 POP JUMPDEST PUSH1 0x20 DUP3 LT DUP2 SUB PUSH2 0x1EEB JUMPI PUSH2 0x1EEA PUSH2 0x1E91 JUMP JUMPDEST JUMPDEST POP SWAP2 SWAP1 POP JUMP JUMPDEST PUSH1 0x0 DUP2 SWAP1 POP DUP2 PUSH1 0x0 MSTORE PUSH1 0x20 PUSH1 0x0 KECCAK256 SWAP1 POP SWAP2 SWAP1 POP JUMP JUMPDEST PUSH1 0x0 PUSH1 0x20 PUSH1 0x1F DUP4 ADD DIV SWAP1 POP SWAP2 SWAP1 POP JUMP JUMPDEST PUSH1 0x0 DUP3 DUP3 SHL SWAP1 POP SWAP3 SWAP2 POP POP JUMP JUMPDEST PUSH1 0x0 PUSH1 0x8 DUP4 MUL PUSH2 0x1F53 PUSH32 0xFFFFFFFFFFFFFFFFFFFFFFFFFFFFFFFFFFFFFFFFFFFFFFFFFFFFFFFFFFFFFFFF DUP3 PUSH2 0x1F16 JUMP JUMPDEST PUSH2 0x1F5D DUP7 DUP4 PUSH2 0x1F16 JUMP JUMPDEST SWAP6 POP DUP1 NOT DUP5 AND SWAP4 POP DUP1 DUP7 AND DUP5 OR SWAP3 POP POP POP SWAP4 SWAP3 POP POP POP JUMP JUMPDEST PUSH1 0x0 PUSH2 0x1F90 PUSH2 0x1F8B PUSH2 0x1F86 DUP5 PUSH2 0x1597 JUMP JUMPDEST PUSH2 0x1BEA JUMP JUMPDEST PUSH2 0x1597 JUMP JUMPDEST SWAP1 POP SWAP2 SWAP1 POP JUMP JUMPDEST PUSH1 0x0 DUP2 SWAP1 POP SWAP2 SWAP1 POP JUMP JUMPDEST PUSH2 0x1FAA DUP4 PUSH2 0x1F75 JUMP JUMPDEST PUSH2 0x1FBE PUSH2 0x1FB6 DUP3 PUSH2 0x1F97 JUMP JUMPDEST DUP5 DUP5 SLOAD PUSH2 0x1F23 JUMP JUMPDEST DUP3 SSTORE POP POP POP POP JUMP JUMPDEST PUSH1 0x0 SWAP1 JUMP JUMPDEST PUSH2 0x1FD3 PUSH2 0x1FC6 JUMP JUMPDEST PUSH2 0x1FDE DUP2 DUP5 DUP5 PUSH2 0x1FA1 JUMP JUMPDEST POP POP POP JUMP JUMPDEST JUMPDEST DUP2 DUP2 LT ISZERO PUSH2 0x2002 JUMPI PUSH2 0x1FF7 PUSH1 0x0 DUP3 PUSH2 0x1FCB JUMP JUMPDEST PUSH1 0x1 DUP2 ADD SWAP1 POP PUSH2 0x1FE4 JUMP JUMPDEST POP POP JUMP JUMPDEST PUSH1 0x1F DUP3 GT ISZERO PUSH2 0x2047 JUMPI PUSH2 0x2018 DUP2 PUSH2 0x1EF1 JUMP JUMPDEST PUSH2 0x2021 DUP5 PUSH2 0x1F06 JUMP JUMPDEST DUP2 ADD PUSH1 0x20 DUP6 LT ISZERO PUSH2 0x2030 JUMPI DUP2 SWAP1 POP JUMPDEST PUSH2 0x2044 PUSH2 0x203C DUP6 PUSH2 0x1F06 JUMP JUMPDEST DUP4 ADD DUP3 PUSH2 0x1FE3 JUMP JUMPDEST POP POP JUMPDEST POP POP POP JUMP JUMPDEST PUSH1 0x0 DUP3 DUP3 SHR SWAP1 POP SWAP3 SWAP2 POP POP JUMP JUMPDEST PUSH1 0x0 PUSH2 0x206A PUSH1 0x0 NOT DUP5 PUSH1 0x8 MUL PUSH2 0x204C JUMP JUMPDEST NOT DUP1 DUP4 AND SWAP2 POP POP SWAP3 SWAP2 POP POP JUMP JUMPDEST PUSH1 0x0 PUSH2 0x2083 DUP4 DUP4 PUSH2 0x2059 JUMP JUMPDEST SWAP2 POP DUP3 PUSH1 0x2 MUL DUP3 OR SWAP1 POP SWAP3 SWAP2 POP POP JUMP JUMPDEST PUSH2 0x209C DUP3 PUSH2 0x1624 JUMP JUMPDEST PUSH8 0xFFFFFFFFFFFFFFFF DUP2 GT ISZERO PUSH2 0x20B5 JUMPI PUSH2 0x20B4 PUSH2 0xCD3 JUMP JUMPDEST JUMPDEST PUSH2 0x20BF DUP3 SLOAD PUSH2 0x1EC0 JUMP JUMPDEST PUSH2 0x20CA DUP3 DUP3 DUP6 PUSH2 0x2006 JUMP JUMPDEST PUSH1 0x0 PUSH1 0x20 SWAP1 POP PUSH1 0x1F DUP4 GT PUSH1 0x1 DUP2 EQ PUSH2 0x20FD JUMPI PUSH1 0x0 DUP5 ISZERO PUSH2 0x20EB JUMPI DUP3 DUP8 ADD MLOAD SWAP1 POP JUMPDEST PUSH2 0x20F5 DUP6 DUP3 PUSH2 0x2077 JUMP JUMPDEST DUP7 SSTORE POP PUSH2 0x215D JUMP JUMPDEST PUSH1 0x1F NOT DUP5 AND PUSH2 0x210B DUP7 PUSH2 0x1EF1 JUMP JUMPDEST PUSH1 0x0 JUMPDEST DUP3 DUP2 LT ISZERO PUSH2 0x2133 JUMPI DUP5 DUP10 ADD MLOAD DUP3 SSTORE PUSH1 0x1 DUP3 ADD SWAP2 POP PUSH1 0x20 DUP6 ADD SWAP5 POP PUSH1 0x20 DUP2 ADD SWAP1 POP PUSH2 0x210E JUMP JUMPDEST DUP7 DUP4 LT ISZERO PUSH2 0x2150 JUMPI DUP5 DUP10 ADD MLOAD PUSH2 0x214C PUSH1 0x1F DUP10 AND DUP3 PUSH2 0x2059 JUMP JUMPDEST DUP4 SSTORE POP JUMPDEST PUSH1 0x1 PUSH1 0x2 DUP9 MUL ADD DUP9 SSTORE POP POP POP JUMPDEST POP POP POP POP POP POP JUMP JUMPDEST PUSH1 0x0 DUP2 SWAP1 POP SWAP3 SWAP2 POP POP JUMP JUMPDEST PUSH1 0x0 PUSH2 0x217B DUP3 PUSH2 0x1624 JUMP JUMPDEST PUSH2 0x2185 DUP2 DUP6 PUSH2 0x2165 JUMP JUMPDEST SWAP4 POP PUSH2 0x2195 DUP2 DUP6 PUSH1 0x20 DUP7 ADD PUSH2 0x1640 JUMP JUMPDEST DUP1 DUP5 ADD SWAP2 POP POP SWAP3 SWAP2 POP POP JUMP JUMPDEST PUSH1 0x0 PUSH2 0x21AD DUP3 DUP5 PUSH2 0x2170 JUMP JUMPDEST SWAP2 POP DUP2 SWAP1 POP SWAP3 SWAP2 POP POP JUMP JUMPDEST PUSH1 0x0 PUSH1 0x20 DUP3 ADD SWAP1 POP DUP2 DUP2 SUB PUSH1 0x0 DUP4 ADD MSTORE PUSH2 0x21D2 DUP2 DUP5 PUSH2 0x1CEC JUMP JUMPDEST SWAP1 POP SWAP3 SWAP2 POP POP JUMP INVALID LOG2 PUSH5 0x6970667358 0x22 SLT KECCAK256 MSIZE SWAP11 0x2A 0xC0 AND 0xE0 0xC9 MUL DUP4 0xC5 MSTORE8 SLT PUSH2 0xF154 0xE3 0x4F 0x4E DUP10 DELEGATECALL 0xEA 0xAA 0xD9 GT GAS SWAP9 DUP3 0xAA SWAP15 0xD0 PUSH24 0x7C64736F6C634300081A0033000000000000000000000000 "},"methodIdentifiers":{"claimCount()":"8da4d3c9","claims(uint256)":"a888c2cd","fileVehicleClaim((string,string,bytes32,bytes32,bytes32,bytes32,bytes32,bytes32,bytes32,bytes32,bytes32,bytes32,bytes32,bytes32,uint8,uint8,uint8,uint8,bytes32,bytes32,bytes32,bytes32),(bytes32,bytes32,bytes32,bytes32,bytes32,bytes32,bytes32,bytes32),(bytes32,bytes32,bytes32,bytes32,bytes32,bytes32,bytes32,bytes32,bytes32,bytes32,bytes32),(bytes32,bytes32,bytes32,bytes32,bytes32,bytes32,bytes32,bytes32,bytes32,bytes32),(string,string,string,string))":"386f957b","globalClaimTracker()":"c796bbf4","hasClaimed(string)":"363454ee"}}}}}