{"contracts/GlobalClaimTracker.sol":{"GlobalClaimTracker":{"abi":[{"anonymous":false,"inputs":[{"indexed":true,"internalType":"uint256","name":"claimType","type":"uint256"},{"indexed":false,"internalType":"string","name":"policyNumber","type":"string"}],"name":"ClaimDenied","type":"event"},{"anonymous":false,"inputs":[{"indexed":true,"internalType":"uint256","name":"claimType","type":"uint256"},{"indexed":false,"internalType":"string","name":"policyNumber","type":"string"}],"name":"ClaimRegistered","type":"event"},{"inputs":[{"internalType":"enum GlobalClaimTracker.ClaimType","name":"claimType","type":"uint8"},{"internalType":"string","name":"policyNumber","type":"string"}],"name":"checkAndRegisterClaim","outputs":[{"internalType":"bool","name":"","type":"bool"}],"stateMutability":"nonpayable","type":"function"},{"inputs":[{"internalType":"enum GlobalClaimTracker.ClaimType","name":"","type":"uint8"},{"internalType":"string","name":"","type":"string"}],"name":"claimedPolicies","outputs":[{"internalType":"bool","name":"","type":"bool"}],"stateMutability":"view","type":"function"},{"inputs":[{"internalType":"enum GlobalClaimTracker.ClaimType","name":"claimType","type":"uint8"},{"internalType":"string","name":"policyNumber","type":"string"}],"name":"isClaimed","outputs":[{"internalType":"bool","name":"","type":"bool"}],"stateMutability":"view","type":"function"}],"evm":{"bytecode":{"linkReferences":{},"object":"6080604052348015600f57600080fd5b506106698061001f6000396000f3fe608060405234801561001057600080fd5b50600436106100415760003560e01c8063080c3fd314610046578063791ca66714610076578063eb9ba00a146100a6575b600080fd5b610060600480360381019061005b919061047e565b6100d6565b60405161006d91906104f5565b60405180910390f35b610090600480360381019061008b919061047e565b610250565b60405161009d91906104f5565b60405180910390f35b6100c060048036038101906100bb919061047e565b610295565b6040516100cd91906104f5565b60405180910390f35b60008060008460038111156100ee576100ed610510565b5b6003811115610100576100ff610510565b5b81526020019081526020016000208260405161011c91906105b0565b908152602001604051809103902060009054906101000a900460ff1615610190578260038111156101505761014f610510565b5b7f57f2fbb01065cfd984d6cc338ad8f3694c6de775a73bebb6dfec793d2d76a0a98360405161017f9190610611565b60405180910390a26000905061024a565b60016000808560038111156101a8576101a7610510565b5b60038111156101ba576101b9610510565b5b8152602001908152602001600020836040516101d691906105b0565b908152602001604051809103902060006101000a81548160ff02191690831515021790555082600381111561020e5761020d610510565b5b7f48e6596eda93b5369c44689e8b4a4fc5cf8bc689606f0f5eea7f049310e162658360405161023d9190610611565b60405180910390a2600190505b92915050565b6000602052816000526040600020818051602081018201805184825260208301602085012081835280955050505050506000915091509054906101000a900460ff1681565b60008060008460038111156102ad576102ac610510565b5b60038111156102bf576102be610510565b5b8152602001908152602001600020826040516102db91906105b0565b908152602001604051809103902060009054906101000a900460ff16905092915050565b6000604051905090565b600080fd5b600080fd5b6004811061032057600080fd5b50565b60008135905061033281610313565b92915050565b600080fd5b600080fd5b6000601f19601f8301169050919050565b7f4e487b7100000000000000000000000000000000000000000000000000000000600052604160045260246000fd5b61038b82610342565b810181811067ffffffffffffffff821117156103aa576103a9610353565b5b80604052505050565b60006103bd6102ff565b90506103c98282610382565b919050565b600067ffffffffffffffff8211156103e9576103e8610353565b5b6103f282610342565b9050602081019050919050565b82818337600083830152505050565b600061042161041c846103ce565b6103b3565b90508281526020810184848401111561043d5761043c61033d565b5b6104488482856103ff565b509392505050565b600082601f83011261046557610464610338565b5b813561047584826020860161040e565b91505092915050565b6000806040838503121561049557610494610309565b5b60006104a385828601610323565b925050602083013567ffffffffffffffff8111156104c4576104c361030e565b5b6104d085828601610450565b9150509250929050565b60008115159050919050565b6104ef816104da565b82525050565b600060208201905061050a60008301846104e6565b92915050565b7f4e487b7100000000000000000000000000000000000000000000000000000000600052602160045260246000fd5b600081519050919050565b600081905092915050565b60005b83811015610573578082015181840152602081019050610558565b60008484015250505050565b600061058a8261053f565b610594818561054a565b93506105a4818560208601610555565b80840191505092915050565b60006105bc828461057f565b915081905092915050565b600082825260208201905092915050565b60006105e38261053f565b6105ed81856105c7565b93506105fd818560208601610555565b61060681610342565b840191505092915050565b6000602082019050818103600083015261062b81846105d8565b90509291505056fea2646970667358221220b692ce586940f147c58b5979b6b920f7f801cd3965601846cc1027cb4af4b06564736f6c634300081a0033","opcodes":"PUSH1 0x80 PUSH1 0x40 MSTORE CALLVALUE DUP1 ISZERO PUSH1 0xF JUMPI PUSH1 0x0 DUP1 REVERT JUMPDEST POP PUSH2 0x669 DUP1 PUSH2 0x1F PUSH1 0x0 CODECOPY PUSH1 0x0 RETURN INVALID PUSH1 0x80 PUSH1 0x40 MSTORE CALLVALUE DUP1 ISZERO PUSH2 0x10 JUMPI PUSH1 0x0 DUP1 REVERT JUMPDEST POP PUSH1 0x4 CALLDATASIZE LT PUSH2 0x41 JUMPI PUSH1 0x0 CALLDATALOAD PUSH1 0xE0 SHR DUP1 PUSH4 0x80C3FD3 EQ PUSH2 0x46 JUMPI DUP1 PUSH4 0x791CA667 EQ PUSH2 0x76 JUMPI DUP1 PUSH4 0xEB9BA00A EQ PUSH2 0xA6 JUMPI JUMPDEST PUSH1 0x0 DUP1 REVERT JUMPDEST PUSH2 0x60 PUSH1 0x4 DUP1 CALLDATASIZE SUB DUP2 ADD SWAP1 PUSH2 0x5B SWAP2 SWAP1 PUSH2 0x47E JUMP JUMPDEST PUSH2 0xD6 JUMP JUMPDEST PUSH1 0x40 MLOAD PUSH2 0x6D SWAP2 SWAP1 PUSH2 0x4F5 JUMP JUMPDEST PUSH1 0x40 MLOAD DUP1 SWAP2 SUB SWAP1 RETURN JUMPDEST PUSH2 0x90 PUSH1 0x4 DUP1 CALLDATASIZE SUB DUP2 ADD SWAP1 PUSH2 0x8B SWAP2 SWAP1 PUSH2 0x47E JUMP JUMPDEST PUSH2 0x250 JUMP JUMPDEST PUSH1 0x40 MLOAD PUSH2 0x9D SWAP2 SWAP1 PUSH2 0x4F5 JUMP JUMPDEST PUSH1 0x40 MLOAD DUP1 SWAP2 SUB SWAP1 RETURN JUMPDEST PUSH2 0xC0 PUSH1 0x4 DUP1 CALLDATASIZE SUB DUP2 ADD SWAP1 PUSH2 0xBB SWAP2 SWAP1 PUSH2 0x47E JUMP JUMPDEST PUSH2 0x295 JUMP JUMPDEST PUSH1 0x40 MLOAD PUSH2 0xCD SWAP2 SWAP1 PUSH2 0x4F5 JUMP JUMPDEST PUSH1 0x40 MLOAD DUP1 SWAP2 SUB SWAP1 RETURN JUMPDEST PUSH1 0x0 DUP1 PUSH1 0x0 DUP5 PUSH1 0x3 DUP2 GT ISZERO PUSH2 0xEE JUMPI PUSH2 0xED PUSH2 0x510 JUMP JUMPDEST JUMPDEST PUSH1 0x3 DUP2 GT ISZERO PUSH2 0x100 JUMPI PUSH2 0xFF PUSH2 0x510 JUMP JUMPDEST JUMPDEST DUP2 MSTORE PUSH1 0x20 ADD SWAP1 DUP2 MSTORE PUSH1 0x20 ADD PUSH1 0x0 KECCAK256 DUP3 PUSH1 0x40 MLOAD PUSH2 0x11C SWAP2 SWAP1 PUSH2 0x5B0 JUMP JUMPDEST SWAP1 DUP2 MSTORE PUSH1 0x20 ADD PUSH1 0x40 MLOAD DUP1 SWAP2 SUB SWAP1 KECCAK256 PUSH1 0x0 SWAP1 SLOAD SWAP1 PUSH2 0x100 EXP SWAP1 DIV PUSH1 0xFF AND ISZERO PUSH2 0x190 JUMPI DUP3 PUSH1 0x3 DUP2 GT ISZERO PUSH2 0x150 JUMPI PUSH2 0x14F PUSH2 0x510 JUMP JUMPDEST JUMPDEST PUSH32 0x57F2FBB01065CFD984D6CC338AD8F3694C6DE775A73BEBB6DFEC793D2D76A0A9 DUP4 PUSH1 0x40 MLOAD PUSH2 0x17F SWAP2 SWAP1 PUSH2 0x611 JUMP JUMPDEST PUSH1 0x40 MLOAD DUP1 SWAP2 SUB SWAP1 LOG2 PUSH1 0x0 SWAP1 POP PUSH2 0x24A JUMP JUMPDEST PUSH1 0x1 PUSH1 0x0 DUP1 DUP6 PUSH1 0x3 DUP2 GT ISZERO PUSH2 0x1A8 JUMPI PUSH2 0x1A7 PUSH2 0x510 JUMP JUMPDEST JUMPDEST PUSH1 0x3 DUP2 GT ISZERO PUSH2 0x1BA JUMPI PUSH2 0x1B9 PUSH2 0x510 JUMP JUMPDEST JUMPDEST DUP2 MSTORE PUSH1 0x20 ADD SWAP1 DUP2 MSTORE PUSH1 0x20 ADD PUSH1 0x0 KECCAK256 DUP4 PUSH1 0x40 MLOAD PUSH2 0x1D6 SWAP2 SWAP1 PUSH2 0x5B0 JUMP JUMPDEST SWAP1 DUP2 MSTORE PUSH1 0x20 ADD PUSH1 0x40 MLOAD DUP1 SWAP2 SUB SWAP1 KECCAK256 PUSH1 0x0 PUSH2 0x100 EXP DUP2 SLOAD DUP2 PUSH1 0xFF MUL NOT AND SWAP1 DUP4 ISZERO ISZERO MUL OR SWAP1 SSTORE POP DUP3 PUSH1 0x3 DUP2 GT ISZERO PUSH2 0x20E JUMPI PUSH2 0x20D PUSH2 0x510 JUMP JUMPDEST JUMPDEST PUSH32 0x48E6596EDA93B5369C44689E8B4A4FC5CF8BC689606F0F5EEA7F049310E16265 DUP4 PUSH1 0x40 MLOAD PUSH2 0x23D SWAP2 SWAP1 PUSH2 0x611 JUMP JUMPDEST PUSH1 0x40 MLOAD DUP1 SWAP2 SUB SWAP1 LOG2 PUSH1 0x1 SWAP1 POP JUMPDEST SWAP3 SWAP2 POP POP JUMP JUMPDEST PUSH1 0x0 PUSH1 0x20 MSTORE DUP2 PUSH1 0x0 MSTORE PUSH1 0x40 PUSH1 0x0 KECCAK256 DUP2 DUP1 MLOAD PUSH1 0x20 DUP2 ADD DUP3 ADD DUP1 MLOAD DUP5 DUP3 MSTORE PUSH1 0x20 DUP4 ADD PUSH1 0x20 DUP6 ADD KECCAK256 DUP2 DUP4 MSTORE DUP1 SWAP6 POP POP POP POP POP POP PUSH1 0x0 SWAP2 POP SWAP2 POP SWAP1 SLOAD SWAP1 PUSH2 0x100 EXP SWAP1 DIV PUSH1 0xFF AND DUP2 JUMP JUMPDEST PUSH1 0x0 DUP1 PUSH1 0x0 DUP5 PUSH1 0x3 DUP2 GT ISZERO PUSH2 0x2AD JUMPI PUSH2 0x2AC PUSH2 0x510 JUMP JUMPDEST JUMPDEST PUSH1 0x3 DUP2 GT ISZERO PUSH2 0x2BF JUMPI PUSH2 0x2BE PUSH2 0x510 JUMP JUMPDEST JUMPDEST DUP2 MSTORE PUSH1 0x20 ADD SWAP1 DUP2 MSTORE PUSH1 0x20 ADD PUSH1 0x0 KECCAK256 DUP3 PUSH1 0x40 MLOAD PUSH2 0x2DB SWAP2 SWAP1 PUSH2 0x5B0 JUMP JUMPDEST SWAP1 DUP2 MSTORE PUSH1 0x20 ADD PUSH1 0x40 MLOAD DUP1 SWAP2 SUB SWAP1 KECCAK256 PUSH1 0x0 SWAP1 SLOAD SWAP1 PUSH2 0x100 EXP SWAP1 DIV PUSH1 0xFF AND SWAP1 POP SWAP3 SWAP2 POP POP JUMP JUMPDEST PUSH1 0x0 PUSH1 0x40 MLOAD SWAP1 POP SWAP1 JUMP JUMPDEST PUSH1 0x0 DUP1 REVERT JUMPDEST PUSH1 0x0 DUP1 REVERT JUMPDEST PUSH1 0x4 DUP2 LT PUSH2 0x320 JUMPI PUSH1 0x0 DUP1 REVERT JUMPDEST POP JUMP JUMPDEST PUSH1 0x0 DUP2 CALLDATALOAD SWAP1 POP PUSH2 0x332 DUP2 PUSH2 0x313 JUMP JUMPDEST SWAP3 SWAP2 POP POP JUMP JUMPDEST PUSH1 0x0 DUP1 REVERT JUMPDEST PUSH1 0x0 DUP1 REVERT JUMPDEST PUSH1 0x0 PUSH1 0x1F NOT PUSH1 0x1F DUP4 ADD AND SWAP1 POP SWAP2 SWAP1 POP JUMP JUMPDEST PUSH32 0x4E487B7100000000000000000000000000000000000000000000000000000000 PUSH1 0x0 MSTORE PUSH1 0x41 PUSH1 0x4 MSTORE PUSH1 0x24 PUSH1 0x0 REVERT JUMPDEST PUSH2 0x38B DUP3 PUSH2 0x342 JUMP JUMPDEST DUP2 ADD DUP2 DUP2 LT PUSH8 0xFFFFFFFFFFFFFFFF DUP3 GT OR ISZERO PUSH2 0x3AA JUMPI PUSH2 0x3A9 PUSH2 0x353 JUMP JUMPDEST JUMPDEST DUP1 PUSH1 0x40 MSTORE POP POP POP JUMP JUMPDEST PUSH1 0x0 PUSH2 0x3BD PUSH2 0x2FF JUMP JUMPDEST SWAP1 POP PUSH2 0x3C9 DUP3 DUP3 PUSH2 0x382 JUMP JUMPDEST SWAP2 SWAP1 POP JUMP JUMPDEST PUSH1 0x0 PUSH8 0xFFFFFFFFFFFFFFFF DUP3 GT ISZERO PUSH2 0x3E9 JUMPI PUSH2 0x3E8 PUSH2 0x353 JUMP JUMPDEST JUMPDEST PUSH2 0x3F2 DUP3 PUSH2 0x342 JUMP JUMPDEST SWAP1 POP PUSH1 0x20 DUP2 ADD SWAP1 POP SWAP2 SWAP1 POP JUMP JUMPDEST DUP3 DUP2 DUP4 CALLDATACOPY PUSH1 0x0 DUP4 DUP4 ADD MSTORE POP POP POP JUMP JUMPDEST PUSH1 0x0 PUSH2 0x421 PUSH2 0x41C DUP5 PUSH2 0x3CE JUMP JUMPDEST PUSH2 0x3B3 JUMP JUMPDEST SWAP1 POP DUP3 DUP2 MSTORE PUSH1 0x20 DUP2 ADD DUP5 DUP5 DUP5 ADD GT ISZERO PUSH2 0x43D JUMPI PUSH2 0x43C PUSH2 0x33D JUMP JUMPDEST JUMPDEST PUSH2 0x448 DUP5 DUP3 DUP6 PUSH2 0x3FF JUMP JUMPDEST POP SWAP4 SWAP3 POP POP POP JUMP JUMPDEST PUSH1 0x0 DUP3 PUSH1 0x1F DUP4 ADD SLT PUSH2 0x465 JUMPI PUSH2 0x464 PUSH2 0x338 JUMP JUMPDEST JUMPDEST DUP2 CALLDATALOAD PUSH2 0x475 DUP5 DUP3 PUSH1 0x20 DUP7 ADD PUSH2 0x40E JUMP JUMPDEST SWAP2 POP POP SWAP3 SWAP2 POP POP JUMP JUMPDEST PUSH1 0x0 DUP1 PUSH1 0x40 DUP4 DUP6 SUB SLT ISZERO PUSH2 0x495 JUMPI PUSH2 0x494 PUSH2 0x309 JUMP JUMPDEST JUMPDEST PUSH1 0x0 PUSH2 0x4A3 DUP6 DUP3 DUP7 ADD PUSH2 0x323 JUMP JUMPDEST SWAP3 POP POP PUSH1 0x20 DUP4 ADD CALLDATALOAD PUSH8 0xFFFFFFFFFFFFFFFF DUP2 GT ISZERO PUSH2 0x4C4 JUMPI PUSH2 0x4C3 PUSH2 0x30E JUMP JUMPDEST JUMPDEST PUSH2 0x4D0 DUP6 DUP3 DUP7 ADD PUSH2 0x450 JUMP JUMPDEST SWAP2 POP POP SWAP3 POP SWAP3 SWAP1 POP JUMP JUMPDEST PUSH1 0x0 DUP2 ISZERO ISZERO SWAP1 POP SWAP2 SWAP1 POP JUMP JUMPDEST PUSH2 0x4EF DUP2 PUSH2 0x4DA JUMP JUMPDEST DUP3 MSTORE POP POP JUMP JUMPDEST PUSH1 0x0 PUSH1 0x20 DUP3 ADD SWAP1 POP PUSH2 0x50A PUSH1 0x0 DUP4 ADD DUP5 PUSH2 0x4E6 JUMP JUMPDEST SWAP3 SWAP2 POP POP JUMP JUMPDEST PUSH32 0x4E487B7100000000000000000000000000000000000000000000000000000000 PUSH1 0x0 MSTORE PUSH1 0x21 PUSH1 0x4 MSTORE PUSH1 0x24 PUSH1 0x0 REVERT JUMPDEST PUSH1 0x0 DUP2 MLOAD SWAP1 POP SWAP2 SWAP1 POP JUMP JUMPDEST PUSH1 0x0 DUP2 SWAP1 POP SWAP3 SWAP2 POP POP JUMP JUMPDEST PUSH1 0x0 JUMPDEST DUP4 DUP2 LT ISZERO PUSH2 0x573 JUMPI DUP1 DUP3 ADD MLOAD DUP2 DUP5 ADD MSTORE PUSH1 0x20 DUP2 ADD SWAP1 POP PUSH2 0x558 JUMP JUMPDEST PUSH1 0x0 DUP5 DUP5 ADD MSTORE POP POP POP POP JUMP JUMPDEST PUSH1 0x0 PUSH2 0x58A DUP3 PUSH2 0x53F JUMP JUMPDEST PUSH2 0x594 DUP2 DUP6 PUSH2 0x54A JUMP JUMPDEST SWAP4 POP PUSH2 0x5A4 DUP2 DUP6 PUSH1 0x20 DUP7 ADD PUSH2 0x555 JUMP JUMPDEST DUP1 DUP5 ADD SWAP2 POP POP SWAP3 SWAP2 POP POP JUMP JUMPDEST PUSH1 0x0 PUSH2 0x5BC DUP3 DUP5 PUSH2 0x57F JUMP JUMPDEST SWAP2 POP DUP2 SWAP1 POP SWAP3 SWAP2 POP POP JUMP JUMPDEST PUSH1 0x0 DUP3 DUP3 MSTORE PUSH1 0x20 DUP3 ADD SWAP1 POP SWAP3 SWAP2 POP POP JUMP JUMPDEST PUSH1 0x0 PUSH2 0x5E3 DUP3 PUSH2 0x53F JUMP JUMPDEST PUSH2 0x5ED DUP2 DUP6 PUSH2 0x5C7 JUMP JUMPDEST SWAP4 POP PUSH2 0x5FD DUP2 DUP6 PUSH1 0x20 DUP7 ADD PUSH2 0x555 JUMP JUMPDEST PUSH2 0x606 DUP2 PUSH2 0x342 JUMP JUMPDEST DUP5 ADD SWAP2 POP POP SWAP3 SWAP2 POP POP JUMP JUMPDEST PUSH1 0x0 PUSH1 0x20 DUP3 ADD SWAP1 POP DUP2 DUP2 SUB PUSH1 0x0 DUP4 ADD MSTORE PUSH2 0x62B DUP2 DUP5 PUSH2 0x5D8 JUMP JUMPDEST SWAP1 POP SWAP3 SWAP2 POP POP JUMP INVALID LOG2 PUSH5 0x6970667358 0x22 SLT KECCAK256 0xB6 SWAP3 0xCE PC PUSH10 0x40F147C58B5979B6B920 0xF7 0xF8 ADD 0xCD CODECOPY PUSH6 0x601846CC1027 0xCB BLOBBASEFEE DELEGATECALL 0xB0 PUSH6 0x64736F6C6343 STOP ADDMOD BYTE STOP CALLER "},"methodIdentifiers":{"checkAndRegisterClaim(uint8,string)":"080c3fd3","claimedPolicies(uint8,string)":"791ca667","isClaimed(uint8,string)":"eb9ba00a"}}}}}