{
  "_format": "hh-sol-artifact-1",
  "contractName": "LifeInsuranceClaim",
  "sourceName": "contracts/LifeClaim.sol",
  "abi": [
    {
      "inputs": [
        {
          "internalType": "address",
          "name": "_globalClaimTracker",
          "type": "address"
        }
      ],
      "stateMutability": "nonpayable",
      "type": "constructor"
    },
    {
      "anonymous": false,
      "inputs": [
        {
          "indexed": true,
          "internalType": "uint256",
          "name": "claimId",
          "type": "uint256"
        },
        {
          "indexed": true,
          "internalType": "string",
          "name": "policyNumber",
          "type": "string"
        },
        {
          "indexed": false,
          "internalType": "string",
          "name": "policyHolderName",
          "type": "string"
        }
      ],
      "name": "LifeClaimFiled",
      "type": "event"
    },
    {
      "inputs": [],
      "name": "claimCount",
      "outputs": [
        {
          "internalType": "uint256",
          "name": "",
          "type": "uint256"
        }
      ],
      "stateMutability": "view",
      "type": "function"
    },
    {
      "inputs": [
        {
          "internalType": "uint256",
          "name": "",
          "type": "uint256"
        }
      ],
      "name": "claims",
      "outputs": [
        {
          "components": [
            {
              "internalType": "string",
              "name": "policyNumber",
              "type": "string"
            },
            {
              "internalType": "string",
              "name": "policyHolderName",
              "type": "string"
            },
            {
              "internalType": "string",
              "name": "companyName",
              "type": "string"
            },
            {
              "internalType": "string",
              "name": "dob",
              "type": "string"
            },
            {
              "internalType": "string",
              "name": "gender",
              "type": "string"
            },
            {
              "internalType": "uint256",
              "name": "ageonDeath",
              "type": "uint256"
            },
            {
              "internalType": "string",
              "name": "dateofDeath",
              "type": "string"
            },
            {
              "internalType": "string",
              "name": "timeOfDeath",
              "type": "string"
            },
            {
              "internalType": "string",
              "name": "causeOfDeath",
              "type": "string"
            },
            {
              "internalType": "string",
              "name": "placeOfDeath",
              "type": "string"
            }
          ],
          "internalType": "struct LifeInsuranceClaim.PolicyDetails",
          "name": "policyDetails",
          "type": "tuple"
        },
        {
          "components": [
            {
              "internalType": "string",
              "name": "nomineeName",
              "type": "string"
            },
            {
              "internalType": "string",
              "name": "nomineedob",
              "type": "string"
            },
            {
              "internalType": "string",
              "name": "nomineegender",
              "type": "string"
            },
            {
              "internalType": "string",
              "name": "relationshipWithDeceased",
              "type": "string"
            },
            {
              "internalType": "string",
              "name": "currentAddress",
              "type": "string"
            },
            {
              "internalType": "string",
              "name": "phonenumber",
              "type": "string"
            }
          ],
          "internalType": "struct LifeInsuranceClaim.NomineeDetails",
          "name": "nomineeDetails",
          "type": "tuple"
        },
        {
          "components": [
            {
              "internalType": "string",
              "name": "natureofIllness",
              "type": "string"
            },
            {
              "internalType": "string",
              "name": "dateofDiagnosis",
              "type": "string"
            },
            {
              "internalType": "string",
              "name": "treatmentTaken",
              "type": "string"
            },
            {
              "internalType": "string",
              "name": "firAttachment",
              "type": "string"
            },
            {
              "internalType": "string",
              "name": "doctorDetails",
              "type": "string"
            },
            {
              "internalType": "string",
              "name": "hospitalName",
              "type": "string"
            },
            {
              "internalType": "string",
              "name": "hospitalAddress",
              "type": "string"
            },
            {
              "internalType": "string",
              "name": "hasOtherPolicy",
              "type": "string"
            }
          ],
          "internalType": "struct LifeInsuranceClaim.MedicalDetails",
          "name": "medicalDetails",
          "type": "tuple"
        },
        {
          "components": [
            {
              "internalType": "string",
              "name": "accountNumber",
              "type": "string"
            },
            {
              "internalType": "string",
              "name": "bankName",
              "type": "string"
            },
            {
              "internalType": "string",
              "name": "panNumber",
              "type": "string"
            },
            {
              "internalType": "string",
              "name": "ifscNumber",
              "type": "string"
            }
          ],
          "internalType": "struct LifeInsuranceClaim.BankDetails",
          "name": "bankDetails",
          "type": "tuple"
        }
      ],
      "stateMutability": "view",
      "type": "function"
    },
    {
      "inputs": [
        {
          "components": [
            {
              "internalType": "string",
              "name": "policyNumber",
              "type": "string"
            },
            {
              "internalType": "string",
              "name": "policyHolderName",
              "type": "string"
            },
            {
              "internalType": "string",
              "name": "companyName",
              "type": "string"
            },
            {
              "internalType": "string",
              "name": "dob",
              "type": "string"
            },
            {
              "internalType": "string",
              "name": "gender",
              "type": "string"
            },
            {
              "internalType": "uint256",
              "name": "ageonDeath",
              "type": "uint256"
            },
            {
              "internalType": "string",
              "name": "dateofDeath",
              "type": "string"
            },
            {
              "internalType": "string",
              "name": "timeOfDeath",
              "type": "string"
            },
            {
              "internalType": "string",
              "name": "causeOfDeath",
              "type": "string"
            },
            {
              "internalType": "string",
              "name": "placeOfDeath",
              "type": "string"
            }
          ],
          "internalType": "struct LifeInsuranceClaim.PolicyDetails",
          "name": "_policyDetails",
          "type": "tuple"
        },
        {
          "components": [
            {
              "internalType": "string",
              "name": "nomineeName",
              "type": "string"
            },
            {
              "internalType": "string",
              "name": "nomineedob",
              "type": "string"
            },
            {
              "internalType": "string",
              "name": "nomineegender",
              "type": "string"
            },
            {
              "internalType": "string",
              "name": "relationshipWithDeceased",
              "type": "string"
            },
            {
              "internalType": "string",
              "name": "currentAddress",
              "type": "string"
            },
            {
              "internalType": "string",
              "name": "phonenumber",
              "type": "string"
            }
          ],
          "internalType": "struct LifeInsuranceClaim.NomineeDetails",
          "name": "_nomineeDetails",
          "type": "tuple"
        },
        {
          "components": [
            {
              "internalType": "string",
              "name": "natureofIllness",
              "type": "string"
            },
            {
              "internalType": "string",
              "name": "dateofDiagnosis",
              "type": "string"
            },
            {
              "internalType": "string",
              "name": "treatmentTaken",
              "type": "string"
            },
            {
              "internalType": "string",
              "name": "firAttachment",
              "type": "string"
            },
            {
              "internalType": "string",
              "name": "doctorDetails",
              "type": "string"
            },
            {
              "internalType": "string",
              "name": "hospitalName",
              "type": "string"
            },
            {
              "internalType": "string",
              "name": "hospitalAddress",
              "type": "string"
            },
            {
              "internalType": "string",
              "name": "hasOtherPolicy",
              "type": "string"
            }
          ],
          "internalType": "struct LifeInsuranceClaim.MedicalDetails",
          "name": "_medicalDetails",
          "type": "tuple"
        },
        {
          "components": [
            {
              "internalType": "string",
              "name": "accountNumber",
              "type": "string"
            },
            {
              "internalType": "string",
              "name": "bankName",
              "type": "string"
            },
            {
              "internalType": "string",
              "name": "panNumber",
              "type": "string"
            },
            {
              "internalType": "string",
              "name": "ifscNumber",
              "type": "string"
            }
          ],
          "internalType": "struct LifeInsuranceClaim.BankDetails",
          "name": "_bankDetails",
          "type": "tuple"
        }
      ],
      "name": "fileLifeClaim",
      "outputs": [],
      "stateMutability": "nonpayable",
      "type": "function"
    },
    {
      "inputs": [],
      "name": "globalClaimTracker",
      "outputs": [
        {
          "internalType": "contract GlobalClaimTracker",
          "name": "",
          "type": "address"
        }
      ],
      "stateMutability": "view",
      "type": "function"
    },
    {
      "inputs": [
        {
          "internalType": "string",
          "name": "policyNumber",
          "type": "string"
        }
      ],
      "name": "hasClaimed",
      "outputs": [
        {
          "internalType": "bool",
          "name": "",
          "type": "bool"
        }
      ],
      "stateMutability": "view",
      "type": "function"
    }
  ],
  "bytecode": "0x608060405234801561001057600080fd5b50604051612a44380380612a44833981810160405281019061003291906100db565b806000806101000a81548173ffffffffffffffffffffffffffffffffffffffff021916908373ffffffffffffffffffffffffffffffffffffffff16021790555050610108565b600080fd5b600073ffffffffffffffffffffffffffffffffffffffff82169050919050565b60006100a88261007d565b9050919050565b6100b88161009d565b81146100c357600080fd5b50565b6000815190506100d5816100af565b92915050565b6000602082840312156100f1576100f0610078565b5b60006100ff848285016100c6565b91505092915050565b61292d806101176000396000f3fe608060405234801561001057600080fd5b50600436106100575760003560e01c80630919b65d1461005c578063363454ee146100785780638da4d3c9146100a8578063a888c2cd146100c6578063c796bbf4146100f9575b600080fd5b61007660048036038101906100719190611d34565b610117565b005b610092600480360381019061008d9190611e0b565b610533565b60405161009f9190611e6f565b60405180910390f35b6100b06105da565b6040516100bd9190611e99565b60405180910390f35b6100e060048036038101906100db9190611eb4565b6105e0565b6040516100f09493929190612286565b60405180910390f35b6101016115aa565b60405161010e9190612366565b60405180910390f35b60008060009054906101000a900473ffffffffffffffffffffffffffffffffffffffff1673ffffffffffffffffffffffffffffffffffffffff1663080c3fd3600187600001516040518363ffffffff1660e01b815260040161017a929190612442565b6020604051808303816000875af1158015610199573d6000803e3d6000fd5b505050506040513d601f19601f820116820180604052508101906101bd919061249e565b9050806101ff576040517f08c379a00000000000000000000000000000000000000000000000000000000081526004016101f690612517565b60405180910390fd5b6040518060800160405280868152602001858152602001848152602001838152506001600060026000815461023390612566565b9190508190558152602001908152602001600020600082015181600001600082015181600001908161026591906127b0565b50602082015181600101908161027b91906127b0565b50604082015181600201908161029191906127b0565b5060608201518160030190816102a791906127b0565b5060808201518160040190816102bd91906127b0565b5060a0820151816005015560c08201518160060190816102dd91906127b0565b5060e08201518160070190816102f391906127b0565b5061010082015181600801908161030a91906127b0565b5061012082015181600901908161032191906127b0565b505050602082015181600a01600082015181600001908161034291906127b0565b50602082015181600101908161035891906127b0565b50604082015181600201908161036e91906127b0565b50606082015181600301908161038491906127b0565b50608082015181600401908161039a91906127b0565b5060a08201518160050190816103b091906127b0565b50505060408201518160100160008201518160000190816103d191906127b0565b5060208201518160010190816103e791906127b0565b5060408201518160020190816103fd91906127b0565b50606082015181600301908161041391906127b0565b50608082015181600401908161042991906127b0565b5060a082015181600501908161043f91906127b0565b5060c082015181600601908161045591906127b0565b5060e082015181600701908161046b91906127b0565b505050606082015181601801600082015181600001908161048c91906127b0565b5060208201518160010190816104a291906127b0565b5060408201518160020190816104b891906127b0565b5060608201518160030190816104ce91906127b0565b50505090505084600001516040516104e691906128be565b60405180910390206002547fdcc2dbe70f4f072a9d31c1b311117b823562215abc0a3c45fd10b630cbc40590876020015160405161052491906128d5565b60405180910390a35050505050565b60008060009054906101000a900473ffffffffffffffffffffffffffffffffffffffff1673ffffffffffffffffffffffffffffffffffffffff1663791ca6676001846040518363ffffffff1660e01b8152600401610592929190612442565b602060405180830381865afa1580156105af573d6000803e3d6000fd5b505050506040513d601f19601f820116820180604052508101906105d3919061249e565b9050919050565b60025481565b60016020528060005260406000206000915090508060000160405180610140016040529081600082018054610614906125dd565b80601f0160208091040260200160405190810160405280929190818152602001828054610640906125dd565b801561068d5780601f106106625761010080835404028352916020019161068d565b820191906000526020600020905b81548152906001019060200180831161067057829003601f168201915b505050505081526020016001820180546106a6906125dd565b80601f01602080910402602001604051908101604052809291908181526020018280546106d2906125dd565b801561071f5780601f106106f45761010080835404028352916020019161071f565b820191906000526020600020905b81548152906001019060200180831161070257829003601f168201915b50505050508152602001600282018054610738906125dd565b80601f0160208091040260200160405190810160405280929190818152602001828054610764906125dd565b80156107b15780601f10610786576101008083540402835291602001916107b1565b820191906000526020600020905b81548152906001019060200180831161079457829003601f168201915b505050505081526020016003820180546107ca906125dd565b80601f01602080910402602001604051908101604052809291908181526020018280546107f6906125dd565b80156108435780601f1061081857610100808354040283529160200191610843565b820191906000526020600020905b81548152906001019060200180831161082657829003601f168201915b5050505050815260200160048201805461085c906125dd565b80601f0160208091040260200160405190810160405280929190818152602001828054610888906125dd565b80156108d55780601f106108aa576101008083540402835291602001916108d5565b820191906000526020600020905b8154815290600101906020018083116108b857829003601f168201915b50505050508152602001600582015481526020016006820180546108f8906125dd565b80601f0160208091040260200160405190810160405280929190818152602001828054610924906125dd565b80156109715780601f1061094657610100808354040283529160200191610971565b820191906000526020600020905b81548152906001019060200180831161095457829003601f168201915b5050505050815260200160078201805461098a906125dd565b80601f01602080910402602001604051908101604052809291908181526020018280546109b6906125dd565b8015610a035780601f106109d857610100808354040283529160200191610a03565b820191906000526020600020905b8154815290600101906020018083116109e657829003601f168201915b50505050508152602001600882018054610a1c906125dd565b80601f0160208091040260200160405190810160405280929190818152602001828054610a48906125dd565b8015610a955780601f10610a6a57610100808354040283529160200191610a95565b820191906000526020600020905b815481529060010190602001808311610a7857829003601f168201915b50505050508152602001600982018054610aae906125dd565b80601f0160208091040260200160405190810160405280929190818152602001828054610ada906125dd565b8015610b275780601f10610afc57610100808354040283529160200191610b27565b820191906000526020600020905b815481529060010190602001808311610b0a57829003601f168201915b5050505050815250509080600a016040518060c0016040529081600082018054610b50906125dd565b80601f0160208091040260200160405190810160405280929190818152602001828054610b7c906125dd565b8015610bc95780601f10610b9e57610100808354040283529160200191610bc9565b820191906000526020600020905b815481529060010190602001808311610bac57829003601f168201915b50505050508152602001600182018054610be2906125dd565b80601f0160208091040260200160405190810160405280929190818152602001828054610c0e906125dd565b8015610c5b5780601f10610c3057610100808354040283529160200191610c5b565b820191906000526020600020905b815481529060010190602001808311610c3e57829003601f168201915b50505050508152602001600282018054610c74906125dd565b80601f0160208091040260200160405190810160405280929190818152602001828054610ca0906125dd565b8015610ced5780601f10610cc257610100808354040283529160200191610ced565b820191906000526020600020905b815481529060010190602001808311610cd057829003601f168201915b50505050508152602001600382018054610d06906125dd565b80601f0160208091040260200160405190810160405280929190818152602001828054610d32906125dd565b8015610d7f5780601f10610d5457610100808354040283529160200191610d7f565b820191906000526020600020905b815481529060010190602001808311610d6257829003601f168201915b50505050508152602001600482018054610d98906125dd565b80601f0160208091040260200160405190810160405280929190818152602001828054610dc4906125dd565b8015610e115780601f10610de657610100808354040283529160200191610e11565b820191906000526020600020905b815481529060010190602001808311610df457829003601f168201915b50505050508152602001600582018054610e2a906125dd565b80601f0160208091040260200160405190810160405280929190818152602001828054610e56906125dd565b8015610ea35780601f10610e7857610100808354040283529160200191610ea3565b820191906000526020600020905b815481529060010190602001808311610e8657829003601f168201915b505050505081525050908060100160405180610100016040529081600082018054610ecd906125dd565b80601f0160208091040260200160405190810160405280929190818152602001828054610ef9906125dd565b8015610f465780601f10610f1b57610100808354040283529160200191610f46565b820191906000526020600020905b815481529060010190602001808311610f2957829003601f168201915b50505050508152602001600182018054610f5f906125dd565b80601f0160208091040260200160405190810160405280929190818152602001828054610f8b906125dd565b8015610fd85780601f10610fad57610100808354040283529160200191610fd8565b820191906000526020600020905b815481529060010190602001808311610fbb57829003601f168201915b50505050508152602001600282018054610ff1906125dd565b80601f016020809104026020016040519081016040528092919081815260200182805461101d906125dd565b801561106a5780601f1061103f5761010080835404028352916020019161106a565b820191906000526020600020905b81548152906001019060200180831161104d57829003601f168201915b50505050508152602001600382018054611083906125dd565b80601f01602080910402602001604051908101604052809291908181526020018280546110af906125dd565b80156110fc5780601f106110d1576101008083540402835291602001916110fc565b820191906000526020600020905b8154815290600101906020018083116110df57829003601f168201915b50505050508152602001600482018054611115906125dd565b80601f0160208091040260200160405190810160405280929190818152602001828054611141906125dd565b801561118e5780601f106111635761010080835404028352916020019161118e565b820191906000526020600020905b81548152906001019060200180831161117157829003601f168201915b505050505081526020016005820180546111a7906125dd565b80601f01602080910402602001604051908101604052809291908181526020018280546111d3906125dd565b80156112205780601f106111f557610100808354040283529160200191611220565b820191906000526020600020905b81548152906001019060200180831161120357829003601f168201915b50505050508152602001600682018054611239906125dd565b80601f0160208091040260200160405190810160405280929190818152602001828054611265906125dd565b80156112b25780601f10611287576101008083540402835291602001916112b2565b820191906000526020600020905b81548152906001019060200180831161129557829003601f168201915b505050505081526020016007820180546112cb906125dd565b80601f01602080910402602001604051908101604052809291908181526020018280546112f7906125dd565b80156113445780601f1061131957610100808354040283529160200191611344565b820191906000526020600020905b81548152906001019060200180831161132757829003601f168201915b505050505081525050908060180160405180608001604052908160008201805461136d906125dd565b80601f0160208091040260200160405190810160405280929190818152602001828054611399906125dd565b80156113e65780601f106113bb576101008083540402835291602001916113e6565b820191906000526020600020905b8154815290600101906020018083116113c957829003601f168201915b505050505081526020016001820180546113ff906125dd565b80601f016020809104026020016040519081016040528092919081815260200182805461142b906125dd565b80156114785780601f1061144d57610100808354040283529160200191611478565b820191906000526020600020905b81548152906001019060200180831161145b57829003601f168201915b50505050508152602001600282018054611491906125dd565b80601f01602080910402602001604051908101604052809291908181526020018280546114bd906125dd565b801561150a5780601f106114df5761010080835404028352916020019161150a565b820191906000526020600020905b8154815290600101906020018083116114ed57829003601f168201915b50505050508152602001600382018054611523906125dd565b80601f016020809104026020016040519081016040528092919081815260200182805461154f906125dd565b801561159c5780601f106115715761010080835404028352916020019161159c565b820191906000526020600020905b81548152906001019060200180831161157f57829003601f168201915b505050505081525050905084565b60008054906101000a900473ffffffffffffffffffffffffffffffffffffffff1681565b6000604051905090565b600080fd5b600080fd5b600080fd5b6000601f19601f8301169050919050565b7f4e487b7100000000000000000000000000000000000000000000000000000000600052604160045260246000fd5b611630826115e7565b810181811067ffffffffffffffff8211171561164f5761164e6115f8565b5b80604052505050565b60006116626115ce565b905061166e8282611627565b919050565b600080fd5b600080fd5b600080fd5b600067ffffffffffffffff82111561169d5761169c6115f8565b5b6116a6826115e7565b9050602081019050919050565b82818337600083830152505050565b60006116d56116d084611682565b611658565b9050828152602081018484840111156116f1576116f061167d565b5b6116fc8482856116b3565b509392505050565b600082601f83011261171957611718611678565b5b81356117298482602086016116c2565b91505092915050565b6000819050919050565b61174581611732565b811461175057600080fd5b50565b6000813590506117628161173c565b92915050565b6000610140828403121561177f5761177e6115e2565b5b61178a610140611658565b9050600082013567ffffffffffffffff8111156117aa576117a9611673565b5b6117b684828501611704565b600083015250602082013567ffffffffffffffff8111156117da576117d9611673565b5b6117e684828501611704565b602083015250604082013567ffffffffffffffff81111561180a57611809611673565b5b61181684828501611704565b604083015250606082013567ffffffffffffffff81111561183a57611839611673565b5b61184684828501611704565b606083015250608082013567ffffffffffffffff81111561186a57611869611673565b5b61187684828501611704565b60808301525060a061188a84828501611753565b60a08301525060c082013567ffffffffffffffff8111156118ae576118ad611673565b5b6118ba84828501611704565b60c08301525060e082013567ffffffffffffffff8111156118de576118dd611673565b5b6118ea84828501611704565b60e08301525061010082013567ffffffffffffffff81111561190f5761190e611673565b5b61191b84828501611704565b6101008301525061012082013567ffffffffffffffff81111561194157611940611673565b5b61194d84828501611704565b6101208301525092915050565b600060c082840312156119705761196f6115e2565b5b61197a60c0611658565b9050600082013567ffffffffffffffff81111561199a57611999611673565b5b6119a684828501611704565b600083015250602082013567ffffffffffffffff8111156119ca576119c9611673565b5b6119d684828501611704565b602083015250604082013567ffffffffffffffff8111156119fa576119f9611673565b5b611a0684828501611704565b604083015250606082013567ffffffffffffffff811115611a2a57611a29611673565b5b611a3684828501611704565b606083015250608082013567ffffffffffffffff811115611a5a57611a59611673565b5b611a6684828501611704565b60808301525060a082013567ffffffffffffffff811115611a8a57611a89611673565b5b611a9684828501611704565b60a08301525092915050565b60006101008284031215611ab957611ab86115e2565b5b611ac4610100611658565b9050600082013567ffffffffffffffff811115611ae457611ae3611673565b5b611af084828501611704565b600083015250602082013567ffffffffffffffff811115611b1457611b13611673565b5b611b2084828501611704565b602083015250604082013567ffffffffffffffff811115611b4457611b43611673565b5b611b5084828501611704565b604083015250606082013567ffffffffffffffff811115611b7457611b73611673565b5b611b8084828501611704565b606083015250608082013567ffffffffffffffff811115611ba457611ba3611673565b5b611bb084828501611704565b60808301525060a082013567ffffffffffffffff811115611bd457611bd3611673565b5b611be084828501611704565b60a08301525060c082013567ffffffffffffffff811115611c0457611c03611673565b5b611c1084828501611704565b60c08301525060e082013567ffffffffffffffff811115611c3457611c33611673565b5b611c4084828501611704565b60e08301525092915050565b600060808284031215611c6257611c616115e2565b5b611c6c6080611658565b9050600082013567ffffffffffffffff811115611c8c57611c8b611673565b5b611c9884828501611704565b600083015250602082013567ffffffffffffffff811115611cbc57611cbb611673565b5b611cc884828501611704565b602083015250604082013567ffffffffffffffff811115611cec57611ceb611673565b5b611cf884828501611704565b604083015250606082013567ffffffffffffffff811115611d1c57611d1b611673565b5b611d2884828501611704565b60608301525092915050565b60008060008060808587031215611d4e57611d4d6115d8565b5b600085013567ffffffffffffffff811115611d6c57611d6b6115dd565b5b611d7887828801611768565b945050602085013567ffffffffffffffff811115611d9957611d986115dd565b5b611da58782880161195a565b935050604085013567ffffffffffffffff811115611dc657611dc56115dd565b5b611dd287828801611aa2565b925050606085013567ffffffffffffffff811115611df357611df26115dd565b5b611dff87828801611c4c565b91505092959194509250565b600060208284031215611e2157611e206115d8565b5b600082013567ffffffffffffffff811115611e3f57611e3e6115dd565b5b611e4b84828501611704565b91505092915050565b60008115159050919050565b611e6981611e54565b82525050565b6000602082019050611e846000830184611e60565b92915050565b611e9381611732565b82525050565b6000602082019050611eae6000830184611e8a565b92915050565b600060208284031215611eca57611ec96115d8565b5b6000611ed884828501611753565b91505092915050565b600081519050919050565b600082825260208201905092915050565b60005b83811015611f1b578082015181840152602081019050611f00565b60008484015250505050565b6000611f3282611ee1565b611f3c8185611eec565b9350611f4c818560208601611efd565b611f55816115e7565b840191505092915050565b611f6981611732565b82525050565b6000610140830160008301518482036000860152611f8d8282611f27565b91505060208301518482036020860152611fa78282611f27565b91505060408301518482036040860152611fc18282611f27565b91505060608301518482036060860152611fdb8282611f27565b91505060808301518482036080860152611ff58282611f27565b91505060a083015161200a60a0860182611f60565b5060c083015184820360c08601526120228282611f27565b91505060e083015184820360e086015261203c8282611f27565b9150506101008301518482036101008601526120588282611f27565b9150506101208301518482036101208601526120748282611f27565b9150508091505092915050565b600060c083016000830151848203600086015261209e8282611f27565b915050602083015184820360208601526120b88282611f27565b915050604083015184820360408601526120d28282611f27565b915050606083015184820360608601526120ec8282611f27565b915050608083015184820360808601526121068282611f27565b91505060a083015184820360a08601526121208282611f27565b9150508091505092915050565b600061010083016000830151848203600086015261214b8282611f27565b915050602083015184820360208601526121658282611f27565b9150506040830151848203604086015261217f8282611f27565b915050606083015184820360608601526121998282611f27565b915050608083015184820360808601526121b38282611f27565b91505060a083015184820360a08601526121cd8282611f27565b91505060c083015184820360c08601526121e78282611f27565b91505060e083015184820360e08601526122018282611f27565b9150508091505092915050565b6000608083016000830151848203600086015261222b8282611f27565b915050602083015184820360208601526122458282611f27565b9150506040830151848203604086015261225f8282611f27565b915050606083015184820360608601526122798282611f27565b9150508091505092915050565b600060808201905081810360008301526122a08187611f6f565b905081810360208301526122b48186612081565b905081810360408301526122c8818561212d565b905081810360608301526122dc818461220e565b905095945050505050565b600073ffffffffffffffffffffffffffffffffffffffff82169050919050565b6000819050919050565b600061232c612327612322846122e7565b612307565b6122e7565b9050919050565b600061233e82612311565b9050919050565b600061235082612333565b9050919050565b61236081612345565b82525050565b600060208201905061237b6000830184612357565b92915050565b7f4e487b7100000000000000000000000000000000000000000000000000000000600052602160045260246000fd5b600481106123c1576123c0612381565b5b50565b60008190506123d2826123b0565b919050565b60006123e2826123c4565b9050919050565b6123f2816123d7565b82525050565b600082825260208201905092915050565b600061241482611ee1565b61241e81856123f8565b935061242e818560208601611efd565b612437816115e7565b840191505092915050565b600060408201905061245760008301856123e9565b81810360208301526124698184612409565b90509392505050565b61247b81611e54565b811461248657600080fd5b50565b60008151905061249881612472565b92915050565b6000602082840312156124b4576124b36115d8565b5b60006124c284828501612489565b91505092915050565b7f446f75626c652064697070696e67206465746563746564210000000000000000600082015250565b60006125016018836123f8565b915061250c826124cb565b602082019050919050565b60006020820190508181036000830152612530816124f4565b9050919050565b7f4e487b7100000000000000000000000000000000000000000000000000000000600052601160045260246000fd5b600061257182611732565b91507fffffffffffffffffffffffffffffffffffffffffffffffffffffffffffffffff82036125a3576125a2612537565b5b600182019050919050565b7f4e487b7100000000000000000000000000000000000000000000000000000000600052602260045260246000fd5b600060028204905060018216806125f557607f821691505b602082108103612608576126076125ae565b5b50919050565b60008190508160005260206000209050919050565b60006020601f8301049050919050565b600082821b905092915050565b6000600883026126707fffffffffffffffffffffffffffffffffffffffffffffffffffffffffffffffff82612633565b61267a8683612633565b95508019841693508086168417925050509392505050565b60006126ad6126a86126a384611732565b612307565b611732565b9050919050565b6000819050919050565b6126c783612692565b6126db6126d3826126b4565b848454612640565b825550505050565b600090565b6126f06126e3565b6126fb8184846126be565b505050565b5b8181101561271f576127146000826126e8565b600181019050612701565b5050565b601f821115612764576127358161260e565b61273e84612623565b8101602085101561274d578190505b61276161275985612623565b830182612700565b50505b505050565b600082821c905092915050565b600061278760001984600802612769565b1980831691505092915050565b60006127a08383612776565b9150826002028217905092915050565b6127b982611ee1565b67ffffffffffffffff8111156127d2576127d16115f8565b5b6127dc82546125dd565b6127e7828285612723565b600060209050601f83116001811461281a5760008415612808578287015190505b6128128582612794565b86555061287a565b601f1984166128288661260e565b60005b828110156128505784890151825560018201915060208501945060208101905061282b565b8683101561286d5784890151612869601f891682612776565b8355505b6001600288020188555050505b505050505050565b600081905092915050565b600061289882611ee1565b6128a28185612882565b93506128b2818560208601611efd565b80840191505092915050565b60006128ca828461288d565b915081905092915050565b600060208201905081810360008301526128ef8184612409565b90509291505056fea26469706673582212201111180f430d1fa3d13751d1a4e404249d5143f25eb6789e8a6bae9bf0bacae364736f6c634300081a0033",
  "linkReferences": {},
  "deployedLinkReferences": {}
}