{
  "_format": "hh-sol-artifact-1",
  "contractName": "GlobalClaimTracker",
  "sourceName": "contracts/GlobalClaimTracker.sol",
  "abi": [
    {
      "anonymous": false,
      "inputs": [
        {
          "indexed": true,
          "internalType": "uint256",
          "name": "claimType",
          "type": "uint256"
        },
        {
          "indexed": false,
          "internalType": "string",
          "name": "policyNumber",
          "type": "string"
        }
      ],
      "name": "ClaimDenied",
      "type": "event"
    },
    {
      "anonymous": false,
      "inputs": [
        {
          "indexed": true,
          "internalType": "uint256",
          "name": "claimType",
          "type": "uint256"
        },
        {
          "indexed": false,
          "internalType": "string",
          "name": "policyNumber",
          "type": "string"
        }
      ],
      "name": "ClaimRegistered",
      "type": "event"
    },
    {
      "inputs": [
        {
          "internalType": "enum GlobalClaimTracker.ClaimType",
          "name": "claimType",
          "type": "uint8"
        },
        {
          "internalType": "string",
          "name": "policyNumber",
          "type": "string"
        }
      ],
      "name": "checkAndRegisterClaim",
      "outputs": [
        {
          "internalType": "bool",
          "name": "",
          "type": "bool"
        }
      ],
      "stateMutability": "nonpayable",
      "type": "function"
    },
    {
      "inputs": [
        {
          "internalType": "enum GlobalClaimTracker.ClaimType",
          "name": "",
          "type": "uint8"
        },
        {
          "internalType": "string",
          "name": "",
          "type": "string"
        }
      ],
      "name": "claimedPolicies",
      "outputs": [
        {
          "internalType": "bool",
          "name": "",
          "type": "bool"
        }
      ],
      "stateMutability": "view",
      "type": "function"
    },
    {
      "inputs": [
        {
          "internalType": "enum GlobalClaimTracker.ClaimType",
          "name": "claimType",
          "type": "uint8"
        },
        {
          "internalType": "string",
          "name": "policyNumber",
          "type": "string"
        }
      ],
      "name": "isClaimed",
      "outputs": [
        {
          "internalType": "bool",
          "name": "",
          "type": "bool"
        }
      ],
      "stateMutability": "view",
      "type": "function"
    }
  ],
  "bytecode": "0x6080604052348015600f57600080fd5b506106698061001f6000396000f3fe608060405234801561001057600080fd5b50600436106100415760003560e01c8063080c3fd314610046578063791ca66714610076578063eb9ba00a146100a6575b600080fd5b610060600480360381019061005b919061047e565b6100d6565b60405161006d91906104f5565b60405180910390f35b610090600480360381019061008b919061047e565b610250565b60405161009d91906104f5565b60405180910390f35b6100c060048036038101906100bb919061047e565b610295565b6040516100cd91906104f5565b60405180910390f35b60008060008460038111156100ee576100ed610510565b5b6003811115610100576100ff610510565b5b81526020019081526020016000208260405161011c91906105b0565b908152602001604051809103902060009054906101000a900460ff1615610190578260038111156101505761014f610510565b5b7f57f2fbb01065cfd984d6cc338ad8f3694c6de775a73bebb6dfec793d2d76a0a98360405161017f9190610611565b60405180910390a26000905061024a565b60016000808560038111156101a8576101a7610510565b5b60038111156101ba576101b9610510565b5b8152602001908152602001600020836040516101d691906105b0565b908152602001604051809103902060006101000a81548160ff02191690831515021790555082600381111561020e5761020d610510565b5b7f48e6596eda93b5369c44689e8b4a4fc5cf8bc689606f0f5eea7f049310e162658360405161023d9190610611565b60405180910390a2600190505b92915050565b6000602052816000526040600020818051602081018201805184825260208301602085012081835280955050505050506000915091509054906101000a900460ff1681565b60008060008460038111156102ad576102ac610510565b5b60038111156102bf576102be610510565b5b8152602001908152602001600020826040516102db91906105b0565b908152602001604051809103902060009054906101000a900460ff16905092915050565b6000604051905090565b600080fd5b600080fd5b6004811061032057600080fd5b50565b60008135905061033281610313565b92915050565b600080fd5b600080fd5b6000601f19601f8301169050919050565b7f4e487b7100000000000000000000000000000000000000000000000000000000600052604160045260246000fd5b61038b82610342565b810181811067ffffffffffffffff821117156103aa576103a9610353565b5b80604052505050565b60006103bd6102ff565b90506103c98282610382565b919050565b600067ffffffffffffffff8211156103e9576103e8610353565b5b6103f282610342565b9050602081019050919050565b82818337600083830152505050565b600061042161041c846103ce565b6103b3565b90508281526020810184848401111561043d5761043c61033d565b5b6104488482856103ff565b509392505050565b600082601f83011261046557610464610338565b5b813561047584826020860161040e565b91505092915050565b6000806040838503121561049557610494610309565b5b60006104a385828601610323565b925050602083013567ffffffffffffffff8111156104c4576104c361030e565b5b6104d085828601610450565b9150509250929050565b60008115159050919050565b6104ef816104da565b82525050565b600060208201905061050a60008301846104e6565b92915050565b7f4e487b7100000000000000000000000000000000000000000000000000000000600052602160045260246000fd5b600081519050919050565b600081905092915050565b60005b83811015610573578082015181840152602081019050610558565b60008484015250505050565b600061058a8261053f565b610594818561054a565b93506105a4818560208601610555565b80840191505092915050565b60006105bc828461057f565b915081905092915050565b600082825260208201905092915050565b60006105e38261053f565b6105ed81856105c7565b93506105fd818560208601610555565b61060681610342565b840191505092915050565b6000602082019050818103600083015261062b81846105d8565b90509291505056fea2646970667358221220b692ce586940f147c58b5979b6b920f7f801cd3965601846cc1027cb4af4b06564736f6c634300081a0033",
  "linkReferences": {},
  "deployedLinkReferences": {}
}