{
  "_format": "hh-sol-artifact-1",
  "contractName": "HealthInsuranceClaim",
  "sourceName": "contracts/HealthClaim.sol",
  "abi": [
    {
      "inputs": [
        {
          "internalType": "address",
          "name": "_globalClaimTracker",
          "type": "address"
        }
      ],
      "stateMutability": "nonpayable",
      "type": "constructor"
    },
    {
      "anonymous": false,
      "inputs": [
        {
          "indexed": true,
          "internalType": "uint256",
          "name": "claimId",
          "type": "uint256"
        },
        {
          "indexed": true,
          "internalType": "string",
          "name": "policyNumber",
          "type": "string"
        },
        {
          "indexed": false,
          "internalType": "string",
          "name": "policyHolderName",
          "type": "string"
        }
      ],
      "name": "HealthClaimFiled",
      "type": "event"
    },
    {
      "inputs": [],
      "name": "claimCount",
      "outputs": [
        {
          "internalType": "uint256",
          "name": "",
          "type": "uint256"
        }
      ],
      "stateMutability": "view",
      "type": "function"
    },
    {
      "inputs": [
        {
          "internalType": "uint256",
          "name": "",
          "type": "uint256"
        }
      ],
      "name": "claims",
      "outputs": [
        {
          "components": [
            {
              "internalType": "string",
              "name": "companyName",
              "type": "string"
            },
            {
              "internalType": "string",
              "name": "policyNumber",
              "type": "string"
            },
            {
              "internalType": "string",
              "name": "policyHolderName",
              "type": "string"
            },
            {
              "internalType": "string",
              "name": "phoneNumber",
              "type": "string"
            },
            {
              "internalType": "string",
              "name": "holderAddress",
              "type": "string"
            },
            {
              "internalType": "string",
              "name": "dob",
              "type": "string"
            },
            {
              "internalType": "string",
              "name": "gender",
              "type": "string"
            }
          ],
          "internalType": "struct HealthInsuranceClaim.PolicyDetails",
          "name": "policyDetails",
          "type": "tuple"
        },
        {
          "components": [
            {
              "internalType": "string",
              "name": "diseaseDetails",
              "type": "string"
            },
            {
              "internalType": "uint256",
              "name": "diseaseDuration",
              "type": "uint256"
            },
            {
              "internalType": "string",
              "name": "firAttachment",
              "type": "string"
            },
            {
              "internalType": "string",
              "name": "previousHospitalizedRecord",
              "type": "string"
            },
            {
              "internalType": "string",
              "name": "doctorDetails",
              "type": "string"
            },
            {
              "internalType": "uint256",
              "name": "treatmentAmountSpent",
              "type": "uint256"
            },
            {
              "internalType": "string",
              "name": "hospitalName",
              "type": "string"
            },
            {
              "internalType": "string",
              "name": "hospitalAddress",
              "type": "string"
            },
            {
              "internalType": "string",
              "name": "hasOtherPolicy",
              "type": "string"
            },
            {
              "internalType": "string",
              "name": "icuSurgeryDetails",
              "type": "string"
            }
          ],
          "internalType": "struct HealthInsuranceClaim.MedicalDetails",
          "name": "medicalDetails",
          "type": "tuple"
        },
        {
          "components": [
            {
              "internalType": "string",
              "name": "accountNumber",
              "type": "string"
            },
            {
              "internalType": "string",
              "name": "bankName",
              "type": "string"
            },
            {
              "internalType": "string",
              "name": "panNumber",
              "type": "string"
            },
            {
              "internalType": "string",
              "name": "ifscNumber",
              "type": "string"
            }
          ],
          "internalType": "struct HealthInsuranceClaim.BankDetails",
          "name": "bankDetails",
          "type": "tuple"
        }
      ],
      "stateMutability": "view",
      "type": "function"
    },
    {
      "inputs": [
        {
          "components": [
            {
              "internalType": "string",
              "name": "companyName",
              "type": "string"
            },
            {
              "internalType": "string",
              "name": "policyNumber",
              "type": "string"
            },
            {
              "internalType": "string",
              "name": "policyHolderName",
              "type": "string"
            },
            {
              "internalType": "string",
              "name": "phoneNumber",
              "type": "string"
            },
            {
              "internalType": "string",
              "name": "holderAddress",
              "type": "string"
            },
            {
              "internalType": "string",
              "name": "dob",
              "type": "string"
            },
            {
              "internalType": "string",
              "name": "gender",
              "type": "string"
            }
          ],
          "internalType": "struct HealthInsuranceClaim.PolicyDetails",
          "name": "_policyDetails",
          "type": "tuple"
        },
        {
          "components": [
            {
              "internalType": "string",
              "name": "diseaseDetails",
              "type": "string"
            },
            {
              "internalType": "uint256",
              "name": "diseaseDuration",
              "type": "uint256"
            },
            {
              "internalType": "string",
              "name": "firAttachment",
              "type": "string"
            },
            {
              "internalType": "string",
              "name": "previousHospitalizedRecord",
              "type": "string"
            },
            {
              "internalType": "string",
              "name": "doctorDetails",
              "type": "string"
            },
            {
              "internalType": "uint256",
              "name": "treatmentAmountSpent",
              "type": "uint256"
            },
            {
              "internalType": "string",
              "name": "hospitalName",
              "type": "string"
            },
            {
              "internalType": "string",
              "name": "hospitalAddress",
              "type": "string"
            },
            {
              "internalType": "string",
              "name": "hasOtherPolicy",
              "type": "string"
            },
            {
              "internalType": "string",
              "name": "icuSurgeryDetails",
              "type": "string"
            }
          ],
          "internalType": "struct HealthInsuranceClaim.MedicalDetails",
          "name": "_medicalDetails",
          "type": "tuple"
        },
        {
          "components": [
            {
              "internalType": "string",
              "name": "accountNumber",
              "type": "string"
            },
            {
              "internalType": "string",
              "name": "bankName",
              "type": "string"
            },
            {
              "internalType": "string",
              "name": "panNumber",
              "type": "string"
            },
            {
              "internalType": "string",
              "name": "ifscNumber",
              "type": "string"
            }
          ],
          "internalType": "struct HealthInsuranceClaim.BankDetails",
          "name": "_bankDetails",
          "type": "tuple"
        }
      ],
      "name": "fileHealthClaim",
      "outputs": [],
      "stateMutability": "nonpayable",
      "type": "function"
    },
    {
      "inputs": [],
      "name": "globalClaimTracker",
      "outputs": [
        {
          "internalType": "contract GlobalClaimTracker",
          "name": "",
          "type": "address"
        }
      ],
      "stateMutability": "view",
      "type": "function"
    },
    {
      "inputs": [
        {
          "internalType": "string",
          "name": "policyNumber",
          "type": "string"
        }
      ],
      "name": "hasClaimed",
      "outputs": [
        {
          "internalType": "bool",
          "name": "",
          "type": "bool"
        }
      ],
      "stateMutability": "view",
      "type": "function"
    }
  ],
  "bytecode": "0x608060405234801561001057600080fd5b5060405161224b38038061224b833981810160405281019061003291906100db565b806000806101000a81548173ffffffffffffffffffffffffffffffffffffffff021916908373ffffffffffffffffffffffffffffffffffffffff16021790555050610108565b600080fd5b600073ffffffffffffffffffffffffffffffffffffffff82169050919050565b60006100a88261007d565b9050919050565b6100b88161009d565b81146100c357600080fd5b50565b6000815190506100d5816100af565b92915050565b6000602082840312156100f1576100f0610078565b5b60006100ff848285016100c6565b91505092915050565b612134806101176000396000f3fe608060405234801561001057600080fd5b50600436106100575760003560e01c8063363454ee1461005c5780634121be6f1461008c5780638da4d3c9146100a8578063a888c2cd146100c6578063c796bbf4146100f8575b600080fd5b610076600480360381019061007191906111d8565b610116565b604051610083919061123c565b60405180910390f35b6100a660048036038101906100a191906116cd565b6101bd565b005b6100b0610521565b6040516100bd9190611783565b60405180910390f35b6100e060048036038101906100db919061179e565b610527565b6040516100ef93929190611aa2565b60405180910390f35b61010061105a565b60405161010d9190611b6d565b60405180910390f35b60008060009054906101000a900473ffffffffffffffffffffffffffffffffffffffff1673ffffffffffffffffffffffffffffffffffffffff1663eb9ba00a6000846040518363ffffffff1660e01b8152600401610175929190611c49565b602060405180830381865afa158015610192573d6000803e3d6000fd5b505050506040513d601f19601f820116820180604052508101906101b69190611ca5565b9050919050565b60008060009054906101000a900473ffffffffffffffffffffffffffffffffffffffff1673ffffffffffffffffffffffffffffffffffffffff1663080c3fd3600086602001516040518363ffffffff1660e01b8152600401610220929190611c49565b6020604051808303816000875af115801561023f573d6000803e3d6000fd5b505050506040513d601f19601f820116820180604052508101906102639190611ca5565b9050806102a5576040517f08c379a000000000000000000000000000000000000000000000000000000000815260040161029c90611d1e565b60405180910390fd5b604051806060016040528085815260200184815260200183815250600160006002600081546102d390611d6d565b919050819055815260200190815260200160002060008201518160000160008201518160000190816103059190611fb7565b50602082015181600101908161031b9190611fb7565b5060408201518160020190816103319190611fb7565b5060608201518160030190816103479190611fb7565b50608082015181600401908161035d9190611fb7565b5060a08201518160050190816103739190611fb7565b5060c08201518160060190816103899190611fb7565b50505060208201518160070160008201518160000190816103aa9190611fb7565b506020820151816001015560408201518160020190816103ca9190611fb7565b5060608201518160030190816103e09190611fb7565b5060808201518160040190816103f69190611fb7565b5060a0820151816005015560c08201518160060190816104169190611fb7565b5060e082015181600701908161042c9190611fb7565b506101008201518160080190816104439190611fb7565b5061012082015181600901908161045a9190611fb7565b505050604082015181601101600082015181600001908161047b9190611fb7565b5060208201518160010190816104919190611fb7565b5060408201518160020190816104a79190611fb7565b5060608201518160030190816104bd9190611fb7565b50505090505083602001516040516104d591906120c5565b60405180910390206002547f538af19ff4f6ae3258b7f16c7a5ed463448f3a9c8fce8975e74bbc712ccc051a866040015160405161051391906120dc565b60405180910390a350505050565b60025481565b6001602052806000526040600020600091509050806000016040518060e001604052908160008201805461055a90611de4565b80601f016020809104026020016040519081016040528092919081815260200182805461058690611de4565b80156105d35780601f106105a8576101008083540402835291602001916105d3565b820191906000526020600020905b8154815290600101906020018083116105b657829003601f168201915b505050505081526020016001820180546105ec90611de4565b80601f016020809104026020016040519081016040528092919081815260200182805461061890611de4565b80156106655780601f1061063a57610100808354040283529160200191610665565b820191906000526020600020905b81548152906001019060200180831161064857829003601f168201915b5050505050815260200160028201805461067e90611de4565b80601f01602080910402602001604051908101604052809291908181526020018280546106aa90611de4565b80156106f75780601f106106cc576101008083540402835291602001916106f7565b820191906000526020600020905b8154815290600101906020018083116106da57829003601f168201915b5050505050815260200160038201805461071090611de4565b80601f016020809104026020016040519081016040528092919081815260200182805461073c90611de4565b80156107895780601f1061075e57610100808354040283529160200191610789565b820191906000526020600020905b81548152906001019060200180831161076c57829003601f168201915b505050505081526020016004820180546107a290611de4565b80601f01602080910402602001604051908101604052809291908181526020018280546107ce90611de4565b801561081b5780601f106107f05761010080835404028352916020019161081b565b820191906000526020600020905b8154815290600101906020018083116107fe57829003601f168201915b5050505050815260200160058201805461083490611de4565b80601f016020809104026020016040519081016040528092919081815260200182805461086090611de4565b80156108ad5780601f10610882576101008083540402835291602001916108ad565b820191906000526020600020905b81548152906001019060200180831161089057829003601f168201915b505050505081526020016006820180546108c690611de4565b80601f01602080910402602001604051908101604052809291908181526020018280546108f290611de4565b801561093f5780601f106109145761010080835404028352916020019161093f565b820191906000526020600020905b81548152906001019060200180831161092257829003601f168201915b50505050508152505090806007016040518061014001604052908160008201805461096990611de4565b80601f016020809104026020016040519081016040528092919081815260200182805461099590611de4565b80156109e25780601f106109b7576101008083540402835291602001916109e2565b820191906000526020600020905b8154815290600101906020018083116109c557829003601f168201915b5050505050815260200160018201548152602001600282018054610a0590611de4565b80601f0160208091040260200160405190810160405280929190818152602001828054610a3190611de4565b8015610a7e5780601f10610a5357610100808354040283529160200191610a7e565b820191906000526020600020905b815481529060010190602001808311610a6157829003601f168201915b50505050508152602001600382018054610a9790611de4565b80601f0160208091040260200160405190810160405280929190818152602001828054610ac390611de4565b8015610b105780601f10610ae557610100808354040283529160200191610b10565b820191906000526020600020905b815481529060010190602001808311610af357829003601f168201915b50505050508152602001600482018054610b2990611de4565b80601f0160208091040260200160405190810160405280929190818152602001828054610b5590611de4565b8015610ba25780601f10610b7757610100808354040283529160200191610ba2565b820191906000526020600020905b815481529060010190602001808311610b8557829003601f168201915b5050505050815260200160058201548152602001600682018054610bc590611de4565b80601f0160208091040260200160405190810160405280929190818152602001828054610bf190611de4565b8015610c3e5780601f10610c1357610100808354040283529160200191610c3e565b820191906000526020600020905b815481529060010190602001808311610c2157829003601f168201915b50505050508152602001600782018054610c5790611de4565b80601f0160208091040260200160405190810160405280929190818152602001828054610c8390611de4565b8015610cd05780601f10610ca557610100808354040283529160200191610cd0565b820191906000526020600020905b815481529060010190602001808311610cb357829003601f168201915b50505050508152602001600882018054610ce990611de4565b80601f0160208091040260200160405190810160405280929190818152602001828054610d1590611de4565b8015610d625780601f10610d3757610100808354040283529160200191610d62565b820191906000526020600020905b815481529060010190602001808311610d4557829003601f168201915b50505050508152602001600982018054610d7b90611de4565b80601f0160208091040260200160405190810160405280929190818152602001828054610da790611de4565b8015610df45780601f10610dc957610100808354040283529160200191610df4565b820191906000526020600020905b815481529060010190602001808311610dd757829003601f168201915b5050505050815250509080601101604051806080016040529081600082018054610e1d90611de4565b80601f0160208091040260200160405190810160405280929190818152602001828054610e4990611de4565b8015610e965780601f10610e6b57610100808354040283529160200191610e96565b820191906000526020600020905b815481529060010190602001808311610e7957829003601f168201915b50505050508152602001600182018054610eaf90611de4565b80601f0160208091040260200160405190810160405280929190818152602001828054610edb90611de4565b8015610f285780601f10610efd57610100808354040283529160200191610f28565b820191906000526020600020905b815481529060010190602001808311610f0b57829003601f168201915b50505050508152602001600282018054610f4190611de4565b80601f0160208091040260200160405190810160405280929190818152602001828054610f6d90611de4565b8015610fba5780601f10610f8f57610100808354040283529160200191610fba565b820191906000526020600020905b815481529060010190602001808311610f9d57829003601f168201915b50505050508152602001600382018054610fd390611de4565b80601f0160208091040260200160405190810160405280929190818152602001828054610fff90611de4565b801561104c5780601f106110215761010080835404028352916020019161104c565b820191906000526020600020905b81548152906001019060200180831161102f57829003601f168201915b505050505081525050905083565b60008054906101000a900473ffffffffffffffffffffffffffffffffffffffff1681565b6000604051905090565b600080fd5b600080fd5b600080fd5b600080fd5b6000601f19601f8301169050919050565b7f4e487b7100000000000000000000000000000000000000000000000000000000600052604160045260246000fd5b6110e58261109c565b810181811067ffffffffffffffff82111715611104576111036110ad565b5b80604052505050565b600061111761107e565b905061112382826110dc565b919050565b600067ffffffffffffffff821115611143576111426110ad565b5b61114c8261109c565b9050602081019050919050565b82818337600083830152505050565b600061117b61117684611128565b61110d565b90508281526020810184848401111561119757611196611097565b5b6111a2848285611159565b509392505050565b600082601f8301126111bf576111be611092565b5b81356111cf848260208601611168565b91505092915050565b6000602082840312156111ee576111ed611088565b5b600082013567ffffffffffffffff81111561120c5761120b61108d565b5b611218848285016111aa565b91505092915050565b60008115159050919050565b61123681611221565b82525050565b6000602082019050611251600083018461122d565b92915050565b600080fd5b600080fd5b600060e0828403121561127757611276611257565b5b61128160e061110d565b9050600082013567ffffffffffffffff8111156112a1576112a061125c565b5b6112ad848285016111aa565b600083015250602082013567ffffffffffffffff8111156112d1576112d061125c565b5b6112dd848285016111aa565b602083015250604082013567ffffffffffffffff8111156113015761130061125c565b5b61130d848285016111aa565b604083015250606082013567ffffffffffffffff8111156113315761133061125c565b5b61133d848285016111aa565b606083015250608082013567ffffffffffffffff8111156113615761136061125c565b5b61136d848285016111aa565b60808301525060a082013567ffffffffffffffff8111156113915761139061125c565b5b61139d848285016111aa565b60a08301525060c082013567ffffffffffffffff8111156113c1576113c061125c565b5b6113cd848285016111aa565b60c08301525092915050565b6000819050919050565b6113ec816113d9565b81146113f757600080fd5b50565b600081359050611409816113e3565b92915050565b6000610140828403121561142657611425611257565b5b61143161014061110d565b9050600082013567ffffffffffffffff8111156114515761145061125c565b5b61145d848285016111aa565b6000830152506020611471848285016113fa565b602083015250604082013567ffffffffffffffff8111156114955761149461125c565b5b6114a1848285016111aa565b604083015250606082013567ffffffffffffffff8111156114c5576114c461125c565b5b6114d1848285016111aa565b606083015250608082013567ffffffffffffffff8111156114f5576114f461125c565b5b611501848285016111aa565b60808301525060a0611515848285016113fa565b60a08301525060c082013567ffffffffffffffff8111156115395761153861125c565b5b611545848285016111aa565b60c08301525060e082013567ffffffffffffffff8111156115695761156861125c565b5b611575848285016111aa565b60e08301525061010082013567ffffffffffffffff81111561159a5761159961125c565b5b6115a6848285016111aa565b6101008301525061012082013567ffffffffffffffff8111156115cc576115cb61125c565b5b6115d8848285016111aa565b6101208301525092915050565b6000608082840312156115fb576115fa611257565b5b611605608061110d565b9050600082013567ffffffffffffffff8111156116255761162461125c565b5b611631848285016111aa565b600083015250602082013567ffffffffffffffff8111156116555761165461125c565b5b611661848285016111aa565b602083015250604082013567ffffffffffffffff8111156116855761168461125c565b5b611691848285016111aa565b604083015250606082013567ffffffffffffffff8111156116b5576116b461125c565b5b6116c1848285016111aa565b60608301525092915050565b6000806000606084860312156116e6576116e5611088565b5b600084013567ffffffffffffffff8111156117045761170361108d565b5b61171086828701611261565b935050602084013567ffffffffffffffff8111156117315761173061108d565b5b61173d8682870161140f565b925050604084013567ffffffffffffffff81111561175e5761175d61108d565b5b61176a868287016115e5565b9150509250925092565b61177d816113d9565b82525050565b60006020820190506117986000830184611774565b92915050565b6000602082840312156117b4576117b3611088565b5b60006117c2848285016113fa565b91505092915050565b600081519050919050565b600082825260208201905092915050565b60005b838110156118055780820151818401526020810190506117ea565b60008484015250505050565b600061181c826117cb565b61182681856117d6565b93506118368185602086016117e7565b61183f8161109c565b840191505092915050565b600060e08301600083015184820360008601526118678282611811565b915050602083015184820360208601526118818282611811565b9150506040830151848203604086015261189b8282611811565b915050606083015184820360608601526118b58282611811565b915050608083015184820360808601526118cf8282611811565b91505060a083015184820360a08601526118e98282611811565b91505060c083015184820360c08601526119038282611811565b9150508091505092915050565b611919816113d9565b82525050565b600061014083016000830151848203600086015261193d8282611811565b91505060208301516119526020860182611910565b506040830151848203604086015261196a8282611811565b915050606083015184820360608601526119848282611811565b9150506080830151848203608086015261199e8282611811565b91505060a08301516119b360a0860182611910565b5060c083015184820360c08601526119cb8282611811565b91505060e083015184820360e08601526119e58282611811565b915050610100830151848203610100860152611a018282611811565b915050610120830151848203610120860152611a1d8282611811565b9150508091505092915050565b60006080830160008301518482036000860152611a478282611811565b91505060208301518482036020860152611a618282611811565b91505060408301518482036040860152611a7b8282611811565b91505060608301518482036060860152611a958282611811565b9150508091505092915050565b60006060820190508181036000830152611abc818661184a565b90508181036020830152611ad0818561191f565b90508181036040830152611ae48184611a2a565b9050949350505050565b600073ffffffffffffffffffffffffffffffffffffffff82169050919050565b6000819050919050565b6000611b33611b2e611b2984611aee565b611b0e565b611aee565b9050919050565b6000611b4582611b18565b9050919050565b6000611b5782611b3a565b9050919050565b611b6781611b4c565b82525050565b6000602082019050611b826000830184611b5e565b92915050565b7f4e487b7100000000000000000000000000000000000000000000000000000000600052602160045260246000fd5b60048110611bc857611bc7611b88565b5b50565b6000819050611bd982611bb7565b919050565b6000611be982611bcb565b9050919050565b611bf981611bde565b82525050565b600082825260208201905092915050565b6000611c1b826117cb565b611c258185611bff565b9350611c358185602086016117e7565b611c3e8161109c565b840191505092915050565b6000604082019050611c5e6000830185611bf0565b8181036020830152611c708184611c10565b90509392505050565b611c8281611221565b8114611c8d57600080fd5b50565b600081519050611c9f81611c79565b92915050565b600060208284031215611cbb57611cba611088565b5b6000611cc984828501611c90565b91505092915050565b7f446f75626c652064697070696e67206465746563746564210000000000000000600082015250565b6000611d08601883611bff565b9150611d1382611cd2565b602082019050919050565b60006020820190508181036000830152611d3781611cfb565b9050919050565b7f4e487b7100000000000000000000000000000000000000000000000000000000600052601160045260246000fd5b6000611d78826113d9565b91507fffffffffffffffffffffffffffffffffffffffffffffffffffffffffffffffff8203611daa57611da9611d3e565b5b600182019050919050565b7f4e487b7100000000000000000000000000000000000000000000000000000000600052602260045260246000fd5b60006002820490506001821680611dfc57607f821691505b602082108103611e0f57611e0e611db5565b5b50919050565b60008190508160005260206000209050919050565b60006020601f8301049050919050565b600082821b905092915050565b600060088302611e777fffffffffffffffffffffffffffffffffffffffffffffffffffffffffffffffff82611e3a565b611e818683611e3a565b95508019841693508086168417925050509392505050565b6000611eb4611eaf611eaa846113d9565b611b0e565b6113d9565b9050919050565b6000819050919050565b611ece83611e99565b611ee2611eda82611ebb565b848454611e47565b825550505050565b600090565b611ef7611eea565b611f02818484611ec5565b505050565b5b81811015611f2657611f1b600082611eef565b600181019050611f08565b5050565b601f821115611f6b57611f3c81611e15565b611f4584611e2a565b81016020851015611f54578190505b611f68611f6085611e2a565b830182611f07565b50505b505050565b600082821c905092915050565b6000611f8e60001984600802611f70565b1980831691505092915050565b6000611fa78383611f7d565b9150826002028217905092915050565b611fc0826117cb565b67ffffffffffffffff811115611fd957611fd86110ad565b5b611fe38254611de4565b611fee828285611f2a565b600060209050601f831160018114612021576000841561200f578287015190505b6120198582611f9b565b865550612081565b601f19841661202f86611e15565b60005b8281101561205757848901518255600182019150602085019450602081019050612032565b868310156120745784890151612070601f891682611f7d565b8355505b6001600288020188555050505b505050505050565b600081905092915050565b600061209f826117cb565b6120a98185612089565b93506120b98185602086016117e7565b80840191505092915050565b60006120d18284612094565b915081905092915050565b600060208201905081810360008301526120f68184611c10565b90509291505056fea2646970667358221220045dfd8a0ad0c6f39d161764dd4535d66ae433e0c0870cfd9e4b2f692c962e7464736f6c634300081a0033",
  "linkReferences": {},
  "deployedLinkReferences": {}
}