{
  "_format": "hh-sol-artifact-1",
  "contractName": "VehicleInsuranceClaim",
  "sourceName": "contracts/VehicleClaim.sol",
  "abi": [
    {
      "inputs": [
        {
          "internalType": "address",
          "name": "_globalClaimTracker",
          "type": "address"
        }
      ],
      "stateMutability": "nonpayable",
      "type": "constructor"
    },
    {
      "anonymous": false,
      "inputs": [
        {
          "indexed": true,
          "internalType": "uint256",
          "name": "claimId",
          "type": "uint256"
        },
        {
          "indexed": true,
          "internalType": "string",
          "name": "policyNumber",
          "type": "string"
        },
        {
          "indexed": false,
          "internalType": "string",
          "name": "policyHolderName",
          "type": "string"
        }
      ],
      "name": "VehicleClaimFiled",
      "type": "event"
    },
    {
      "inputs": [],
      "name": "claimCount",
      "outputs": [
        {
          "internalType": "uint256",
          "name": "",
          "type": "uint256"
        }
      ],
      "stateMutability": "view",
      "type": "function"
    },
    {
      "inputs": [
        {
          "internalType": "uint256",
          "name": "",
          "type": "uint256"
        }
      ],
      "name": "claims",
      "outputs": [
        {
          "components": [
            {
              "internalType": "string",
              "name": "policyNumber",
              "type": "string"
            },
            {
              "internalType": "string",
              "name": "policyHolderName",
              "type": "string"
            },
            {
              "internalType": "bytes32",
              "name": "phoneNumber",
              "type": "bytes32"
            },
            {
              "internalType": "bytes32",
              "name": "holderAddress",
              "type": "bytes32"
            },
            {
              "internalType": "bytes32",
              "name": "district",
              "type": "bytes32"
            },
            {
              "internalType": "bytes32",
              "name": "pinCode",
              "type": "bytes32"
            },
            {
              "internalType": "bytes32",
              "name": "email",
              "type": "bytes32"
            },
            {
              "internalType": "bytes32",
              "name": "panNo",
              "type": "bytes32"
            },
            {
              "internalType": "bytes32",
              "name": "aadhar",
              "type": "bytes32"
            },
            {
              "internalType": "bytes32",
              "name": "yearlyIncome",
              "type": "bytes32"
            },
            {
              "internalType": "bytes32",
              "name": "occupation",
              "type": "bytes32"
            },
            {
              "internalType": "bytes32",
              "name": "dob",
              "type": "bytes32"
            },
            {
              "internalType": "bytes32",
              "name": "gender",
              "type": "bytes32"
            },
            {
              "internalType": "bytes32",
              "name": "insuranceCompany",
              "type": "bytes32"
            },
            {
              "internalType": "uint8",
              "name": "familyMembers",
              "type": "uint8"
            },
            {
              "internalType": "uint8",
              "name": "membersOver18",
              "type": "uint8"
            },
            {
              "internalType": "uint8",
              "name": "membersDrive",
              "type": "uint8"
            },
            {
              "internalType": "uint8",
              "name": "numberOfVehicle",
              "type": "uint8"
            },
            {
              "internalType": "bytes32",
              "name": "averageKM",
              "type": "bytes32"
            },
            {
              "internalType": "bytes32",
              "name": "antitheftDevice",
              "type": "bytes32"
            },
            {
              "internalType": "bytes32",
              "name": "haveClaimedInYear",
              "type": "bytes32"
            },
            {
              "internalType": "bytes32",
              "name": "usage",
              "type": "bytes32"
            }
          ],
          "internalType": "struct VehicleInsuranceClaim.PolicyDetails",
          "name": "policyDetails",
          "type": "tuple"
        },
        {
          "components": [
            {
              "internalType": "bytes32",
              "name": "vehicleRegistrationNo",
              "type": "bytes32"
            },
            {
              "internalType": "bytes32",
              "name": "vehicleModel",
              "type": "bytes32"
            },
            {
              "internalType": "bytes32",
              "name": "dateOfRegistration",
              "type": "bytes32"
            },
            {
              "internalType": "bytes32",
              "name": "mileage",
              "type": "bytes32"
            },
            {
              "internalType": "bytes32",
              "name": "km",
              "type": "bytes32"
            },
            {
              "internalType": "bytes32",
              "name": "chassisNo",
              "type": "bytes32"
            },
            {
              "internalType": "bytes32",
              "name": "engineNo",
              "type": "bytes32"
            },
            {
              "internalType": "bytes32",
              "name": "classOfVehicle",
              "type": "bytes32"
            }
          ],
          "internalType": "struct VehicleInsuranceClaim.VehicleDetails",
          "name": "vehicleDetails",
          "type": "tuple"
        },
        {
          "components": [
            {
              "internalType": "bytes32",
              "name": "driverName",
              "type": "bytes32"
            },
            {
              "internalType": "bytes32",
              "name": "driverAddress",
              "type": "bytes32"
            },
            {
              "internalType": "bytes32",
              "name": "relationshipWithDriver",
              "type": "bytes32"
            },
            {
              "internalType": "bytes32",
              "name": "driverGender",
              "type": "bytes32"
            },
            {
              "internalType": "bytes32",
              "name": "wasDriverDrunk",
              "type": "bytes32"
            },
            {
              "internalType": "bytes32",
              "name": "drivingLicenseNo",
              "type": "bytes32"
            },
            {
              "internalType": "bytes32",
              "name": "licenseIssueAuthority",
              "type": "bytes32"
            },
            {
              "internalType": "bytes32",
              "name": "dateOfExpiry",
              "type": "bytes32"
            },
            {
              "internalType": "bytes32",
              "name": "typeOfLicense",
              "type": "bytes32"
            },
            {
              "internalType": "bytes32",
              "name": "detailsOfSuspension",
              "type": "bytes32"
            },
            {
              "internalType": "bytes32",
              "name": "licenseTemporary",
              "type": "bytes32"
            }
          ],
          "internalType": "struct VehicleInsuranceClaim.DriverDetails",
          "name": "driverDetails",
          "type": "tuple"
        },
        {
          "components": [
            {
              "internalType": "bytes32",
              "name": "dateOfAccident",
              "type": "bytes32"
            },
            {
              "internalType": "bytes32",
              "name": "timeOfAccident",
              "type": "bytes32"
            },
            {
              "internalType": "bytes32",
              "name": "location",
              "type": "bytes32"
            },
            {
              "internalType": "bytes32",
              "name": "descriptionOfAccident",
              "type": "bytes32"
            },
            {
              "internalType": "bytes32",
              "name": "thirdPartyResponsible",
              "type": "bytes32"
            },
            {
              "internalType": "bytes32",
              "name": "detailOfThirdParty",
              "type": "bytes32"
            },
            {
              "internalType": "bytes32",
              "name": "reportedToPolice",
              "type": "bytes32"
            },
            {
              "internalType": "bytes32",
              "name": "policeDetails",
              "type": "bytes32"
            },
            {
              "internalType": "bytes32",
              "name": "repairCost",
              "type": "bytes32"
            },
            {
              "internalType": "bytes32",
              "name": "supportingDocument",
              "type": "bytes32"
            }
          ],
          "internalType": "struct VehicleInsuranceClaim.AccidentDetails",
          "name": "accidentDetails",
          "type": "tuple"
        },
        {
          "components": [
            {
              "internalType": "string",
              "name": "accountNumber",
              "type": "string"
            },
            {
              "internalType": "string",
              "name": "bankName",
              "type": "string"
            },
            {
              "internalType": "string",
              "name": "panNumber",
              "type": "string"
            },
            {
              "internalType": "string",
              "name": "ifscNumber",
              "type": "string"
            }
          ],
          "internalType": "struct VehicleInsuranceClaim.BankDetails",
          "name": "bankDetails",
          "type": "tuple"
        }
      ],
      "stateMutability": "view",
      "type": "function"
    },
    {
      "inputs": [
        {
          "components": [
            {
              "internalType": "string",
              "name": "policyNumber",
              "type": "string"
            },
            {
              "internalType": "string",
              "name": "policyHolderName",
              "type": "string"
            },
            {
              "internalType": "bytes32",
              "name": "phoneNumber",
              "type": "bytes32"
            },
            {
              "internalType": "bytes32",
              "name": "holderAddress",
              "type": "bytes32"
            },
            {
              "internalType": "bytes32",
              "name": "district",
              "type": "bytes32"
            },
            {
              "internalType": "bytes32",
              "name": "pinCode",
              "type": "bytes32"
            },
            {
              "internalType": "bytes32",
              "name": "email",
              "type": "bytes32"
            },
            {
              "internalType": "bytes32",
              "name": "panNo",
              "type": "bytes32"
            },
            {
              "internalType": "bytes32",
              "name": "aadhar",
              "type": "bytes32"
            },
            {
              "internalType": "bytes32",
              "name": "yearlyIncome",
              "type": "bytes32"
            },
            {
              "internalType": "bytes32",
              "name": "occupation",
              "type": "bytes32"
            },
            {
              "internalType": "bytes32",
              "name": "dob",
              "type": "bytes32"
            },
            {
              "internalType": "bytes32",
              "name": "gender",
              "type": "bytes32"
            },
            {
              "internalType": "bytes32",
              "name": "insuranceCompany",
              "type": "bytes32"
            },
            {
              "internalType": "uint8",
              "name": "familyMembers",
              "type": "uint8"
            },
            {
              "internalType": "uint8",
              "name": "membersOver18",
              "type": "uint8"
            },
            {
              "internalType": "uint8",
              "name": "membersDrive",
              "type": "uint8"
            },
            {
              "internalType": "uint8",
              "name": "numberOfVehicle",
              "type": "uint8"
            },
            {
              "internalType": "bytes32",
              "name": "averageKM",
              "type": "bytes32"
            },
            {
              "internalType": "bytes32",
              "name": "antitheftDevice",
              "type": "bytes32"
            },
            {
              "internalType": "bytes32",
              "name": "haveClaimedInYear",
              "type": "bytes32"
            },
            {
              "internalType": "bytes32",
              "name": "usage",
              "type": "bytes32"
            }
          ],
          "internalType": "struct VehicleInsuranceClaim.PolicyDetails",
          "name": "_policyDetails",
          "type": "tuple"
        },
        {
          "components": [
            {
              "internalType": "bytes32",
              "name": "vehicleRegistrationNo",
              "type": "bytes32"
            },
            {
              "internalType": "bytes32",
              "name": "vehicleModel",
              "type": "bytes32"
            },
            {
              "internalType": "bytes32",
              "name": "dateOfRegistration",
              "type": "bytes32"
            },
            {
              "internalType": "bytes32",
              "name": "mileage",
              "type": "bytes32"
            },
            {
              "internalType": "bytes32",
              "name": "km",
              "type": "bytes32"
            },
            {
              "internalType": "bytes32",
              "name": "chassisNo",
              "type": "bytes32"
            },
            {
              "internalType": "bytes32",
              "name": "engineNo",
              "type": "bytes32"
            },
            {
              "internalType": "bytes32",
              "name": "classOfVehicle",
              "type": "bytes32"
            }
          ],
          "internalType": "struct VehicleInsuranceClaim.VehicleDetails",
          "name": "_vehicleDetails",
          "type": "tuple"
        },
        {
          "components": [
            {
              "internalType": "bytes32",
              "name": "driverName",
              "type": "bytes32"
            },
            {
              "internalType": "bytes32",
              "name": "driverAddress",
              "type": "bytes32"
            },
            {
              "internalType": "bytes32",
              "name": "relationshipWithDriver",
              "type": "bytes32"
            },
            {
              "internalType": "bytes32",
              "name": "driverGender",
              "type": "bytes32"
            },
            {
              "internalType": "bytes32",
              "name": "wasDriverDrunk",
              "type": "bytes32"
            },
            {
              "internalType": "bytes32",
              "name": "drivingLicenseNo",
              "type": "bytes32"
            },
            {
              "internalType": "bytes32",
              "name": "licenseIssueAuthority",
              "type": "bytes32"
            },
            {
              "internalType": "bytes32",
              "name": "dateOfExpiry",
              "type": "bytes32"
            },
            {
              "internalType": "bytes32",
              "name": "typeOfLicense",
              "type": "bytes32"
            },
            {
              "internalType": "bytes32",
              "name": "detailsOfSuspension",
              "type": "bytes32"
            },
            {
              "internalType": "bytes32",
              "name": "licenseTemporary",
              "type": "bytes32"
            }
          ],
          "internalType": "struct VehicleInsuranceClaim.DriverDetails",
          "name": "_driverDetails",
          "type": "tuple"
        },
        {
          "components": [
            {
              "internalType": "bytes32",
              "name": "dateOfAccident",
              "type": "bytes32"
            },
            {
              "internalType": "bytes32",
              "name": "timeOfAccident",
              "type": "bytes32"
            },
            {
              "internalType": "bytes32",
              "name": "location",
              "type": "bytes32"
            },
            {
              "internalType": "bytes32",
              "name": "descriptionOfAccident",
              "type": "bytes32"
            },
            {
              "internalType": "bytes32",
              "name": "thirdPartyResponsible",
              "type": "bytes32"
            },
            {
              "internalType": "bytes32",
              "name": "detailOfThirdParty",
              "type": "bytes32"
            },
            {
              "internalType": "bytes32",
              "name": "reportedToPolice",
              "type": "bytes32"
            },
            {
              "internalType": "bytes32",
              "name": "policeDetails",
              "type": "bytes32"
            },
            {
              "internalType": "bytes32",
              "name": "repairCost",
              "type": "bytes32"
            },
            {
              "internalType": "bytes32",
              "name": "supportingDocument",
              "type": "bytes32"
            }
          ],
          "internalType": "struct VehicleInsuranceClaim.AccidentDetails",
          "name": "_accidentDetails",
          "type": "tuple"
        },
        {
          "components": [
            {
              "internalType": "string",
              "name": "accountNumber",
              "type": "string"
            },
            {
              "internalType": "string",
              "name": "bankName",
              "type": "string"
            },
            {
              "internalType": "string",
              "name": "panNumber",
              "type": "string"
            },
            {
              "internalType": "string",
              "name": "ifscNumber",
              "type": "string"
            }
          ],
          "internalType": "struct VehicleInsuranceClaim.BankDetails",
          "name": "_bankDetails",
          "type": "tuple"
        }
      ],
      "name": "fileVehicleClaim",
      "outputs": [],
      "stateMutability": "nonpayable",
      "type": "function"
    },
    {
      "inputs": [],
      "name": "globalClaimTracker",
      "outputs": [
        {
          "internalType": "contract GlobalClaimTracker",
          "name": "",
          "type": "address"
        }
      ],
      "stateMutability": "view",
      "type": "function"
    },
    {
      "inputs": [
        {
          "internalType": "string",
          "name": "policyNumber",
          "type": "string"
        }
      ],
      "name": "hasClaimed",
      "outputs": [
        {
          "internalType": "bool",
          "name": "",
          "type": "bool"
        }
      ],
      "stateMutability": "view",
      "type": "function"
    }
  ],
  "bytecode": "0x608060405234801561001057600080fd5b50604051612327380380612327833981810160405281019061003291906100db565b806000806101000a81548173ffffffffffffffffffffffffffffffffffffffff021916908373ffffffffffffffffffffffffffffffffffffffff16021790555050610108565b600080fd5b600073ffffffffffffffffffffffffffffffffffffffff82169050919050565b60006100a88261007d565b9050919050565b6100b88161009d565b81146100c357600080fd5b50565b6000815190506100d5816100af565b92915050565b6000602082840312156100f1576100f0610078565b5b60006100ff848285016100c6565b91505092915050565b612210806101176000396000f3fe608060405234801561001057600080fd5b50600436106100575760003560e01c8063363454ee1461005c578063386f957b1461008c5780638da4d3c9146100a8578063a888c2cd146100c6578063c796bbf4146100fa575b600080fd5b61007660048036038101906100719190610dfe565b610118565b6040516100839190610e62565b60405180910390f35b6100a660048036038101906100a191906114e0565b6101bf565b005b6100b061066c565b6040516100bd91906115b0565b60405180910390f35b6100e060048036038101906100db91906115f7565b610672565b6040516100f1959493929190611b65565b60405180910390f35b610102610c80565b60405161010f9190611c49565b60405180910390f35b60008060009054906101000a900473ffffffffffffffffffffffffffffffffffffffff1673ffffffffffffffffffffffffffffffffffffffff1663791ca6676003846040518363ffffffff1660e01b8152600401610177929190611d25565b602060405180830381865afa158015610194573d6000803e3d6000fd5b505050506040513d601f19601f820116820180604052508101906101b89190611d81565b9050919050565b60008060009054906101000a900473ffffffffffffffffffffffffffffffffffffffff1673ffffffffffffffffffffffffffffffffffffffff1663080c3fd3600388600001516040518363ffffffff1660e01b8152600401610222929190611d25565b6020604051808303816000875af1158015610241573d6000803e3d6000fd5b505050506040513d601f19601f820116820180604052508101906102659190611d81565b9050806102a7576040517f08c379a000000000000000000000000000000000000000000000000000000000815260040161029e90611dfa565b60405180910390fd5b6040518060a0016040528087815260200186815260200185815260200184815260200183815250600160006002600081546102e190611e49565b919050819055815260200190815260200160002060008201518160000160008201518160000190816103139190612093565b5060208201518160010190816103299190612093565b5060408201518160020155606082015181600301556080820151816004015560a0820151816005015560c0820151816006015560e082015181600701556101008201518160080155610120820151816009015561014082015181600a015561016082015181600b015561018082015181600c01556101a082015181600d01556101c082015181600e0160006101000a81548160ff021916908360ff1602179055506101e082015181600e0160016101000a81548160ff021916908360ff16021790555061020082015181600e0160026101000a81548160ff021916908360ff16021790555061022082015181600e0160036101000a81548160ff021916908360ff16021790555061024082015181600f0155610260820151816010015561028082015181601101556102a082015181601201555050602082015181601301600082015181600001556020820151816001015560408201518160020155606082015181600301556080820151816004015560a0820151816005015560c0820151816006015560e082015181600701555050604082015181601b01600082015181600001556020820151816001015560408201518160020155606082015181600301556080820151816004015560a0820151816005015560c0820151816006015560e082015181600701556101008201518160080155610120820151816009015561014082015181600a01555050606082015181602601600082015181600001556020820151816001015560408201518160020155606082015181600301556080820151816004015560a0820151816005015560c0820151816006015560e0820151816007015561010082015181600801556101208201518160090155505060808201518160300160008201518160000190816105c49190612093565b5060208201518160010190816105da9190612093565b5060408201518160020190816105f09190612093565b5060608201518160030190816106069190612093565b505050905050856000015160405161061e91906121a1565b60405180910390206002547fadbf24a41fcc982b6a3532c0db0c1bd487e19e5905eaf7ccfbb66e0464967655886020015160405161065c91906121b8565b60405180910390a3505050505050565b60025481565b600160205280600052604060002060009150905080600001604051806102c00160405290816000820180546106a690611ec0565b80601f01602080910402602001604051908101604052809291908181526020018280546106d290611ec0565b801561071f5780601f106106f45761010080835404028352916020019161071f565b820191906000526020600020905b81548152906001019060200180831161070257829003601f168201915b5050505050815260200160018201805461073890611ec0565b80601f016020809104026020016040519081016040528092919081815260200182805461076490611ec0565b80156107b15780601f10610786576101008083540402835291602001916107b1565b820191906000526020600020905b81548152906001019060200180831161079457829003601f168201915b505050505081526020016002820154815260200160038201548152602001600482015481526020016005820154815260200160068201548152602001600782015481526020016008820154815260200160098201548152602001600a8201548152602001600b8201548152602001600c8201548152602001600d8201548152602001600e820160009054906101000a900460ff1660ff1660ff168152602001600e820160019054906101000a900460ff1660ff1660ff168152602001600e820160029054906101000a900460ff1660ff1660ff168152602001600e820160039054906101000a900460ff1660ff1660ff168152602001600f82015481526020016010820154815260200160118201548152602001601282015481525050908060130160405180610100016040529081600082015481526020016001820154815260200160028201548152602001600382015481526020016004820154815260200160058201548152602001600682015481526020016007820154815250509080601b016040518061016001604052908160008201548152602001600182015481526020016002820154815260200160038201548152602001600482015481526020016005820154815260200160068201548152602001600782015481526020016008820154815260200160098201548152602001600a820154815250509080602601604051806101400160405290816000820154815260200160018201548152602001600282015481526020016003820154815260200160048201548152602001600582015481526020016006820154815260200160078201548152602001600882015481526020016009820154815250509080603001604051806080016040529081600082018054610a4390611ec0565b80601f0160208091040260200160405190810160405280929190818152602001828054610a6f90611ec0565b8015610abc5780601f10610a9157610100808354040283529160200191610abc565b820191906000526020600020905b815481529060010190602001808311610a9f57829003601f168201915b50505050508152602001600182018054610ad590611ec0565b80601f0160208091040260200160405190810160405280929190818152602001828054610b0190611ec0565b8015610b4e5780601f10610b2357610100808354040283529160200191610b4e565b820191906000526020600020905b815481529060010190602001808311610b3157829003601f168201915b50505050508152602001600282018054610b6790611ec0565b80601f0160208091040260200160405190810160405280929190818152602001828054610b9390611ec0565b8015610be05780601f10610bb557610100808354040283529160200191610be0565b820191906000526020600020905b815481529060010190602001808311610bc357829003601f168201915b50505050508152602001600382018054610bf990611ec0565b80601f0160208091040260200160405190810160405280929190818152602001828054610c2590611ec0565b8015610c725780601f10610c4757610100808354040283529160200191610c72565b820191906000526020600020905b815481529060010190602001808311610c5557829003601f168201915b505050505081525050905085565b60008054906101000a900473ffffffffffffffffffffffffffffffffffffffff1681565b6000604051905090565b600080fd5b600080fd5b600080fd5b600080fd5b6000601f19601f8301169050919050565b7f4e487b7100000000000000000000000000000000000000000000000000000000600052604160045260246000fd5b610d0b82610cc2565b810181811067ffffffffffffffff82111715610d2a57610d29610cd3565b5b80604052505050565b6000610d3d610ca4565b9050610d498282610d02565b919050565b600067ffffffffffffffff821115610d6957610d68610cd3565b5b610d7282610cc2565b9050602081019050919050565b82818337600083830152505050565b6000610da1610d9c84610d4e565b610d33565b905082815260208101848484011115610dbd57610dbc610cbd565b5b610dc8848285610d7f565b509392505050565b600082601f830112610de557610de4610cb8565b5b8135610df5848260208601610d8e565b91505092915050565b600060208284031215610e1457610e13610cae565b5b600082013567ffffffffffffffff811115610e3257610e31610cb3565b5b610e3e84828501610dd0565b91505092915050565b60008115159050919050565b610e5c81610e47565b82525050565b6000602082019050610e776000830184610e53565b92915050565b600080fd5b600080fd5b6000819050919050565b610e9a81610e87565b8114610ea557600080fd5b50565b600081359050610eb781610e91565b92915050565b600060ff82169050919050565b610ed381610ebd565b8114610ede57600080fd5b50565b600081359050610ef081610eca565b92915050565b60006102c08284031215610f0d57610f0c610e7d565b5b610f186102c0610d33565b9050600082013567ffffffffffffffff811115610f3857610f37610e82565b5b610f4484828501610dd0565b600083015250602082013567ffffffffffffffff811115610f6857610f67610e82565b5b610f7484828501610dd0565b6020830152506040610f8884828501610ea8565b6040830152506060610f9c84828501610ea8565b6060830152506080610fb084828501610ea8565b60808301525060a0610fc484828501610ea8565b60a08301525060c0610fd884828501610ea8565b60c08301525060e0610fec84828501610ea8565b60e08301525061010061100184828501610ea8565b6101008301525061012061101784828501610ea8565b6101208301525061014061102d84828501610ea8565b6101408301525061016061104384828501610ea8565b6101608301525061018061105984828501610ea8565b610180830152506101a061106f84828501610ea8565b6101a0830152506101c061108584828501610ee1565b6101c0830152506101e061109b84828501610ee1565b6101e0830152506102006110b184828501610ee1565b610200830152506102206110c784828501610ee1565b610220830152506102406110dd84828501610ea8565b610240830152506102606110f384828501610ea8565b6102608301525061028061110984828501610ea8565b610280830152506102a061111f84828501610ea8565b6102a08301525092915050565b6000610100828403121561114357611142610e7d565b5b61114e610100610d33565b9050600061115e84828501610ea8565b600083015250602061117284828501610ea8565b602083015250604061118684828501610ea8565b604083015250606061119a84828501610ea8565b60608301525060806111ae84828501610ea8565b60808301525060a06111c284828501610ea8565b60a08301525060c06111d684828501610ea8565b60c08301525060e06111ea84828501610ea8565b60e08301525092915050565b6000610160828403121561120d5761120c610e7d565b5b611218610160610d33565b9050600061122884828501610ea8565b600083015250602061123c84828501610ea8565b602083015250604061125084828501610ea8565b604083015250606061126484828501610ea8565b606083015250608061127884828501610ea8565b60808301525060a061128c84828501610ea8565b60a08301525060c06112a084828501610ea8565b60c08301525060e06112b484828501610ea8565b60e0830152506101006112c984828501610ea8565b610100830152506101206112df84828501610ea8565b610120830152506101406112f584828501610ea8565b6101408301525092915050565b6000610140828403121561131957611318610e7d565b5b611324610140610d33565b9050600061133484828501610ea8565b600083015250602061134884828501610ea8565b602083015250604061135c84828501610ea8565b604083015250606061137084828501610ea8565b606083015250608061138484828501610ea8565b60808301525060a061139884828501610ea8565b60a08301525060c06113ac84828501610ea8565b60c08301525060e06113c084828501610ea8565b60e0830152506101006113d584828501610ea8565b610100830152506101206113eb84828501610ea8565b6101208301525092915050565b60006080828403121561140e5761140d610e7d565b5b6114186080610d33565b9050600082013567ffffffffffffffff81111561143857611437610e82565b5b61144484828501610dd0565b600083015250602082013567ffffffffffffffff81111561146857611467610e82565b5b61147484828501610dd0565b602083015250604082013567ffffffffffffffff81111561149857611497610e82565b5b6114a484828501610dd0565b604083015250606082013567ffffffffffffffff8111156114c8576114c7610e82565b5b6114d484828501610dd0565b60608301525092915050565b60008060008060006103e086880312156114fd576114fc610cae565b5b600086013567ffffffffffffffff81111561151b5761151a610cb3565b5b61152788828901610ef6565b95505060206115388882890161112c565b94505061012061154a888289016111f6565b93505061028061155c88828901611302565b9250506103c086013567ffffffffffffffff81111561157e5761157d610cb3565b5b61158a888289016113f8565b9150509295509295909350565b6000819050919050565b6115aa81611597565b82525050565b60006020820190506115c560008301846115a1565b92915050565b6115d481611597565b81146115df57600080fd5b50565b6000813590506115f1816115cb565b92915050565b60006020828403121561160d5761160c610cae565b5b600061161b848285016115e2565b91505092915050565b600081519050919050565b600082825260208201905092915050565b60005b8381101561165e578082015181840152602081019050611643565b60008484015250505050565b600061167582611624565b61167f818561162f565b935061168f818560208601611640565b61169881610cc2565b840191505092915050565b6116ac81610e87565b82525050565b6116bb81610ebd565b82525050565b60006102c08301600083015184820360008601526116df828261166a565b915050602083015184820360208601526116f9828261166a565b915050604083015161170e60408601826116a3565b50606083015161172160608601826116a3565b50608083015161173460808601826116a3565b5060a083015161174760a08601826116a3565b5060c083015161175a60c08601826116a3565b5060e083015161176d60e08601826116a3565b506101008301516117826101008601826116a3565b506101208301516117976101208601826116a3565b506101408301516117ac6101408601826116a3565b506101608301516117c16101608601826116a3565b506101808301516117d66101808601826116a3565b506101a08301516117eb6101a08601826116a3565b506101c08301516118006101c08601826116b2565b506101e08301516118156101e08601826116b2565b5061020083015161182a6102008601826116b2565b5061022083015161183f6102208601826116b2565b506102408301516118546102408601826116a3565b506102608301516118696102608601826116a3565b5061028083015161187e6102808601826116a3565b506102a08301516118936102a08601826116a3565b508091505092915050565b610100820160008201516118b560008501826116a3565b5060208201516118c860208501826116a3565b5060408201516118db60408501826116a3565b5060608201516118ee60608501826116a3565b50608082015161190160808501826116a3565b5060a082015161191460a08501826116a3565b5060c082015161192760c08501826116a3565b5060e082015161193a60e08501826116a3565b50505050565b6101608201600082015161195760008501826116a3565b50602082015161196a60208501826116a3565b50604082015161197d60408501826116a3565b50606082015161199060608501826116a3565b5060808201516119a360808501826116a3565b5060a08201516119b660a08501826116a3565b5060c08201516119c960c08501826116a3565b5060e08201516119dc60e08501826116a3565b506101008201516119f16101008501826116a3565b50610120820151611a066101208501826116a3565b50610140820151611a1b6101408501826116a3565b50505050565b61014082016000820151611a3860008501826116a3565b506020820151611a4b60208501826116a3565b506040820151611a5e60408501826116a3565b506060820151611a7160608501826116a3565b506080820151611a8460808501826116a3565b5060a0820151611a9760a08501826116a3565b5060c0820151611aaa60c08501826116a3565b5060e0820151611abd60e08501826116a3565b50610100820151611ad26101008501826116a3565b50610120820151611ae76101208501826116a3565b50505050565b60006080830160008301518482036000860152611b0a828261166a565b91505060208301518482036020860152611b24828261166a565b91505060408301518482036040860152611b3e828261166a565b91505060608301518482036060860152611b58828261166a565b9150508091505092915050565b60006103e0820190508181036000830152611b8081886116c1565b9050611b8f602083018761189e565b611b9d610120830186611940565b611bab610280830185611a21565b8181036103c0830152611bbe8184611aed565b90509695505050505050565b600073ffffffffffffffffffffffffffffffffffffffff82169050919050565b6000819050919050565b6000611c0f611c0a611c0584611bca565b611bea565b611bca565b9050919050565b6000611c2182611bf4565b9050919050565b6000611c3382611c16565b9050919050565b611c4381611c28565b82525050565b6000602082019050611c5e6000830184611c3a565b92915050565b7f4e487b7100000000000000000000000000000000000000000000000000000000600052602160045260246000fd5b60048110611ca457611ca3611c64565b5b50565b6000819050611cb582611c93565b919050565b6000611cc582611ca7565b9050919050565b611cd581611cba565b82525050565b600082825260208201905092915050565b6000611cf782611624565b611d018185611cdb565b9350611d11818560208601611640565b611d1a81610cc2565b840191505092915050565b6000604082019050611d3a6000830185611ccc565b8181036020830152611d4c8184611cec565b90509392505050565b611d5e81610e47565b8114611d6957600080fd5b50565b600081519050611d7b81611d55565b92915050565b600060208284031215611d9757611d96610cae565b5b6000611da584828501611d6c565b91505092915050565b7f446f75626c652064697070696e67206465746563746564210000000000000000600082015250565b6000611de4601883611cdb565b9150611def82611dae565b602082019050919050565b60006020820190508181036000830152611e1381611dd7565b9050919050565b7f4e487b7100000000000000000000000000000000000000000000000000000000600052601160045260246000fd5b6000611e5482611597565b91507fffffffffffffffffffffffffffffffffffffffffffffffffffffffffffffffff8203611e8657611e85611e1a565b5b600182019050919050565b7f4e487b7100000000000000000000000000000000000000000000000000000000600052602260045260246000fd5b60006002820490506001821680611ed857607f821691505b602082108103611eeb57611eea611e91565b5b50919050565b60008190508160005260206000209050919050565b60006020601f8301049050919050565b600082821b905092915050565b600060088302611f537fffffffffffffffffffffffffffffffffffffffffffffffffffffffffffffffff82611f16565b611f5d8683611f16565b95508019841693508086168417925050509392505050565b6000611f90611f8b611f8684611597565b611bea565b611597565b9050919050565b6000819050919050565b611faa83611f75565b611fbe611fb682611f97565b848454611f23565b825550505050565b600090565b611fd3611fc6565b611fde818484611fa1565b505050565b5b8181101561200257611ff7600082611fcb565b600181019050611fe4565b5050565b601f8211156120475761201881611ef1565b61202184611f06565b81016020851015612030578190505b61204461203c85611f06565b830182611fe3565b50505b505050565b600082821c905092915050565b600061206a6000198460080261204c565b1980831691505092915050565b60006120838383612059565b9150826002028217905092915050565b61209c82611624565b67ffffffffffffffff8111156120b5576120b4610cd3565b5b6120bf8254611ec0565b6120ca828285612006565b600060209050601f8311600181146120fd57600084156120eb578287015190505b6120f58582612077565b86555061215d565b601f19841661210b86611ef1565b60005b828110156121335784890151825560018201915060208501945060208101905061210e565b86831015612150578489015161214c601f891682612059565b8355505b6001600288020188555050505b505050505050565b600081905092915050565b600061217b82611624565b6121858185612165565b9350612195818560208601611640565b80840191505092915050565b60006121ad8284612170565b915081905092915050565b600060208201905081810360008301526121d28184611cec565b90509291505056fea2646970667358221220599a2ac016e0c90283c5531261f154e34f4e89f4eaaad9115a9882aa9ed0777c64736f6c634300081a0033",
  "linkReferences": {},
  "deployedLinkReferences": {}
}